{
	"contracts/AcceptanceVoting.sol": {
		"AcceptanceVoting": {
			"abi": [
				{
					"inputs": [
						{
							"internalType": "uint256",
							"name": "fee",
							"type": "uint256"
						},
						{
							"internalType": "uint256",
							"name": "voteDuration",
							"type": "uint256"
						}
					],
					"payable": false,
					"stateMutability": "nonpayable",
					"type": "constructor"
				},
				{
					"anonymous": false,
					"inputs": [
						{
							"indexed": false,
							"internalType": "address",
							"name": "newChairman",
							"type": "address"
						}
					],
					"name": "new_chairman",
					"type": "event"
				},
				{
					"anonymous": false,
					"inputs": [
						{
							"indexed": false,
							"internalType": "address",
							"name": "newCommitteeMember",
							"type": "address"
						}
					],
					"name": "new_committee_member",
					"type": "event"
				},
				{
					"anonymous": false,
					"inputs": [
						{
							"indexed": false,
							"internalType": "uint256",
							"name": "applicantNumber",
							"type": "uint256"
						},
						{
							"indexed": false,
							"internalType": "uint256",
							"name": "blockNumber",
							"type": "uint256"
						}
					],
					"name": "vote_close",
					"type": "event"
				},
				{
					"anonymous": false,
					"inputs": [
						{
							"indexed": false,
							"internalType": "uint256",
							"name": "applicantNumber",
							"type": "uint256"
						},
						{
							"indexed": false,
							"internalType": "uint256",
							"name": "blockNumber",
							"type": "uint256"
						}
					],
					"name": "vote_open",
					"type": "event"
				},
				{
					"anonymous": false,
					"inputs": [
						{
							"indexed": false,
							"internalType": "string",
							"name": "outcome",
							"type": "string"
						},
						{
							"indexed": false,
							"internalType": "uint256",
							"name": "applicantNumber",
							"type": "uint256"
						},
						{
							"indexed": false,
							"internalType": "uint256",
							"name": "applicantScore",
							"type": "uint256"
						},
						{
							"indexed": false,
							"internalType": "uint256",
							"name": "scoreNeeded",
							"type": "uint256"
						}
					],
					"name": "vote_results",
					"type": "event"
				},
				{
					"anonymous": false,
					"inputs": [
						{
							"indexed": false,
							"internalType": "address",
							"name": "committeeMember",
							"type": "address"
						},
						{
							"indexed": false,
							"internalType": "uint256",
							"name": "applicantNumber",
							"type": "uint256"
						},
						{
							"indexed": false,
							"internalType": "uint256",
							"name": "voteScore",
							"type": "uint256"
						}
					],
					"name": "voted",
					"type": "event"
				},
				{
					"constant": false,
					"inputs": [
						{
							"internalType": "uint256",
							"name": "institutionID",
							"type": "uint256"
						},
						{
							"internalType": "address",
							"name": "institutionAddress",
							"type": "address"
						},
						{
							"internalType": "string",
							"name": "institutionName",
							"type": "string"
						}
					],
					"name": "addApplicant",
					"outputs": [],
					"payable": false,
					"stateMutability": "nonpayable",
					"type": "function"
				},
				{
					"constant": false,
					"inputs": [
						{
							"internalType": "address",
							"name": "user",
							"type": "address"
						}
					],
					"name": "addCommitteeMember",
					"outputs": [],
					"payable": false,
					"stateMutability": "nonpayable",
					"type": "function"
				},
				{
					"constant": false,
					"inputs": [
						{
							"internalType": "address",
							"name": "user",
							"type": "address"
						}
					],
					"name": "changeChairman",
					"outputs": [],
					"payable": false,
					"stateMutability": "nonpayable",
					"type": "function"
				},
				{
					"constant": false,
					"inputs": [
						{
							"internalType": "uint256",
							"name": "votingDuration",
							"type": "uint256"
						}
					],
					"name": "changeDeadline",
					"outputs": [],
					"payable": false,
					"stateMutability": "nonpayable",
					"type": "function"
				},
				{
					"constant": false,
					"inputs": [
						{
							"internalType": "uint256",
							"name": "fee",
							"type": "uint256"
						}
					],
					"name": "changeFee",
					"outputs": [],
					"payable": false,
					"stateMutability": "nonpayable",
					"type": "function"
				},
				{
					"constant": true,
					"inputs": [
						{
							"internalType": "uint256",
							"name": "applicantNumber",
							"type": "uint256"
						}
					],
					"name": "checkApproved",
					"outputs": [
						{
							"internalType": "bool",
							"name": "",
							"type": "bool"
						}
					],
					"payable": false,
					"stateMutability": "view",
					"type": "function"
				},
				{
					"constant": true,
					"inputs": [
						{
							"internalType": "uint256",
							"name": "applicantNumber",
							"type": "uint256"
						}
					],
					"name": "checkConcluded",
					"outputs": [
						{
							"internalType": "bool",
							"name": "",
							"type": "bool"
						}
					],
					"payable": false,
					"stateMutability": "view",
					"type": "function"
				},
				{
					"constant": false,
					"inputs": [
						{
							"internalType": "uint256",
							"name": "applicantNumber",
							"type": "uint256"
						},
						{
							"internalType": "uint256",
							"name": "scoreNeeded",
							"type": "uint256"
						}
					],
					"name": "closeVote",
					"outputs": [],
					"payable": false,
					"stateMutability": "nonpayable",
					"type": "function"
				},
				{
					"constant": false,
					"inputs": [],
					"name": "distributeFee",
					"outputs": [],
					"payable": true,
					"stateMutability": "payable",
					"type": "function"
				},
				{
					"constant": true,
					"inputs": [
						{
							"internalType": "uint256",
							"name": "applicantNumber",
							"type": "uint256"
						}
					],
					"name": "getApplicantName",
					"outputs": [
						{
							"internalType": "string",
							"name": "",
							"type": "string"
						}
					],
					"payable": false,
					"stateMutability": "view",
					"type": "function"
				},
				{
					"constant": true,
					"inputs": [],
					"name": "getCommitteeChairman",
					"outputs": [
						{
							"internalType": "address",
							"name": "",
							"type": "address"
						}
					],
					"payable": false,
					"stateMutability": "view",
					"type": "function"
				},
				{
					"constant": true,
					"inputs": [],
					"name": "getCommitteeMembers",
					"outputs": [
						{
							"internalType": "address[]",
							"name": "",
							"type": "address[]"
						}
					],
					"payable": false,
					"stateMutability": "view",
					"type": "function"
				},
				{
					"constant": true,
					"inputs": [],
					"name": "getDeadline",
					"outputs": [
						{
							"internalType": "uint256",
							"name": "",
							"type": "uint256"
						}
					],
					"payable": false,
					"stateMutability": "view",
					"type": "function"
				},
				{
					"constant": true,
					"inputs": [],
					"name": "getFee",
					"outputs": [
						{
							"internalType": "uint256",
							"name": "",
							"type": "uint256"
						}
					],
					"payable": false,
					"stateMutability": "view",
					"type": "function"
				},
				{
					"constant": true,
					"inputs": [
						{
							"internalType": "uint256",
							"name": "applicantNumber",
							"type": "uint256"
						}
					],
					"name": "getVotingState",
					"outputs": [
						{
							"internalType": "enum AcceptanceVoting.VotingState",
							"name": "",
							"type": "uint8"
						}
					],
					"payable": false,
					"stateMutability": "view",
					"type": "function"
				},
				{
					"constant": true,
					"inputs": [],
					"name": "getvotingTimeframe",
					"outputs": [
						{
							"internalType": "uint256",
							"name": "",
							"type": "uint256"
						}
					],
					"payable": false,
					"stateMutability": "view",
					"type": "function"
				},
				{
					"constant": false,
					"inputs": [
						{
							"internalType": "uint256",
							"name": "applicantNumber",
							"type": "uint256"
						}
					],
					"name": "openVote",
					"outputs": [],
					"payable": false,
					"stateMutability": "nonpayable",
					"type": "function"
				},
				{
					"constant": false,
					"inputs": [
						{
							"internalType": "address",
							"name": "user",
							"type": "address"
						}
					],
					"name": "removeCommiteeMember",
					"outputs": [],
					"payable": false,
					"stateMutability": "nonpayable",
					"type": "function"
				},
				{
					"constant": false,
					"inputs": [
						{
							"internalType": "uint256",
							"name": "applicantNumber",
							"type": "uint256"
						},
						{
							"internalType": "bool",
							"name": "hasPhyiscalPremise",
							"type": "bool"
						},
						{
							"internalType": "bool",
							"name": "hasWebPresence",
							"type": "bool"
						},
						{
							"internalType": "bool",
							"name": "hasResearch",
							"type": "bool"
						},
						{
							"internalType": "bool",
							"name": "hasAwards",
							"type": "bool"
						},
						{
							"internalType": "bool",
							"name": "hasStudentMarketing",
							"type": "bool"
						}
					],
					"name": "vote",
					"outputs": [],
					"payable": false,
					"stateMutability": "nonpayable",
					"type": "function"
				}
			],
			"devdoc": {
				"methods": {}
			},
			"evm": {
				"assembly": "    /* \"contracts/AcceptanceVoting.sol\":27:8171  contract AcceptanceVoting {\r... */\n  mstore(0x40, 0x80)\n    /* \"contracts/AcceptanceVoting.sol\":2150:2350  constructor(uint256 fee, uint256 voteDuration) public {\r... */\n  callvalue\n    /* \"--CODEGEN--\":8:17   */\n  dup1\n    /* \"--CODEGEN--\":5:7   */\n  iszero\n  tag_1\n  jumpi\n    /* \"--CODEGEN--\":30:31   */\n  0x00\n    /* \"--CODEGEN--\":27:28   */\n  dup1\n    /* \"--CODEGEN--\":20:32   */\n  revert\n    /* \"--CODEGEN--\":5:7   */\ntag_1:\n    /* \"contracts/AcceptanceVoting.sol\":2150:2350  constructor(uint256 fee, uint256 voteDuration) public {\r... */\n  pop\n  mload(0x40)\n  sub(codesize, bytecodeSize)\n  dup1\n  bytecodeSize\n  dup4\n  codecopy\n  dup2\n  dup2\n  add\n  0x40\n  mstore\n    /* \"--CODEGEN--\":13:15   */\n  0x40\n    /* \"--CODEGEN--\":8:11   */\n  dup2\n    /* \"--CODEGEN--\":5:16   */\n  lt\n    /* \"--CODEGEN--\":2:4   */\n  iszero\n  tag_2\n  jumpi\n    /* \"--CODEGEN--\":29:30   */\n  0x00\n    /* \"--CODEGEN--\":26:27   */\n  dup1\n    /* \"--CODEGEN--\":19:31   */\n  revert\n    /* \"--CODEGEN--\":2:4   */\ntag_2:\n    /* \"contracts/AcceptanceVoting.sol\":2150:2350  constructor(uint256 fee, uint256 voteDuration) public {\r... */\n  dup2\n  add\n  swap1\n  dup1\n  dup1\n  mload\n  swap1\n  0x20\n  add\n  swap1\n  swap3\n  swap2\n  swap1\n  dup1\n  mload\n  swap1\n  0x20\n  add\n  swap1\n  swap3\n  swap2\n  swap1\n  pop\n  pop\n  pop\n    /* \"contracts/AcceptanceVoting.sol\":2231:2241  msg.sender */\n  caller\n    /* \"contracts/AcceptanceVoting.sol\":2211:2228  committeeChairman */\n  0x0b\n  0x00\n    /* \"contracts/AcceptanceVoting.sol\":2211:2241  committeeChairman = msg.sender */\n  0x0100\n  exp\n  dup2\n  sload\n  dup2\n  0xffffffffffffffffffffffffffffffffffffffff\n  mul\n  not\n  and\n  swap1\n  dup4\n  0xffffffffffffffffffffffffffffffffffffffff\n  and\n  mul\n  or\n  swap1\n  sstore\n  pop\n    /* \"contracts/AcceptanceVoting.sol\":2265:2268  fee */\n  dup2\n    /* \"contracts/AcceptanceVoting.sol\":2248:2262  applicationFee */\n  0x0a\n    /* \"contracts/AcceptanceVoting.sol\":2248:2268  applicationFee = fee */\n  dup2\n  swap1\n  sstore\n  pop\n    /* \"contracts/AcceptanceVoting.sol\":2293:2305  voteDuration */\n  dup1\n    /* \"contracts/AcceptanceVoting.sol\":2275:2290  votingTimeframe */\n  0x0c\n    /* \"contracts/AcceptanceVoting.sol\":2275:2305  votingTimeframe = voteDuration */\n  dup2\n  swap1\n  sstore\n  pop\n    /* \"contracts/AcceptanceVoting.sol\":2150:2350  constructor(uint256 fee, uint256 voteDuration) public {\r... */\n  pop\n  pop\n    /* \"contracts/AcceptanceVoting.sol\":27:8171  contract AcceptanceVoting {\r... */\n  dataSize(sub_0)\n  dup1\n  dataOffset(sub_0)\n  0x00\n  codecopy\n  0x00\n  return\nstop\n\nsub_0: assembly {\n        /* \"contracts/AcceptanceVoting.sol\":27:8171  contract AcceptanceVoting {\r... */\n      mstore(0x40, 0x80)\n      jumpi(tag_1, lt(calldatasize, 0x04))\n      shr(0xe0, calldataload(0x00))\n      dup1\n      0xa03b2a15\n      gt\n      tag_21\n      jumpi\n      dup1\n      0xced72f87\n      gt\n      tag_22\n      jumpi\n      dup1\n      0xced72f87\n      eq\n      tag_16\n      jumpi\n      dup1\n      0xe7f1f953\n      eq\n      tag_17\n      jumpi\n      dup1\n      0xe8101869\n      eq\n      tag_18\n      jumpi\n      dup1\n      0xe8fe14e4\n      eq\n      tag_19\n      jumpi\n      dup1\n      0xf3caf03b\n      eq\n      tag_20\n      jumpi\n      jump(tag_1)\n    tag_22:\n      dup1\n      0xa03b2a15\n      eq\n      tag_11\n      jumpi\n      dup1\n      0xaf3be4d8\n      eq\n      tag_12\n      jumpi\n      dup1\n      0xb2a275f9\n      eq\n      tag_13\n      jumpi\n      dup1\n      0xb38188d4\n      eq\n      tag_14\n      jumpi\n      dup1\n      0xbe7f114c\n      eq\n      tag_15\n      jumpi\n      jump(tag_1)\n    tag_21:\n      dup1\n      0x6a1db1bf\n      gt\n      tag_23\n      jumpi\n      dup1\n      0x6a1db1bf\n      eq\n      tag_6\n      jumpi\n      dup1\n      0x6c814acb\n      eq\n      tag_7\n      jumpi\n      dup1\n      0x7aca97b5\n      eq\n      tag_8\n      jumpi\n      dup1\n      0x8d00f82e\n      eq\n      tag_9\n      jumpi\n      dup1\n      0x94e4689d\n      eq\n      tag_10\n      jumpi\n      jump(tag_1)\n    tag_23:\n      dup1\n      0x26c4e60d\n      eq\n      tag_2\n      jumpi\n      dup1\n      0x56b2edb6\n      eq\n      tag_3\n      jumpi\n      dup1\n      0x5e01a6ff\n      eq\n      tag_4\n      jumpi\n      dup1\n      0x5f8d96de\n      eq\n      tag_5\n      jumpi\n    tag_1:\n      0x00\n      dup1\n      revert\n        /* \"contracts/AcceptanceVoting.sol\":5654:6008  function distributeFee() external payable {\r... */\n    tag_2:\n      tag_24\n      tag_25\n      jump\t// in\n    tag_24:\n      stop\n        /* \"contracts/AcceptanceVoting.sol\":4618:5648  function closeVote(\r... */\n    tag_3:\n      callvalue\n        /* \"--CODEGEN--\":8:17   */\n      dup1\n        /* \"--CODEGEN--\":5:7   */\n      iszero\n      tag_26\n      jumpi\n        /* \"--CODEGEN--\":30:31   */\n      0x00\n        /* \"--CODEGEN--\":27:28   */\n      dup1\n        /* \"--CODEGEN--\":20:32   */\n      revert\n        /* \"--CODEGEN--\":5:7   */\n    tag_26:\n        /* \"contracts/AcceptanceVoting.sol\":4618:5648  function closeVote(\r... */\n      pop\n      tag_27\n      0x04\n      dup1\n      calldatasize\n      sub\n        /* \"--CODEGEN--\":13:15   */\n      0x40\n        /* \"--CODEGEN--\":8:11   */\n      dup2\n        /* \"--CODEGEN--\":5:16   */\n      lt\n        /* \"--CODEGEN--\":2:4   */\n      iszero\n      tag_28\n      jumpi\n        /* \"--CODEGEN--\":29:30   */\n      0x00\n        /* \"--CODEGEN--\":26:27   */\n      dup1\n        /* \"--CODEGEN--\":19:31   */\n      revert\n        /* \"--CODEGEN--\":2:4   */\n    tag_28:\n        /* \"contracts/AcceptanceVoting.sol\":4618:5648  function closeVote(\r... */\n      dup2\n      add\n      swap1\n      dup1\n      dup1\n      calldataload\n      swap1\n      0x20\n      add\n      swap1\n      swap3\n      swap2\n      swap1\n      dup1\n      calldataload\n      swap1\n      0x20\n      add\n      swap1\n      swap3\n      swap2\n      swap1\n      pop\n      pop\n      pop\n      tag_29\n      jump\t// in\n    tag_27:\n      stop\n        /* \"contracts/AcceptanceVoting.sol\":2769:2908  function getApplicantName(uint256 applicantNumber) external view returns (string memory) {\r... */\n    tag_4:\n      callvalue\n        /* \"--CODEGEN--\":8:17   */\n      dup1\n        /* \"--CODEGEN--\":5:7   */\n      iszero\n      tag_30\n      jumpi\n        /* \"--CODEGEN--\":30:31   */\n      0x00\n        /* \"--CODEGEN--\":27:28   */\n      dup1\n        /* \"--CODEGEN--\":20:32   */\n      revert\n        /* \"--CODEGEN--\":5:7   */\n    tag_30:\n        /* \"contracts/AcceptanceVoting.sol\":2769:2908  function getApplicantName(uint256 applicantNumber) external view returns (string memory) {\r... */\n      pop\n      tag_31\n      0x04\n      dup1\n      calldatasize\n      sub\n        /* \"--CODEGEN--\":13:15   */\n      0x20\n        /* \"--CODEGEN--\":8:11   */\n      dup2\n        /* \"--CODEGEN--\":5:16   */\n      lt\n        /* \"--CODEGEN--\":2:4   */\n      iszero\n      tag_32\n      jumpi\n        /* \"--CODEGEN--\":29:30   */\n      0x00\n        /* \"--CODEGEN--\":26:27   */\n      dup1\n        /* \"--CODEGEN--\":19:31   */\n      revert\n        /* \"--CODEGEN--\":2:4   */\n    tag_32:\n        /* \"contracts/AcceptanceVoting.sol\":2769:2908  function getApplicantName(uint256 applicantNumber) external view returns (string memory) {\r... */\n      dup2\n      add\n      swap1\n      dup1\n      dup1\n      calldataload\n      swap1\n      0x20\n      add\n      swap1\n      swap3\n      swap2\n      swap1\n      pop\n      pop\n      pop\n      tag_33\n      jump\t// in\n    tag_31:\n      mload(0x40)\n      dup1\n      dup1\n      0x20\n      add\n      dup3\n      dup2\n      sub\n      dup3\n      mstore\n      dup4\n      dup2\n      dup2\n      mload\n      dup2\n      mstore\n      0x20\n      add\n      swap2\n      pop\n      dup1\n      mload\n      swap1\n      0x20\n      add\n      swap1\n      dup1\n      dup4\n      dup4\n        /* \"--CODEGEN--\":23:24   */\n      0x00\n        /* \"--CODEGEN--\":8:108   */\n    tag_34:\n        /* \"--CODEGEN--\":33:36   */\n      dup4\n        /* \"--CODEGEN--\":30:31   */\n      dup2\n        /* \"--CODEGEN--\":27:37   */\n      lt\n        /* \"--CODEGEN--\":8:108   */\n      iszero\n      tag_36\n      jumpi\n        /* \"--CODEGEN--\":99:100   */\n      dup1\n        /* \"--CODEGEN--\":94:97   */\n      dup3\n        /* \"--CODEGEN--\":90:101   */\n      add\n        /* \"--CODEGEN--\":84:102   */\n      mload\n        /* \"--CODEGEN--\":80:81   */\n      dup2\n        /* \"--CODEGEN--\":75:78   */\n      dup5\n        /* \"--CODEGEN--\":71:82   */\n      add\n        /* \"--CODEGEN--\":64:103   */\n      mstore\n        /* \"--CODEGEN--\":52:54   */\n      0x20\n        /* \"--CODEGEN--\":49:50   */\n      dup2\n        /* \"--CODEGEN--\":45:55   */\n      add\n        /* \"--CODEGEN--\":40:55   */\n      swap1\n      pop\n        /* \"--CODEGEN--\":8:108   */\n      jump(tag_34)\n    tag_36:\n        /* \"--CODEGEN--\":12:26   */\n      pop\n        /* \"contracts/AcceptanceVoting.sol\":2769:2908  function getApplicantName(uint256 applicantNumber) external view returns (string memory) {\r... */\n      pop\n      pop\n      pop\n      swap1\n      pop\n      swap1\n      dup2\n      add\n      swap1\n      0x1f\n      and\n      dup1\n      iszero\n      tag_37\n      jumpi\n      dup1\n      dup3\n      sub\n      dup1\n      mload\n      0x01\n      dup4\n      0x20\n      sub\n      0x0100\n      exp\n      sub\n      not\n      and\n      dup2\n      mstore\n      0x20\n      add\n      swap2\n      pop\n    tag_37:\n      pop\n      swap3\n      pop\n      pop\n      pop\n      mload(0x40)\n      dup1\n      swap2\n      sub\n      swap1\n      return\n        /* \"contracts/AcceptanceVoting.sol\":6547:6635  function getDeadline() public view returns (uint256) {\r... */\n    tag_5:\n      callvalue\n        /* \"--CODEGEN--\":8:17   */\n      dup1\n        /* \"--CODEGEN--\":5:7   */\n      iszero\n      tag_38\n      jumpi\n        /* \"--CODEGEN--\":30:31   */\n      0x00\n        /* \"--CODEGEN--\":27:28   */\n      dup1\n        /* \"--CODEGEN--\":20:32   */\n      revert\n        /* \"--CODEGEN--\":5:7   */\n    tag_38:\n        /* \"contracts/AcceptanceVoting.sol\":6547:6635  function getDeadline() public view returns (uint256) {\r... */\n      pop\n      tag_39\n      tag_40\n      jump\t// in\n    tag_39:\n      mload(0x40)\n      dup1\n      dup3\n      dup2\n      mstore\n      0x20\n      add\n      swap2\n      pop\n      pop\n      mload(0x40)\n      dup1\n      swap2\n      sub\n      swap1\n      return\n        /* \"contracts/AcceptanceVoting.sol\":6870:6953  function changeFee(uint256 fee) public isChairman {\r... */\n    tag_6:\n      callvalue\n        /* \"--CODEGEN--\":8:17   */\n      dup1\n        /* \"--CODEGEN--\":5:7   */\n      iszero\n      tag_41\n      jumpi\n        /* \"--CODEGEN--\":30:31   */\n      0x00\n        /* \"--CODEGEN--\":27:28   */\n      dup1\n        /* \"--CODEGEN--\":20:32   */\n      revert\n        /* \"--CODEGEN--\":5:7   */\n    tag_41:\n        /* \"contracts/AcceptanceVoting.sol\":6870:6953  function changeFee(uint256 fee) public isChairman {\r... */\n      pop\n      tag_42\n      0x04\n      dup1\n      calldatasize\n      sub\n        /* \"--CODEGEN--\":13:15   */\n      0x20\n        /* \"--CODEGEN--\":8:11   */\n      dup2\n        /* \"--CODEGEN--\":5:16   */\n      lt\n        /* \"--CODEGEN--\":2:4   */\n      iszero\n      tag_43\n      jumpi\n        /* \"--CODEGEN--\":29:30   */\n      0x00\n        /* \"--CODEGEN--\":26:27   */\n      dup1\n        /* \"--CODEGEN--\":19:31   */\n      revert\n        /* \"--CODEGEN--\":2:4   */\n    tag_43:\n        /* \"contracts/AcceptanceVoting.sol\":6870:6953  function changeFee(uint256 fee) public isChairman {\r... */\n      dup2\n      add\n      swap1\n      dup1\n      dup1\n      calldataload\n      swap1\n      0x20\n      add\n      swap1\n      swap3\n      swap2\n      swap1\n      pop\n      pop\n      pop\n      tag_44\n      jump\t// in\n    tag_42:\n      stop\n        /* \"contracts/AcceptanceVoting.sol\":6028:6129  function getCommitteeChairman() external view returns (address) {\r... */\n    tag_7:\n      callvalue\n        /* \"--CODEGEN--\":8:17   */\n      dup1\n        /* \"--CODEGEN--\":5:7   */\n      iszero\n      tag_45\n      jumpi\n        /* \"--CODEGEN--\":30:31   */\n      0x00\n        /* \"--CODEGEN--\":27:28   */\n      dup1\n        /* \"--CODEGEN--\":20:32   */\n      revert\n        /* \"--CODEGEN--\":5:7   */\n    tag_45:\n        /* \"contracts/AcceptanceVoting.sol\":6028:6129  function getCommitteeChairman() external view returns (address) {\r... */\n      pop\n      tag_46\n      tag_47\n      jump\t// in\n    tag_46:\n      mload(0x40)\n      dup1\n      dup3\n      0xffffffffffffffffffffffffffffffffffffffff\n      and\n      0xffffffffffffffffffffffffffffffffffffffff\n      and\n      dup2\n      mstore\n      0x20\n      add\n      swap2\n      pop\n      pop\n      mload(0x40)\n      dup1\n      swap2\n      sub\n      swap1\n      return\n        /* \"contracts/AcceptanceVoting.sol\":6753:6864  function changeDeadline(uint256 votingDuration) public isChairman {\r... */\n    tag_8:\n      callvalue\n        /* \"--CODEGEN--\":8:17   */\n      dup1\n        /* \"--CODEGEN--\":5:7   */\n      iszero\n      tag_48\n      jumpi\n        /* \"--CODEGEN--\":30:31   */\n      0x00\n        /* \"--CODEGEN--\":27:28   */\n      dup1\n        /* \"--CODEGEN--\":20:32   */\n      revert\n        /* \"--CODEGEN--\":5:7   */\n    tag_48:\n        /* \"contracts/AcceptanceVoting.sol\":6753:6864  function changeDeadline(uint256 votingDuration) public isChairman {\r... */\n      pop\n      tag_49\n      0x04\n      dup1\n      calldatasize\n      sub\n        /* \"--CODEGEN--\":13:15   */\n      0x20\n        /* \"--CODEGEN--\":8:11   */\n      dup2\n        /* \"--CODEGEN--\":5:16   */\n      lt\n        /* \"--CODEGEN--\":2:4   */\n      iszero\n      tag_50\n      jumpi\n        /* \"--CODEGEN--\":29:30   */\n      0x00\n        /* \"--CODEGEN--\":26:27   */\n      dup1\n        /* \"--CODEGEN--\":19:31   */\n      revert\n        /* \"--CODEGEN--\":2:4   */\n    tag_50:\n        /* \"contracts/AcceptanceVoting.sol\":6753:6864  function changeDeadline(uint256 votingDuration) public isChairman {\r... */\n      dup2\n      add\n      swap1\n      dup1\n      dup1\n      calldataload\n      swap1\n      0x20\n      add\n      swap1\n      swap3\n      swap2\n      swap1\n      pop\n      pop\n      pop\n      tag_51\n      jump\t// in\n    tag_49:\n      stop\n        /* \"contracts/AcceptanceVoting.sol\":4149:4612  function openVote(uint256 applicantNumber) external isChairman {\r... */\n    tag_9:\n      callvalue\n        /* \"--CODEGEN--\":8:17   */\n      dup1\n        /* \"--CODEGEN--\":5:7   */\n      iszero\n      tag_52\n      jumpi\n        /* \"--CODEGEN--\":30:31   */\n      0x00\n        /* \"--CODEGEN--\":27:28   */\n      dup1\n        /* \"--CODEGEN--\":20:32   */\n      revert\n        /* \"--CODEGEN--\":5:7   */\n    tag_52:\n        /* \"contracts/AcceptanceVoting.sol\":4149:4612  function openVote(uint256 applicantNumber) external isChairman {\r... */\n      pop\n      tag_53\n      0x04\n      dup1\n      calldatasize\n      sub\n        /* \"--CODEGEN--\":13:15   */\n      0x20\n        /* \"--CODEGEN--\":8:11   */\n      dup2\n        /* \"--CODEGEN--\":5:16   */\n      lt\n        /* \"--CODEGEN--\":2:4   */\n      iszero\n      tag_54\n      jumpi\n        /* \"--CODEGEN--\":29:30   */\n      0x00\n        /* \"--CODEGEN--\":26:27   */\n      dup1\n        /* \"--CODEGEN--\":19:31   */\n      revert\n        /* \"--CODEGEN--\":2:4   */\n    tag_54:\n        /* \"contracts/AcceptanceVoting.sol\":4149:4612  function openVote(uint256 applicantNumber) external isChairman {\r... */\n      dup2\n      add\n      swap1\n      dup1\n      dup1\n      calldataload\n      swap1\n      0x20\n      add\n      swap1\n      swap3\n      swap2\n      swap1\n      pop\n      pop\n      pop\n      tag_55\n      jump\t// in\n    tag_53:\n      stop\n        /* \"contracts/AcceptanceVoting.sol\":6135:6232  function getvotingTimeframe() external view returns (uint256) {\r... */\n    tag_10:\n      callvalue\n        /* \"--CODEGEN--\":8:17   */\n      dup1\n        /* \"--CODEGEN--\":5:7   */\n      iszero\n      tag_56\n      jumpi\n        /* \"--CODEGEN--\":30:31   */\n      0x00\n        /* \"--CODEGEN--\":27:28   */\n      dup1\n        /* \"--CODEGEN--\":20:32   */\n      revert\n        /* \"--CODEGEN--\":5:7   */\n    tag_56:\n        /* \"contracts/AcceptanceVoting.sol\":6135:6232  function getvotingTimeframe() external view returns (uint256) {\r... */\n      pop\n      tag_57\n      tag_58\n      jump\t// in\n    tag_57:\n      mload(0x40)\n      dup1\n      dup3\n      dup2\n      mstore\n      0x20\n      add\n      swap2\n      pop\n      pop\n      mload(0x40)\n      dup1\n      swap2\n      sub\n      swap1\n      return\n        /* \"contracts/AcceptanceVoting.sol\":7104:7744  function removeCommiteeMember(address user) public isChairman {\r... */\n    tag_11:\n      callvalue\n        /* \"--CODEGEN--\":8:17   */\n      dup1\n        /* \"--CODEGEN--\":5:7   */\n      iszero\n      tag_59\n      jumpi\n        /* \"--CODEGEN--\":30:31   */\n      0x00\n        /* \"--CODEGEN--\":27:28   */\n      dup1\n        /* \"--CODEGEN--\":20:32   */\n      revert\n        /* \"--CODEGEN--\":5:7   */\n    tag_59:\n        /* \"contracts/AcceptanceVoting.sol\":7104:7744  function removeCommiteeMember(address user) public isChairman {\r... */\n      pop\n      tag_60\n      0x04\n      dup1\n      calldatasize\n      sub\n        /* \"--CODEGEN--\":13:15   */\n      0x20\n        /* \"--CODEGEN--\":8:11   */\n      dup2\n        /* \"--CODEGEN--\":5:16   */\n      lt\n        /* \"--CODEGEN--\":2:4   */\n      iszero\n      tag_61\n      jumpi\n        /* \"--CODEGEN--\":29:30   */\n      0x00\n        /* \"--CODEGEN--\":26:27   */\n      dup1\n        /* \"--CODEGEN--\":19:31   */\n      revert\n        /* \"--CODEGEN--\":2:4   */\n    tag_61:\n        /* \"contracts/AcceptanceVoting.sol\":7104:7744  function removeCommiteeMember(address user) public isChairman {\r... */\n      dup2\n      add\n      swap1\n      dup1\n      dup1\n      calldataload\n      0xffffffffffffffffffffffffffffffffffffffff\n      and\n      swap1\n      0x20\n      add\n      swap1\n      swap3\n      swap2\n      swap1\n      pop\n      pop\n      pop\n      tag_62\n      jump\t// in\n    tag_60:\n      stop\n        /* \"contracts/AcceptanceVoting.sol\":2914:3038  function checkApproved(uint256 applicantNumber) external view returns (bool) {\r... */\n    tag_12:\n      callvalue\n        /* \"--CODEGEN--\":8:17   */\n      dup1\n        /* \"--CODEGEN--\":5:7   */\n      iszero\n      tag_63\n      jumpi\n        /* \"--CODEGEN--\":30:31   */\n      0x00\n        /* \"--CODEGEN--\":27:28   */\n      dup1\n        /* \"--CODEGEN--\":20:32   */\n      revert\n        /* \"--CODEGEN--\":5:7   */\n    tag_63:\n        /* \"contracts/AcceptanceVoting.sol\":2914:3038  function checkApproved(uint256 applicantNumber) external view returns (bool) {\r... */\n      pop\n      tag_64\n      0x04\n      dup1\n      calldatasize\n      sub\n        /* \"--CODEGEN--\":13:15   */\n      0x20\n        /* \"--CODEGEN--\":8:11   */\n      dup2\n        /* \"--CODEGEN--\":5:16   */\n      lt\n        /* \"--CODEGEN--\":2:4   */\n      iszero\n      tag_65\n      jumpi\n        /* \"--CODEGEN--\":29:30   */\n      0x00\n        /* \"--CODEGEN--\":26:27   */\n      dup1\n        /* \"--CODEGEN--\":19:31   */\n      revert\n        /* \"--CODEGEN--\":2:4   */\n    tag_65:\n        /* \"contracts/AcceptanceVoting.sol\":2914:3038  function checkApproved(uint256 applicantNumber) external view returns (bool) {\r... */\n      dup2\n      add\n      swap1\n      dup1\n      dup1\n      calldataload\n      swap1\n      0x20\n      add\n      swap1\n      swap3\n      swap2\n      swap1\n      pop\n      pop\n      pop\n      tag_66\n      jump\t// in\n    tag_64:\n      mload(0x40)\n      dup1\n      dup3\n      iszero\n      iszero\n      iszero\n      iszero\n      dup2\n      mstore\n      0x20\n      add\n      swap2\n      pop\n      pop\n      mload(0x40)\n      dup1\n      swap2\n      sub\n      swap1\n      return\n        /* \"contracts/AcceptanceVoting.sol\":6641:6747  function getCommitteeMembers() public view returns (address[] memory) {\r... */\n    tag_13:\n      callvalue\n        /* \"--CODEGEN--\":8:17   */\n      dup1\n        /* \"--CODEGEN--\":5:7   */\n      iszero\n      tag_67\n      jumpi\n        /* \"--CODEGEN--\":30:31   */\n      0x00\n        /* \"--CODEGEN--\":27:28   */\n      dup1\n        /* \"--CODEGEN--\":20:32   */\n      revert\n        /* \"--CODEGEN--\":5:7   */\n    tag_67:\n        /* \"contracts/AcceptanceVoting.sol\":6641:6747  function getCommitteeMembers() public view returns (address[] memory) {\r... */\n      pop\n      tag_68\n      tag_69\n      jump\t// in\n    tag_68:\n      mload(0x40)\n      dup1\n      dup1\n      0x20\n      add\n      dup3\n      dup2\n      sub\n      dup3\n      mstore\n      dup4\n      dup2\n      dup2\n      mload\n      dup2\n      mstore\n      0x20\n      add\n      swap2\n      pop\n      dup1\n      mload\n      swap1\n      0x20\n      add\n      swap1\n      0x20\n      mul\n      dup1\n      dup4\n      dup4\n        /* \"--CODEGEN--\":23:24   */\n      0x00\n        /* \"--CODEGEN--\":8:108   */\n    tag_70:\n        /* \"--CODEGEN--\":33:36   */\n      dup4\n        /* \"--CODEGEN--\":30:31   */\n      dup2\n        /* \"--CODEGEN--\":27:37   */\n      lt\n        /* \"--CODEGEN--\":8:108   */\n      iszero\n      tag_72\n      jumpi\n        /* \"--CODEGEN--\":99:100   */\n      dup1\n        /* \"--CODEGEN--\":94:97   */\n      dup3\n        /* \"--CODEGEN--\":90:101   */\n      add\n        /* \"--CODEGEN--\":84:102   */\n      mload\n        /* \"--CODEGEN--\":80:81   */\n      dup2\n        /* \"--CODEGEN--\":75:78   */\n      dup5\n        /* \"--CODEGEN--\":71:82   */\n      add\n        /* \"--CODEGEN--\":64:103   */\n      mstore\n        /* \"--CODEGEN--\":52:54   */\n      0x20\n        /* \"--CODEGEN--\":49:50   */\n      dup2\n        /* \"--CODEGEN--\":45:55   */\n      add\n        /* \"--CODEGEN--\":40:55   */\n      swap1\n      pop\n        /* \"--CODEGEN--\":8:108   */\n      jump(tag_70)\n    tag_72:\n        /* \"--CODEGEN--\":12:26   */\n      pop\n        /* \"contracts/AcceptanceVoting.sol\":6641:6747  function getCommitteeMembers() public view returns (address[] memory) {\r... */\n      pop\n      pop\n      pop\n      swap1\n      pop\n      add\n      swap3\n      pop\n      pop\n      pop\n      mload(0x40)\n      dup1\n      swap2\n      sub\n      swap1\n      return\n        /* \"contracts/AcceptanceVoting.sol\":3044:3170  function checkConcluded(uint256 applicantNumber) external view returns (bool) {\r... */\n    tag_14:\n      callvalue\n        /* \"--CODEGEN--\":8:17   */\n      dup1\n        /* \"--CODEGEN--\":5:7   */\n      iszero\n      tag_73\n      jumpi\n        /* \"--CODEGEN--\":30:31   */\n      0x00\n        /* \"--CODEGEN--\":27:28   */\n      dup1\n        /* \"--CODEGEN--\":20:32   */\n      revert\n        /* \"--CODEGEN--\":5:7   */\n    tag_73:\n        /* \"contracts/AcceptanceVoting.sol\":3044:3170  function checkConcluded(uint256 applicantNumber) external view returns (bool) {\r... */\n      pop\n      tag_74\n      0x04\n      dup1\n      calldatasize\n      sub\n        /* \"--CODEGEN--\":13:15   */\n      0x20\n        /* \"--CODEGEN--\":8:11   */\n      dup2\n        /* \"--CODEGEN--\":5:16   */\n      lt\n        /* \"--CODEGEN--\":2:4   */\n      iszero\n      tag_75\n      jumpi\n        /* \"--CODEGEN--\":29:30   */\n      0x00\n        /* \"--CODEGEN--\":26:27   */\n      dup1\n        /* \"--CODEGEN--\":19:31   */\n      revert\n        /* \"--CODEGEN--\":2:4   */\n    tag_75:\n        /* \"contracts/AcceptanceVoting.sol\":3044:3170  function checkConcluded(uint256 applicantNumber) external view returns (bool) {\r... */\n      dup2\n      add\n      swap1\n      dup1\n      dup1\n      calldataload\n      swap1\n      0x20\n      add\n      swap1\n      swap3\n      swap2\n      swap1\n      pop\n      pop\n      pop\n      tag_76\n      jump\t// in\n    tag_74:\n      mload(0x40)\n      dup1\n      dup3\n      iszero\n      iszero\n      iszero\n      iszero\n      dup2\n      mstore\n      0x20\n      add\n      swap2\n      pop\n      pop\n      mload(0x40)\n      dup1\n      swap2\n      sub\n      swap1\n      return\n        /* \"contracts/AcceptanceVoting.sol\":3176:4143  function vote(\r... */\n    tag_15:\n      callvalue\n        /* \"--CODEGEN--\":8:17   */\n      dup1\n        /* \"--CODEGEN--\":5:7   */\n      iszero\n      tag_77\n      jumpi\n        /* \"--CODEGEN--\":30:31   */\n      0x00\n        /* \"--CODEGEN--\":27:28   */\n      dup1\n        /* \"--CODEGEN--\":20:32   */\n      revert\n        /* \"--CODEGEN--\":5:7   */\n    tag_77:\n        /* \"contracts/AcceptanceVoting.sol\":3176:4143  function vote(\r... */\n      pop\n      tag_78\n      0x04\n      dup1\n      calldatasize\n      sub\n        /* \"--CODEGEN--\":13:16   */\n      0xc0\n        /* \"--CODEGEN--\":8:11   */\n      dup2\n        /* \"--CODEGEN--\":5:17   */\n      lt\n        /* \"--CODEGEN--\":2:4   */\n      iszero\n      tag_79\n      jumpi\n        /* \"--CODEGEN--\":30:31   */\n      0x00\n        /* \"--CODEGEN--\":27:28   */\n      dup1\n        /* \"--CODEGEN--\":20:32   */\n      revert\n        /* \"--CODEGEN--\":2:4   */\n    tag_79:\n        /* \"contracts/AcceptanceVoting.sol\":3176:4143  function vote(\r... */\n      dup2\n      add\n      swap1\n      dup1\n      dup1\n      calldataload\n      swap1\n      0x20\n      add\n      swap1\n      swap3\n      swap2\n      swap1\n      dup1\n      calldataload\n      iszero\n      iszero\n      swap1\n      0x20\n      add\n      swap1\n      swap3\n      swap2\n      swap1\n      dup1\n      calldataload\n      iszero\n      iszero\n      swap1\n      0x20\n      add\n      swap1\n      swap3\n      swap2\n      swap1\n      dup1\n      calldataload\n      iszero\n      iszero\n      swap1\n      0x20\n      add\n      swap1\n      swap3\n      swap2\n      swap1\n      dup1\n      calldataload\n      iszero\n      iszero\n      swap1\n      0x20\n      add\n      swap1\n      swap3\n      swap2\n      swap1\n      dup1\n      calldataload\n      iszero\n      iszero\n      swap1\n      0x20\n      add\n      swap1\n      swap3\n      swap2\n      swap1\n      pop\n      pop\n      pop\n      tag_80\n      jump\t// in\n    tag_78:\n      stop\n        /* \"contracts/AcceptanceVoting.sol\":6459:6541  function getFee() public view returns (uint256) {\r... */\n    tag_16:\n      callvalue\n        /* \"--CODEGEN--\":8:17   */\n      dup1\n        /* \"--CODEGEN--\":5:7   */\n      iszero\n      tag_81\n      jumpi\n        /* \"--CODEGEN--\":30:31   */\n      0x00\n        /* \"--CODEGEN--\":27:28   */\n      dup1\n        /* \"--CODEGEN--\":20:32   */\n      revert\n        /* \"--CODEGEN--\":5:7   */\n    tag_81:\n        /* \"contracts/AcceptanceVoting.sol\":6459:6541  function getFee() public view returns (uint256) {\r... */\n      pop\n      tag_82\n      tag_83\n      jump\t// in\n    tag_82:\n      mload(0x40)\n      dup1\n      dup3\n      dup2\n      mstore\n      0x20\n      add\n      swap2\n      pop\n      pop\n      mload(0x40)\n      dup1\n      swap2\n      sub\n      swap1\n      return\n        /* \"contracts/AcceptanceVoting.sol\":7750:8039  function addCommitteeMember(address user) public isChairman {\r... */\n    tag_17:\n      callvalue\n        /* \"--CODEGEN--\":8:17   */\n      dup1\n        /* \"--CODEGEN--\":5:7   */\n      iszero\n      tag_84\n      jumpi\n        /* \"--CODEGEN--\":30:31   */\n      0x00\n        /* \"--CODEGEN--\":27:28   */\n      dup1\n        /* \"--CODEGEN--\":20:32   */\n      revert\n        /* \"--CODEGEN--\":5:7   */\n    tag_84:\n        /* \"contracts/AcceptanceVoting.sol\":7750:8039  function addCommitteeMember(address user) public isChairman {\r... */\n      pop\n      tag_85\n      0x04\n      dup1\n      calldatasize\n      sub\n        /* \"--CODEGEN--\":13:15   */\n      0x20\n        /* \"--CODEGEN--\":8:11   */\n      dup2\n        /* \"--CODEGEN--\":5:16   */\n      lt\n        /* \"--CODEGEN--\":2:4   */\n      iszero\n      tag_86\n      jumpi\n        /* \"--CODEGEN--\":29:30   */\n      0x00\n        /* \"--CODEGEN--\":26:27   */\n      dup1\n        /* \"--CODEGEN--\":19:31   */\n      revert\n        /* \"--CODEGEN--\":2:4   */\n    tag_86:\n        /* \"contracts/AcceptanceVoting.sol\":7750:8039  function addCommitteeMember(address user) public isChairman {\r... */\n      dup2\n      add\n      swap1\n      dup1\n      dup1\n      calldataload\n      0xffffffffffffffffffffffffffffffffffffffff\n      and\n      swap1\n      0x20\n      add\n      swap1\n      swap3\n      swap2\n      swap1\n      pop\n      pop\n      pop\n      tag_87\n      jump\t// in\n    tag_85:\n      stop\n        /* \"contracts/AcceptanceVoting.sol\":8045:8168  function changeChairman(address user) public isChairman {\r... */\n    tag_18:\n      callvalue\n        /* \"--CODEGEN--\":8:17   */\n      dup1\n        /* \"--CODEGEN--\":5:7   */\n      iszero\n      tag_88\n      jumpi\n        /* \"--CODEGEN--\":30:31   */\n      0x00\n        /* \"--CODEGEN--\":27:28   */\n      dup1\n        /* \"--CODEGEN--\":20:32   */\n      revert\n        /* \"--CODEGEN--\":5:7   */\n    tag_88:\n        /* \"contracts/AcceptanceVoting.sol\":8045:8168  function changeChairman(address user) public isChairman {\r... */\n      pop\n      tag_89\n      0x04\n      dup1\n      calldatasize\n      sub\n        /* \"--CODEGEN--\":13:15   */\n      0x20\n        /* \"--CODEGEN--\":8:11   */\n      dup2\n        /* \"--CODEGEN--\":5:16   */\n      lt\n        /* \"--CODEGEN--\":2:4   */\n      iszero\n      tag_90\n      jumpi\n        /* \"--CODEGEN--\":29:30   */\n      0x00\n        /* \"--CODEGEN--\":26:27   */\n      dup1\n        /* \"--CODEGEN--\":19:31   */\n      revert\n        /* \"--CODEGEN--\":2:4   */\n    tag_90:\n        /* \"contracts/AcceptanceVoting.sol\":8045:8168  function changeChairman(address user) public isChairman {\r... */\n      dup2\n      add\n      swap1\n      dup1\n      dup1\n      calldataload\n      0xffffffffffffffffffffffffffffffffffffffff\n      and\n      swap1\n      0x20\n      add\n      swap1\n      swap3\n      swap2\n      swap1\n      pop\n      pop\n      pop\n      tag_91\n      jump\t// in\n    tag_89:\n      stop\n        /* \"contracts/AcceptanceVoting.sol\":2506:2763  function addApplicant (\r... */\n    tag_19:\n      callvalue\n        /* \"--CODEGEN--\":8:17   */\n      dup1\n        /* \"--CODEGEN--\":5:7   */\n      iszero\n      tag_92\n      jumpi\n        /* \"--CODEGEN--\":30:31   */\n      0x00\n        /* \"--CODEGEN--\":27:28   */\n      dup1\n        /* \"--CODEGEN--\":20:32   */\n      revert\n        /* \"--CODEGEN--\":5:7   */\n    tag_92:\n        /* \"contracts/AcceptanceVoting.sol\":2506:2763  function addApplicant (\r... */\n      pop\n      tag_93\n      0x04\n      dup1\n      calldatasize\n      sub\n        /* \"--CODEGEN--\":13:15   */\n      0x60\n        /* \"--CODEGEN--\":8:11   */\n      dup2\n        /* \"--CODEGEN--\":5:16   */\n      lt\n        /* \"--CODEGEN--\":2:4   */\n      iszero\n      tag_94\n      jumpi\n        /* \"--CODEGEN--\":29:30   */\n      0x00\n        /* \"--CODEGEN--\":26:27   */\n      dup1\n        /* \"--CODEGEN--\":19:31   */\n      revert\n        /* \"--CODEGEN--\":2:4   */\n    tag_94:\n        /* \"contracts/AcceptanceVoting.sol\":2506:2763  function addApplicant (\r... */\n      dup2\n      add\n      swap1\n      dup1\n      dup1\n      calldataload\n      swap1\n      0x20\n      add\n      swap1\n      swap3\n      swap2\n      swap1\n      dup1\n      calldataload\n      0xffffffffffffffffffffffffffffffffffffffff\n      and\n      swap1\n      0x20\n      add\n      swap1\n      swap3\n      swap2\n      swap1\n      dup1\n      calldataload\n      swap1\n      0x20\n      add\n      swap1\n        /* \"--CODEGEN--\":21:32   */\n      0x0100000000\n        /* \"--CODEGEN--\":8:19   */\n      dup2\n        /* \"--CODEGEN--\":5:33   */\n      gt\n        /* \"--CODEGEN--\":2:4   */\n      iszero\n      tag_95\n      jumpi\n        /* \"--CODEGEN--\":46:47   */\n      0x00\n        /* \"--CODEGEN--\":43:44   */\n      dup1\n        /* \"--CODEGEN--\":36:48   */\n      revert\n        /* \"--CODEGEN--\":2:4   */\n    tag_95:\n        /* \"contracts/AcceptanceVoting.sol\":2506:2763  function addApplicant (\r... */\n      dup3\n      add\n        /* \"--CODEGEN--\":35:44   */\n      dup4\n        /* \"--CODEGEN--\":28:32   */\n      0x20\n        /* \"--CODEGEN--\":12:26   */\n      dup3\n        /* \"--CODEGEN--\":8:33   */\n      add\n        /* \"--CODEGEN--\":5:45   */\n      gt\n        /* \"--CODEGEN--\":2:4   */\n      iszero\n      tag_96\n      jumpi\n        /* \"--CODEGEN--\":58:59   */\n      0x00\n        /* \"--CODEGEN--\":55:56   */\n      dup1\n        /* \"--CODEGEN--\":48:60   */\n      revert\n        /* \"--CODEGEN--\":2:4   */\n    tag_96:\n        /* \"contracts/AcceptanceVoting.sol\":2506:2763  function addApplicant (\r... */\n      dup1\n      calldataload\n      swap1\n      0x20\n      add\n      swap2\n        /* \"--CODEGEN--\":100:109   */\n      dup5\n        /* \"--CODEGEN--\":95:96   */\n      0x01\n        /* \"--CODEGEN--\":81:93   */\n      dup4\n        /* \"--CODEGEN--\":77:97   */\n      mul\n        /* \"--CODEGEN--\":67:75   */\n      dup5\n        /* \"--CODEGEN--\":63:98   */\n      add\n        /* \"--CODEGEN--\":60:110   */\n      gt\n        /* \"--CODEGEN--\":39:50   */\n      0x0100000000\n        /* \"--CODEGEN--\":25:37   */\n      dup4\n        /* \"--CODEGEN--\":22:51   */\n      gt\n        /* \"--CODEGEN--\":11:118   */\n      or\n        /* \"--CODEGEN--\":8:10   */\n      iszero\n      tag_97\n      jumpi\n        /* \"--CODEGEN--\":131:132   */\n      0x00\n        /* \"--CODEGEN--\":128:129   */\n      dup1\n        /* \"--CODEGEN--\":121:133   */\n      revert\n        /* \"--CODEGEN--\":8:10   */\n    tag_97:\n        /* \"contracts/AcceptanceVoting.sol\":2506:2763  function addApplicant (\r... */\n      swap1\n      swap2\n      swap3\n      swap4\n      swap2\n      swap3\n      swap4\n      swap1\n      pop\n      pop\n      pop\n      tag_98\n      jump\t// in\n    tag_93:\n      stop\n        /* \"contracts/AcceptanceVoting.sol\":6319:6453  function getVotingState(uint256 applicantNumber) external view returns (VotingState) {\r... */\n    tag_20:\n      callvalue\n        /* \"--CODEGEN--\":8:17   */\n      dup1\n        /* \"--CODEGEN--\":5:7   */\n      iszero\n      tag_99\n      jumpi\n        /* \"--CODEGEN--\":30:31   */\n      0x00\n        /* \"--CODEGEN--\":27:28   */\n      dup1\n        /* \"--CODEGEN--\":20:32   */\n      revert\n        /* \"--CODEGEN--\":5:7   */\n    tag_99:\n        /* \"contracts/AcceptanceVoting.sol\":6319:6453  function getVotingState(uint256 applicantNumber) external view returns (VotingState) {\r... */\n      pop\n      tag_100\n      0x04\n      dup1\n      calldatasize\n      sub\n        /* \"--CODEGEN--\":13:15   */\n      0x20\n        /* \"--CODEGEN--\":8:11   */\n      dup2\n        /* \"--CODEGEN--\":5:16   */\n      lt\n        /* \"--CODEGEN--\":2:4   */\n      iszero\n      tag_101\n      jumpi\n        /* \"--CODEGEN--\":29:30   */\n      0x00\n        /* \"--CODEGEN--\":26:27   */\n      dup1\n        /* \"--CODEGEN--\":19:31   */\n      revert\n        /* \"--CODEGEN--\":2:4   */\n    tag_101:\n        /* \"contracts/AcceptanceVoting.sol\":6319:6453  function getVotingState(uint256 applicantNumber) external view returns (VotingState) {\r... */\n      dup2\n      add\n      swap1\n      dup1\n      dup1\n      calldataload\n      swap1\n      0x20\n      add\n      swap1\n      swap3\n      swap2\n      swap1\n      pop\n      pop\n      pop\n      tag_102\n      jump\t// in\n    tag_100:\n      mload(0x40)\n      dup1\n      dup3\n      0x01\n      dup2\n      gt\n      iszero\n      tag_103\n      jumpi\n      invalid\n    tag_103:\n      0xff\n      and\n      dup2\n      mstore\n      0x20\n      add\n      swap2\n      pop\n      pop\n      mload(0x40)\n      dup1\n      swap2\n      sub\n      swap1\n      return\n        /* \"contracts/AcceptanceVoting.sol\":5654:6008  function distributeFee() external payable {\r... */\n    tag_25:\n        /* \"contracts/AcceptanceVoting.sol\":5774:5785  uint256 val */\n      0x00\n        /* \"contracts/AcceptanceVoting.sol\":5805:5821  committeeMembers */\n      dup1\n        /* \"contracts/AcceptanceVoting.sol\":5805:5828  committeeMembers.length */\n      dup1\n      sload\n      swap1\n      pop\n        /* \"contracts/AcceptanceVoting.sol\":5788:5802  applicationFee */\n      sload(0x0a)\n        /* \"contracts/AcceptanceVoting.sol\":5788:5828  applicationFee / committeeMembers.length */\n      dup2\n      tag_105\n      jumpi\n      invalid\n    tag_105:\n      div\n        /* \"contracts/AcceptanceVoting.sol\":5774:5828  uint256 val = applicationFee / committeeMembers.length */\n      swap1\n      pop\n        /* \"contracts/AcceptanceVoting.sol\":5840:5849  uint256 i */\n      0x00\n        /* \"contracts/AcceptanceVoting.sol\":5852:5853  0 */\n      dup1\n        /* \"contracts/AcceptanceVoting.sol\":5840:5853  uint256 i = 0 */\n      swap1\n      pop\n        /* \"contracts/AcceptanceVoting.sol\":5835:6003  for (uint256 i = 0; i < committeeMembers.length; i++) {\r... */\n    tag_106:\n        /* \"contracts/AcceptanceVoting.sol\":5859:5875  committeeMembers */\n      0x00\n        /* \"contracts/AcceptanceVoting.sol\":5859:5882  committeeMembers.length */\n      dup1\n      sload\n      swap1\n      pop\n        /* \"contracts/AcceptanceVoting.sol\":5855:5856  i */\n      dup2\n        /* \"contracts/AcceptanceVoting.sol\":5855:5882  i < committeeMembers.length */\n      lt\n        /* \"contracts/AcceptanceVoting.sol\":5835:6003  for (uint256 i = 0; i < committeeMembers.length; i++) {\r... */\n      iszero\n      tag_107\n      jumpi\n        /* \"contracts/AcceptanceVoting.sol\":5898:5923  address payable recipient */\n      0x00\n        /* \"contracts/AcceptanceVoting.sol\":5942:5958  committeeMembers */\n      dup1\n        /* \"contracts/AcceptanceVoting.sol\":5959:5960  i */\n      dup3\n        /* \"contracts/AcceptanceVoting.sol\":5942:5961  committeeMembers[i] */\n      dup2\n      sload\n      dup2\n      lt\n      tag_109\n      jumpi\n      invalid\n    tag_109:\n      swap1\n      0x00\n      mstore\n      keccak256(0x00, 0x20)\n      add\n      0x00\n      swap1\n      sload\n      swap1\n      0x0100\n      exp\n      swap1\n      div\n      0xffffffffffffffffffffffffffffffffffffffff\n      and\n        /* \"contracts/AcceptanceVoting.sol\":5898:5963  address payable recipient = address(uint160(committeeMembers[i])) */\n      swap1\n      pop\n        /* \"contracts/AcceptanceVoting.sol\":5972:5981  recipient */\n      dup1\n        /* \"contracts/AcceptanceVoting.sol\":5972:5990  recipient.transfer */\n      0xffffffffffffffffffffffffffffffffffffffff\n      and\n        /* \"contracts/AcceptanceVoting.sol\":5972:5995  recipient.transfer(val) */\n      0x08fc\n        /* \"contracts/AcceptanceVoting.sol\":5991:5994  val */\n      dup5\n        /* \"contracts/AcceptanceVoting.sol\":5972:5995  recipient.transfer(val) */\n      swap1\n      dup2\n      iszero\n      mul\n      swap1\n      mload(0x40)\n      0x00\n      mload(0x40)\n      dup1\n      dup4\n      sub\n      dup2\n      dup6\n      dup9\n      dup9\n      call\n      swap4\n      pop\n      pop\n      pop\n      pop\n      iszero\n        /* \"--CODEGEN--\":8:17   */\n      dup1\n        /* \"--CODEGEN--\":5:7   */\n      iszero\n      tag_111\n      jumpi\n        /* \"--CODEGEN--\":45:61   */\n      returndatasize\n        /* \"--CODEGEN--\":42:43   */\n      0x00\n        /* \"--CODEGEN--\":39:40   */\n      dup1\n        /* \"--CODEGEN--\":24:62   */\n      returndatacopy\n        /* \"--CODEGEN--\":77:93   */\n      returndatasize\n        /* \"--CODEGEN--\":74:75   */\n      0x00\n        /* \"--CODEGEN--\":67:94   */\n      revert\n        /* \"--CODEGEN--\":5:7   */\n    tag_111:\n        /* \"contracts/AcceptanceVoting.sol\":5972:5995  recipient.transfer(val) */\n      pop\n        /* \"contracts/AcceptanceVoting.sol\":5835:6003  for (uint256 i = 0; i < committeeMembers.length; i++) {\r... */\n      pop\n        /* \"contracts/AcceptanceVoting.sol\":5884:5887  i++ */\n      dup1\n      dup1\n      0x01\n      add\n      swap2\n      pop\n      pop\n        /* \"contracts/AcceptanceVoting.sol\":5835:6003  for (uint256 i = 0; i < committeeMembers.length; i++) {\r... */\n      jump(tag_106)\n    tag_107:\n      pop\n        /* \"contracts/AcceptanceVoting.sol\":5654:6008  function distributeFee() external payable {\r... */\n      pop\n      jump\t// out\n        /* \"contracts/AcceptanceVoting.sol\":4618:5648  function closeVote(\r... */\n    tag_29:\n        /* \"contracts/AcceptanceVoting.sol\":2415:2432  committeeChairman */\n      0x0b\n      0x00\n      swap1\n      sload\n      swap1\n      0x0100\n      exp\n      swap1\n      div\n      0xffffffffffffffffffffffffffffffffffffffff\n      and\n        /* \"contracts/AcceptanceVoting.sol\":2401:2432  msg.sender == committeeChairman */\n      0xffffffffffffffffffffffffffffffffffffffff\n      and\n        /* \"contracts/AcceptanceVoting.sol\":2401:2411  msg.sender */\n      caller\n        /* \"contracts/AcceptanceVoting.sol\":2401:2432  msg.sender == committeeChairman */\n      0xffffffffffffffffffffffffffffffffffffffff\n      and\n      eq\n        /* \"contracts/AcceptanceVoting.sol\":2385:2486  require(\r... */\n      tag_113\n      jumpi\n      mload(0x40)\n      0x08c379a000000000000000000000000000000000000000000000000000000000\n      dup2\n      mstore\n      0x04\n      add\n      dup1\n      dup1\n      0x20\n      add\n      dup3\n      dup2\n      sub\n      dup3\n      mstore\n      0x24\n      dup2\n      mstore\n      0x20\n      add\n      dup1\n      data_02507de8ad3f7476ef261265200a4777cdfdc6ef75c5a0744a4916b83fe827f1\n      0x24\n      swap2\n      codecopy\n      0x40\n      add\n      swap2\n      pop\n      pop\n      mload(0x40)\n      dup1\n      swap2\n      sub\n      swap1\n      revert\n    tag_113:\n        /* \"contracts/AcceptanceVoting.sol\":4766:4782  VotingState.OPEN */\n      0x00\n        /* \"contracts/AcceptanceVoting.sol\":4733:4782  currentState[applicantNumber] == VotingState.OPEN */\n      0x01\n      dup2\n      gt\n      iszero\n      tag_115\n      jumpi\n      invalid\n    tag_115:\n        /* \"contracts/AcceptanceVoting.sol\":4733:4745  currentState */\n      0x0d\n        /* \"contracts/AcceptanceVoting.sol\":4733:4762  currentState[applicantNumber] */\n      0x00\n        /* \"contracts/AcceptanceVoting.sol\":4746:4761  applicantNumber */\n      dup5\n        /* \"contracts/AcceptanceVoting.sol\":4733:4762  currentState[applicantNumber] */\n      dup2\n      mstore\n      0x20\n      add\n      swap1\n      dup2\n      mstore\n      0x20\n      add\n      0x00\n      keccak256\n      0x00\n      swap1\n      sload\n      swap1\n      0x0100\n      exp\n      swap1\n      div\n      0xff\n      and\n        /* \"contracts/AcceptanceVoting.sol\":4733:4782  currentState[applicantNumber] == VotingState.OPEN */\n      0x01\n      dup2\n      gt\n      iszero\n      tag_116\n      jumpi\n      invalid\n    tag_116:\n      eq\n        /* \"contracts/AcceptanceVoting.sol\":4725:4803  require(currentState[applicantNumber] == VotingState.OPEN, \"Vote is not open\") */\n      tag_117\n      jumpi\n      mload(0x40)\n      0x08c379a000000000000000000000000000000000000000000000000000000000\n      dup2\n      mstore\n      0x04\n      add\n      dup1\n      dup1\n      0x20\n      add\n      dup3\n      dup2\n      sub\n      dup3\n      mstore\n      0x10\n      dup2\n      mstore\n      0x20\n      add\n      dup1\n      0x566f7465206973206e6f74206f70656e00000000000000000000000000000000\n      dup2\n      mstore\n      pop\n      0x20\n      add\n      swap2\n      pop\n      pop\n      mload(0x40)\n      dup1\n      swap2\n      sub\n      swap1\n      revert\n    tag_117:\n        /* \"contracts/AcceptanceVoting.sol\":5021:5032  scoreNeeded */\n      dup1\n        /* \"contracts/AcceptanceVoting.sol\":4982:5000  applicantVoteScore */\n      0x05\n        /* \"contracts/AcceptanceVoting.sol\":4982:5017  applicantVoteScore[applicantNumber] */\n      0x00\n        /* \"contracts/AcceptanceVoting.sol\":5001:5016  applicantNumber */\n      dup5\n        /* \"contracts/AcceptanceVoting.sol\":4982:5017  applicantVoteScore[applicantNumber] */\n      dup2\n      mstore\n      0x20\n      add\n      swap1\n      dup2\n      mstore\n      0x20\n      add\n      0x00\n      keccak256\n      sload\n        /* \"contracts/AcceptanceVoting.sol\":4982:5032  applicantVoteScore[applicantNumber] >= scoreNeeded */\n      lt\n        /* \"contracts/AcceptanceVoting.sol\":4978:5520  if (applicantVoteScore[applicantNumber] >= scoreNeeded) {\r... */\n      tag_118\n      jumpi\n        /* \"contracts/AcceptanceVoting.sol\":5073:5077  true */\n      0x01\n        /* \"contracts/AcceptanceVoting.sol\":5043:5053  isApproved */\n      0x08\n        /* \"contracts/AcceptanceVoting.sol\":5043:5070  isApproved[applicantNumber] */\n      0x00\n        /* \"contracts/AcceptanceVoting.sol\":5054:5069  applicantNumber */\n      dup5\n        /* \"contracts/AcceptanceVoting.sol\":5043:5070  isApproved[applicantNumber] */\n      dup2\n      mstore\n      0x20\n      add\n      swap1\n      dup2\n      mstore\n      0x20\n      add\n      0x00\n      keccak256\n      0x00\n        /* \"contracts/AcceptanceVoting.sol\":5043:5077  isApproved[applicantNumber] = true */\n      0x0100\n      exp\n      dup2\n      sload\n      dup2\n      0xff\n      mul\n      not\n      and\n      swap1\n      dup4\n      iszero\n      iszero\n      mul\n      or\n      swap1\n      sstore\n      pop\n        /* \"contracts/AcceptanceVoting.sol\":5091:5227  vote_results(\r... */\n      0x91eec35515ce2f09d0f16ebebead73ea64a7635644b4ea017f35590c38fb25f6\n        /* \"contracts/AcceptanceVoting.sol\":5135:5150  applicantNumber */\n      dup3\n        /* \"contracts/AcceptanceVoting.sol\":5161:5179  applicantVoteScore */\n      0x05\n        /* \"contracts/AcceptanceVoting.sol\":5161:5196  applicantVoteScore[applicantNumber] */\n      0x00\n        /* \"contracts/AcceptanceVoting.sol\":5180:5195  applicantNumber */\n      dup6\n        /* \"contracts/AcceptanceVoting.sol\":5161:5196  applicantVoteScore[applicantNumber] */\n      dup2\n      mstore\n      0x20\n      add\n      swap1\n      dup2\n      mstore\n      0x20\n      add\n      0x00\n      keccak256\n      sload\n        /* \"contracts/AcceptanceVoting.sol\":5207:5218  scoreNeeded */\n      dup4\n        /* \"contracts/AcceptanceVoting.sol\":5091:5227  vote_results(\r... */\n      mload(0x40)\n      dup1\n      dup1\n      0x20\n      add\n      dup6\n      dup2\n      mstore\n      0x20\n      add\n      dup5\n      dup2\n      mstore\n      0x20\n      add\n      dup4\n      dup2\n      mstore\n      0x20\n      add\n      dup3\n      dup2\n      sub\n      dup3\n      mstore\n      0x08\n      dup2\n      mstore\n      0x20\n      add\n      dup1\n      0x4163636570746564000000000000000000000000000000000000000000000000\n      dup2\n      mstore\n      pop\n      0x20\n      add\n      swap5\n      pop\n      pop\n      pop\n      pop\n      pop\n      mload(0x40)\n      dup1\n      swap2\n      sub\n      swap1\n      log1\n        /* \"contracts/AcceptanceVoting.sol\":5236:5289  addCommitteeMember(applicantAddress[applicantNumber]) */\n      tag_119\n        /* \"contracts/AcceptanceVoting.sol\":5255:5271  applicantAddress */\n      0x02\n        /* \"contracts/AcceptanceVoting.sol\":5255:5288  applicantAddress[applicantNumber] */\n      0x00\n        /* \"contracts/AcceptanceVoting.sol\":5272:5287  applicantNumber */\n      dup5\n        /* \"contracts/AcceptanceVoting.sol\":5255:5288  applicantAddress[applicantNumber] */\n      dup2\n      mstore\n      0x20\n      add\n      swap1\n      dup2\n      mstore\n      0x20\n      add\n      0x00\n      keccak256\n      0x00\n      swap1\n      sload\n      swap1\n      0x0100\n      exp\n      swap1\n      div\n      0xffffffffffffffffffffffffffffffffffffffff\n      and\n        /* \"contracts/AcceptanceVoting.sol\":5236:5254  addCommitteeMember */\n      tag_87\n        /* \"contracts/AcceptanceVoting.sol\":5236:5289  addCommitteeMember(applicantAddress[applicantNumber]) */\n      jump\t// in\n    tag_119:\n        /* \"contracts/AcceptanceVoting.sol\":4978:5520  if (applicantVoteScore[applicantNumber] >= scoreNeeded) {\r... */\n      jump(tag_120)\n    tag_118:\n        /* \"contracts/AcceptanceVoting.sol\":5345:5356  scoreNeeded */\n      dup1\n        /* \"contracts/AcceptanceVoting.sol\":5307:5325  applicantVoteScore */\n      0x05\n        /* \"contracts/AcceptanceVoting.sol\":5307:5342  applicantVoteScore[applicantNumber] */\n      0x00\n        /* \"contracts/AcceptanceVoting.sol\":5326:5341  applicantNumber */\n      dup5\n        /* \"contracts/AcceptanceVoting.sol\":5307:5342  applicantVoteScore[applicantNumber] */\n      dup2\n      mstore\n      0x20\n      add\n      swap1\n      dup2\n      mstore\n      0x20\n      add\n      0x00\n      keccak256\n      sload\n        /* \"contracts/AcceptanceVoting.sol\":5307:5356  applicantVoteScore[applicantNumber] < scoreNeeded */\n      lt\n        /* \"contracts/AcceptanceVoting.sol\":5303:5520  if (applicantVoteScore[applicantNumber] < scoreNeeded) {\r... */\n      iszero\n      tag_121\n      jumpi\n        /* \"contracts/AcceptanceVoting.sol\":5372:5512  vote_results(\r... */\n      0x91eec35515ce2f09d0f16ebebead73ea64a7635644b4ea017f35590c38fb25f6\n        /* \"contracts/AcceptanceVoting.sol\":5420:5435  applicantNumber */\n      dup3\n        /* \"contracts/AcceptanceVoting.sol\":5446:5464  applicantVoteScore */\n      0x05\n        /* \"contracts/AcceptanceVoting.sol\":5446:5481  applicantVoteScore[applicantNumber] */\n      0x00\n        /* \"contracts/AcceptanceVoting.sol\":5465:5480  applicantNumber */\n      dup6\n        /* \"contracts/AcceptanceVoting.sol\":5446:5481  applicantVoteScore[applicantNumber] */\n      dup2\n      mstore\n      0x20\n      add\n      swap1\n      dup2\n      mstore\n      0x20\n      add\n      0x00\n      keccak256\n      sload\n        /* \"contracts/AcceptanceVoting.sol\":5492:5503  scoreNeeded */\n      dup4\n        /* \"contracts/AcceptanceVoting.sol\":5372:5512  vote_results(\r... */\n      mload(0x40)\n      dup1\n      dup1\n      0x20\n      add\n      dup6\n      dup2\n      mstore\n      0x20\n      add\n      dup5\n      dup2\n      mstore\n      0x20\n      add\n      dup4\n      dup2\n      mstore\n      0x20\n      add\n      dup3\n      dup2\n      sub\n      dup3\n      mstore\n      0x0c\n      dup2\n      mstore\n      0x20\n      add\n      dup1\n      0x4e6f742061636365707465640000000000000000000000000000000000000000\n      dup2\n      mstore\n      pop\n      0x20\n      add\n      swap5\n      pop\n      pop\n      pop\n      pop\n      pop\n      mload(0x40)\n      dup1\n      swap2\n      sub\n      swap1\n      log1\n        /* \"contracts/AcceptanceVoting.sol\":5303:5520  if (applicantVoteScore[applicantNumber] < scoreNeeded) {\r... */\n    tag_121:\n        /* \"contracts/AcceptanceVoting.sol\":4978:5520  if (applicantVoteScore[applicantNumber] >= scoreNeeded) {\r... */\n    tag_120:\n        /* \"contracts/AcceptanceVoting.sol\":5559:5563  true */\n      0x01\n        /* \"contracts/AcceptanceVoting.sol\":5528:5539  isConcluded */\n      0x09\n        /* \"contracts/AcceptanceVoting.sol\":5528:5556  isConcluded[applicantNumber] */\n      0x00\n        /* \"contracts/AcceptanceVoting.sol\":5540:5555  applicantNumber */\n      dup5\n        /* \"contracts/AcceptanceVoting.sol\":5528:5556  isConcluded[applicantNumber] */\n      dup2\n      mstore\n      0x20\n      add\n      swap1\n      dup2\n      mstore\n      0x20\n      add\n      0x00\n      keccak256\n      0x00\n        /* \"contracts/AcceptanceVoting.sol\":5528:5563  isConcluded[applicantNumber] = true */\n      0x0100\n      exp\n      dup2\n      sload\n      dup2\n      0xff\n      mul\n      not\n      and\n      swap1\n      dup4\n      iszero\n      iszero\n      mul\n      or\n      swap1\n      sstore\n      pop\n        /* \"contracts/AcceptanceVoting.sol\":5601:5642  vote_close(applicantNumber, block.number) */\n      0x4fa16f02e5d98e5d0859e515cb1bc8e3d3f14743eb623e2f685362b7d3f70d0a\n        /* \"contracts/AcceptanceVoting.sol\":5612:5627  applicantNumber */\n      dup3\n        /* \"contracts/AcceptanceVoting.sol\":5629:5641  block.number */\n      number\n        /* \"contracts/AcceptanceVoting.sol\":5601:5642  vote_close(applicantNumber, block.number) */\n      mload(0x40)\n      dup1\n      dup4\n      dup2\n      mstore\n      0x20\n      add\n      dup3\n      dup2\n      mstore\n      0x20\n      add\n      swap3\n      pop\n      pop\n      pop\n      mload(0x40)\n      dup1\n      swap2\n      sub\n      swap1\n      log1\n        /* \"contracts/AcceptanceVoting.sol\":4618:5648  function closeVote(\r... */\n      pop\n      pop\n      jump\t// out\n        /* \"contracts/AcceptanceVoting.sol\":2769:2908  function getApplicantName(uint256 applicantNumber) external view returns (string memory) {\r... */\n    tag_33:\n        /* \"contracts/AcceptanceVoting.sol\":2843:2856  string memory */\n      0x60\n        /* \"contracts/AcceptanceVoting.sol\":2872:2885  applicantName */\n      0x03\n        /* \"contracts/AcceptanceVoting.sol\":2872:2902  applicantName[applicantNumber] */\n      0x00\n        /* \"contracts/AcceptanceVoting.sol\":2886:2901  applicantNumber */\n      dup4\n        /* \"contracts/AcceptanceVoting.sol\":2872:2902  applicantName[applicantNumber] */\n      dup2\n      mstore\n      0x20\n      add\n      swap1\n      dup2\n      mstore\n      0x20\n      add\n      0x00\n      keccak256\n        /* \"contracts/AcceptanceVoting.sol\":2865:2902  return applicantName[applicantNumber] */\n      dup1\n      sload\n      0x01\n      dup2\n      0x01\n      and\n      iszero\n      0x0100\n      mul\n      sub\n      and\n      0x02\n      swap1\n      div\n      dup1\n      0x1f\n      add\n      0x20\n      dup1\n      swap2\n      div\n      mul\n      0x20\n      add\n      mload(0x40)\n      swap1\n      dup2\n      add\n      0x40\n      mstore\n      dup1\n      swap3\n      swap2\n      swap1\n      dup2\n      dup2\n      mstore\n      0x20\n      add\n      dup3\n      dup1\n      sload\n      0x01\n      dup2\n      0x01\n      and\n      iszero\n      0x0100\n      mul\n      sub\n      and\n      0x02\n      swap1\n      div\n      dup1\n      iszero\n      tag_123\n      jumpi\n      dup1\n      0x1f\n      lt\n      tag_124\n      jumpi\n      0x0100\n      dup1\n      dup4\n      sload\n      div\n      mul\n      dup4\n      mstore\n      swap2\n      0x20\n      add\n      swap2\n      jump(tag_123)\n    tag_124:\n      dup3\n      add\n      swap2\n      swap1\n      0x00\n      mstore\n      keccak256(0x00, 0x20)\n      swap1\n    tag_125:\n      dup2\n      sload\n      dup2\n      mstore\n      swap1\n      0x01\n      add\n      swap1\n      0x20\n      add\n      dup1\n      dup4\n      gt\n      tag_125\n      jumpi\n      dup3\n      swap1\n      sub\n      0x1f\n      and\n      dup3\n      add\n      swap2\n    tag_123:\n      pop\n      pop\n      pop\n      pop\n      pop\n      swap1\n      pop\n        /* \"contracts/AcceptanceVoting.sol\":2769:2908  function getApplicantName(uint256 applicantNumber) external view returns (string memory) {\r... */\n      swap2\n      swap1\n      pop\n      jump\t// out\n        /* \"contracts/AcceptanceVoting.sol\":6547:6635  function getDeadline() public view returns (uint256) {\r... */\n    tag_40:\n        /* \"contracts/AcceptanceVoting.sol\":6591:6598  uint256 */\n      0x00\n        /* \"contracts/AcceptanceVoting.sol\":6614:6629  votingTimeframe */\n      sload(0x0c)\n        /* \"contracts/AcceptanceVoting.sol\":6607:6629  return votingTimeframe */\n      swap1\n      pop\n        /* \"contracts/AcceptanceVoting.sol\":6547:6635  function getDeadline() public view returns (uint256) {\r... */\n      swap1\n      jump\t// out\n        /* \"contracts/AcceptanceVoting.sol\":6870:6953  function changeFee(uint256 fee) public isChairman {\r... */\n    tag_44:\n        /* \"contracts/AcceptanceVoting.sol\":2415:2432  committeeChairman */\n      0x0b\n      0x00\n      swap1\n      sload\n      swap1\n      0x0100\n      exp\n      swap1\n      div\n      0xffffffffffffffffffffffffffffffffffffffff\n      and\n        /* \"contracts/AcceptanceVoting.sol\":2401:2432  msg.sender == committeeChairman */\n      0xffffffffffffffffffffffffffffffffffffffff\n      and\n        /* \"contracts/AcceptanceVoting.sol\":2401:2411  msg.sender */\n      caller\n        /* \"contracts/AcceptanceVoting.sol\":2401:2432  msg.sender == committeeChairman */\n      0xffffffffffffffffffffffffffffffffffffffff\n      and\n      eq\n        /* \"contracts/AcceptanceVoting.sol\":2385:2486  require(\r... */\n      tag_128\n      jumpi\n      mload(0x40)\n      0x08c379a000000000000000000000000000000000000000000000000000000000\n      dup2\n      mstore\n      0x04\n      add\n      dup1\n      dup1\n      0x20\n      add\n      dup3\n      dup2\n      sub\n      dup3\n      mstore\n      0x24\n      dup2\n      mstore\n      0x20\n      add\n      dup1\n      data_02507de8ad3f7476ef261265200a4777cdfdc6ef75c5a0744a4916b83fe827f1\n      0x24\n      swap2\n      codecopy\n      0x40\n      add\n      swap2\n      pop\n      pop\n      mload(0x40)\n      dup1\n      swap2\n      sub\n      swap1\n      revert\n    tag_128:\n        /* \"contracts/AcceptanceVoting.sol\":6944:6947  fee */\n      dup1\n        /* \"contracts/AcceptanceVoting.sol\":6927:6941  applicationFee */\n      0x0a\n        /* \"contracts/AcceptanceVoting.sol\":6927:6947  applicationFee = fee */\n      dup2\n      swap1\n      sstore\n      pop\n        /* \"contracts/AcceptanceVoting.sol\":6870:6953  function changeFee(uint256 fee) public isChairman {\r... */\n      pop\n      jump\t// out\n        /* \"contracts/AcceptanceVoting.sol\":6028:6129  function getCommitteeChairman() external view returns (address) {\r... */\n    tag_47:\n        /* \"contracts/AcceptanceVoting.sol\":6083:6090  address */\n      0x00\n        /* \"contracts/AcceptanceVoting.sol\":6106:6123  committeeChairman */\n      0x0b\n      0x00\n      swap1\n      sload\n      swap1\n      0x0100\n      exp\n      swap1\n      div\n      0xffffffffffffffffffffffffffffffffffffffff\n      and\n        /* \"contracts/AcceptanceVoting.sol\":6099:6123  return committeeChairman */\n      swap1\n      pop\n        /* \"contracts/AcceptanceVoting.sol\":6028:6129  function getCommitteeChairman() external view returns (address) {\r... */\n      swap1\n      jump\t// out\n        /* \"contracts/AcceptanceVoting.sol\":6753:6864  function changeDeadline(uint256 votingDuration) public isChairman {\r... */\n    tag_51:\n        /* \"contracts/AcceptanceVoting.sol\":2415:2432  committeeChairman */\n      0x0b\n      0x00\n      swap1\n      sload\n      swap1\n      0x0100\n      exp\n      swap1\n      div\n      0xffffffffffffffffffffffffffffffffffffffff\n      and\n        /* \"contracts/AcceptanceVoting.sol\":2401:2432  msg.sender == committeeChairman */\n      0xffffffffffffffffffffffffffffffffffffffff\n      and\n        /* \"contracts/AcceptanceVoting.sol\":2401:2411  msg.sender */\n      caller\n        /* \"contracts/AcceptanceVoting.sol\":2401:2432  msg.sender == committeeChairman */\n      0xffffffffffffffffffffffffffffffffffffffff\n      and\n      eq\n        /* \"contracts/AcceptanceVoting.sol\":2385:2486  require(\r... */\n      tag_132\n      jumpi\n      mload(0x40)\n      0x08c379a000000000000000000000000000000000000000000000000000000000\n      dup2\n      mstore\n      0x04\n      add\n      dup1\n      dup1\n      0x20\n      add\n      dup3\n      dup2\n      sub\n      dup3\n      mstore\n      0x24\n      dup2\n      mstore\n      0x20\n      add\n      dup1\n      data_02507de8ad3f7476ef261265200a4777cdfdc6ef75c5a0744a4916b83fe827f1\n      0x24\n      swap2\n      codecopy\n      0x40\n      add\n      swap2\n      pop\n      pop\n      mload(0x40)\n      dup1\n      swap2\n      sub\n      swap1\n      revert\n    tag_132:\n        /* \"contracts/AcceptanceVoting.sol\":6844:6858  votingDuration */\n      dup1\n        /* \"contracts/AcceptanceVoting.sol\":6826:6841  votingTimeframe */\n      0x0c\n        /* \"contracts/AcceptanceVoting.sol\":6826:6858  votingTimeframe = votingDuration */\n      dup2\n      swap1\n      sstore\n      pop\n        /* \"contracts/AcceptanceVoting.sol\":6753:6864  function changeDeadline(uint256 votingDuration) public isChairman {\r... */\n      pop\n      jump\t// out\n        /* \"contracts/AcceptanceVoting.sol\":4149:4612  function openVote(uint256 applicantNumber) external isChairman {\r... */\n    tag_55:\n        /* \"contracts/AcceptanceVoting.sol\":2415:2432  committeeChairman */\n      0x0b\n      0x00\n      swap1\n      sload\n      swap1\n      0x0100\n      exp\n      swap1\n      div\n      0xffffffffffffffffffffffffffffffffffffffff\n      and\n        /* \"contracts/AcceptanceVoting.sol\":2401:2432  msg.sender == committeeChairman */\n      0xffffffffffffffffffffffffffffffffffffffff\n      and\n        /* \"contracts/AcceptanceVoting.sol\":2401:2411  msg.sender */\n      caller\n        /* \"contracts/AcceptanceVoting.sol\":2401:2432  msg.sender == committeeChairman */\n      0xffffffffffffffffffffffffffffffffffffffff\n      and\n      eq\n        /* \"contracts/AcceptanceVoting.sol\":2385:2486  require(\r... */\n      tag_135\n      jumpi\n      mload(0x40)\n      0x08c379a000000000000000000000000000000000000000000000000000000000\n      dup2\n      mstore\n      0x04\n      add\n      dup1\n      dup1\n      0x20\n      add\n      dup3\n      dup2\n      sub\n      dup3\n      mstore\n      0x24\n      dup2\n      mstore\n      0x20\n      add\n      dup1\n      data_02507de8ad3f7476ef261265200a4777cdfdc6ef75c5a0744a4916b83fe827f1\n      0x24\n      swap2\n      codecopy\n      0x40\n      add\n      swap2\n      pop\n      pop\n      mload(0x40)\n      dup1\n      swap2\n      sub\n      swap1\n      revert\n    tag_135:\n        /* \"contracts/AcceptanceVoting.sol\":4276:4294  VotingState.CLOSED */\n      0x01\n        /* \"contracts/AcceptanceVoting.sol\":4235:4294  applicantVotingState[applicantNumber] == VotingState.CLOSED */\n      dup1\n      dup2\n      gt\n      iszero\n      tag_137\n      jumpi\n      invalid\n    tag_137:\n        /* \"contracts/AcceptanceVoting.sol\":4235:4255  applicantVotingState */\n      0x06\n        /* \"contracts/AcceptanceVoting.sol\":4235:4272  applicantVotingState[applicantNumber] */\n      0x00\n        /* \"contracts/AcceptanceVoting.sol\":4256:4271  applicantNumber */\n      dup4\n        /* \"contracts/AcceptanceVoting.sol\":4235:4272  applicantVotingState[applicantNumber] */\n      dup2\n      mstore\n      0x20\n      add\n      swap1\n      dup2\n      mstore\n      0x20\n      add\n      0x00\n      keccak256\n      0x00\n      swap1\n      sload\n      swap1\n      0x0100\n      exp\n      swap1\n      div\n      0xff\n      and\n        /* \"contracts/AcceptanceVoting.sol\":4235:4294  applicantVotingState[applicantNumber] == VotingState.CLOSED */\n      0x01\n      dup2\n      gt\n      iszero\n      tag_138\n      jumpi\n      invalid\n    tag_138:\n      eq\n        /* \"contracts/AcceptanceVoting.sol\":4219:4347  require(\r... */\n      tag_139\n      jumpi\n      mload(0x40)\n      0x08c379a000000000000000000000000000000000000000000000000000000000\n      dup2\n      mstore\n      0x04\n      add\n      dup1\n      dup1\n      0x20\n      add\n      dup3\n      dup2\n      sub\n      dup3\n      mstore\n      0x23\n      dup2\n      mstore\n      0x20\n      add\n      dup1\n      data_8adedb4f5e6d38c24ca8bc6cf7b1cb31f6ecf2fa8267bdb019026dca0a10596f\n      0x23\n      swap2\n      codecopy\n      0x40\n      add\n      swap2\n      pop\n      pop\n      mload(0x40)\n      dup1\n      swap2\n      sub\n      swap1\n      revert\n    tag_139:\n        /* \"contracts/AcceptanceVoting.sol\":4424:4440  VotingState.OPEN */\n      0x00\n        /* \"contracts/AcceptanceVoting.sol\":4384:4404  applicantVotingState */\n      0x06\n        /* \"contracts/AcceptanceVoting.sol\":4384:4421  applicantVotingState[applicantNumber] */\n      0x00\n        /* \"contracts/AcceptanceVoting.sol\":4405:4420  applicantNumber */\n      dup4\n        /* \"contracts/AcceptanceVoting.sol\":4384:4421  applicantVotingState[applicantNumber] */\n      dup2\n      mstore\n      0x20\n      add\n      swap1\n      dup2\n      mstore\n      0x20\n      add\n      0x00\n      keccak256\n      0x00\n        /* \"contracts/AcceptanceVoting.sol\":4384:4440  applicantVotingState[applicantNumber] = VotingState.OPEN */\n      0x0100\n      exp\n      dup2\n      sload\n      dup2\n      0xff\n      mul\n      not\n      and\n      swap1\n      dup4\n      0x01\n      dup2\n      gt\n      iszero\n      tag_140\n      jumpi\n      invalid\n    tag_140:\n      mul\n      or\n      swap1\n      sstore\n      pop\n        /* \"contracts/AcceptanceVoting.sol\":4521:4533  block.number */\n      number\n        /* \"contracts/AcceptanceVoting.sol\":4479:4501  applicantVoteOpenBlock */\n      0x07\n        /* \"contracts/AcceptanceVoting.sol\":4479:4518  applicantVoteOpenBlock[applicantNumber] */\n      0x00\n        /* \"contracts/AcceptanceVoting.sol\":4502:4517  applicantNumber */\n      dup4\n        /* \"contracts/AcceptanceVoting.sol\":4479:4518  applicantVoteOpenBlock[applicantNumber] */\n      dup2\n      mstore\n      0x20\n      add\n      swap1\n      dup2\n      mstore\n      0x20\n      add\n      0x00\n      keccak256\n        /* \"contracts/AcceptanceVoting.sol\":4479:4533  applicantVoteOpenBlock[applicantNumber] = block.number */\n      dup2\n      swap1\n      sstore\n      pop\n        /* \"contracts/AcceptanceVoting.sol\":4566:4606  vote_open(applicantNumber, block.number) */\n      0x32689d92c1683d1ff87da49b2db81410842eed93afcd24c7cee6dbef24ba4a15\n        /* \"contracts/AcceptanceVoting.sol\":4576:4591  applicantNumber */\n      dup2\n        /* \"contracts/AcceptanceVoting.sol\":4593:4605  block.number */\n      number\n        /* \"contracts/AcceptanceVoting.sol\":4566:4606  vote_open(applicantNumber, block.number) */\n      mload(0x40)\n      dup1\n      dup4\n      dup2\n      mstore\n      0x20\n      add\n      dup3\n      dup2\n      mstore\n      0x20\n      add\n      swap3\n      pop\n      pop\n      pop\n      mload(0x40)\n      dup1\n      swap2\n      sub\n      swap1\n      log1\n        /* \"contracts/AcceptanceVoting.sol\":4149:4612  function openVote(uint256 applicantNumber) external isChairman {\r... */\n      pop\n      jump\t// out\n        /* \"contracts/AcceptanceVoting.sol\":6135:6232  function getvotingTimeframe() external view returns (uint256) {\r... */\n    tag_58:\n        /* \"contracts/AcceptanceVoting.sol\":6188:6195  uint256 */\n      0x00\n        /* \"contracts/AcceptanceVoting.sol\":6211:6226  votingTimeframe */\n      sload(0x0c)\n        /* \"contracts/AcceptanceVoting.sol\":6204:6226  return votingTimeframe */\n      swap1\n      pop\n        /* \"contracts/AcceptanceVoting.sol\":6135:6232  function getvotingTimeframe() external view returns (uint256) {\r... */\n      swap1\n      jump\t// out\n        /* \"contracts/AcceptanceVoting.sol\":7104:7744  function removeCommiteeMember(address user) public isChairman {\r... */\n    tag_62:\n        /* \"contracts/AcceptanceVoting.sol\":2415:2432  committeeChairman */\n      0x0b\n      0x00\n      swap1\n      sload\n      swap1\n      0x0100\n      exp\n      swap1\n      div\n      0xffffffffffffffffffffffffffffffffffffffff\n      and\n        /* \"contracts/AcceptanceVoting.sol\":2401:2432  msg.sender == committeeChairman */\n      0xffffffffffffffffffffffffffffffffffffffff\n      and\n        /* \"contracts/AcceptanceVoting.sol\":2401:2411  msg.sender */\n      caller\n        /* \"contracts/AcceptanceVoting.sol\":2401:2432  msg.sender == committeeChairman */\n      0xffffffffffffffffffffffffffffffffffffffff\n      and\n      eq\n        /* \"contracts/AcceptanceVoting.sol\":2385:2486  require(\r... */\n      tag_143\n      jumpi\n      mload(0x40)\n      0x08c379a000000000000000000000000000000000000000000000000000000000\n      dup2\n      mstore\n      0x04\n      add\n      dup1\n      dup1\n      0x20\n      add\n      dup3\n      dup2\n      sub\n      dup3\n      mstore\n      0x24\n      dup2\n      mstore\n      0x20\n      add\n      dup1\n      data_02507de8ad3f7476ef261265200a4777cdfdc6ef75c5a0744a4916b83fe827f1\n      0x24\n      swap2\n      codecopy\n      0x40\n      add\n      swap2\n      pop\n      pop\n      mload(0x40)\n      dup1\n      swap2\n      sub\n      swap1\n      revert\n    tag_143:\n        /* \"contracts/AcceptanceVoting.sol\":7181:7198  isCommitteeMember */\n      0x01\n        /* \"contracts/AcceptanceVoting.sol\":7181:7204  isCommitteeMember[user] */\n      0x00\n        /* \"contracts/AcceptanceVoting.sol\":7199:7203  user */\n      dup3\n        /* \"contracts/AcceptanceVoting.sol\":7181:7204  isCommitteeMember[user] */\n      0xffffffffffffffffffffffffffffffffffffffff\n      and\n      0xffffffffffffffffffffffffffffffffffffffff\n      and\n      dup2\n      mstore\n      0x20\n      add\n      swap1\n      dup2\n      mstore\n      0x20\n      add\n      0x00\n      keccak256\n      0x00\n      swap1\n      sload\n      swap1\n      0x0100\n      exp\n      swap1\n      div\n      0xff\n      and\n        /* \"contracts/AcceptanceVoting.sol\":7173:7247  require(isCommitteeMember[user], \"User is not a current committee Member\") */\n      tag_145\n      jumpi\n      mload(0x40)\n      0x08c379a000000000000000000000000000000000000000000000000000000000\n      dup2\n      mstore\n      0x04\n      add\n      dup1\n      dup1\n      0x20\n      add\n      dup3\n      dup2\n      sub\n      dup3\n      mstore\n      0x26\n      dup2\n      mstore\n      0x20\n      add\n      dup1\n      data_d45e9715ab11818d7dfdc848e175cd6304b4034551c5b285121887e0ffa3defa\n      0x26\n      swap2\n      codecopy\n      0x40\n      add\n      swap2\n      pop\n      pop\n      mload(0x40)\n      dup1\n      swap2\n      sub\n      swap1\n      revert\n    tag_145:\n        /* \"contracts/AcceptanceVoting.sol\":7288:7289  0 */\n      0x00\n        /* \"contracts/AcceptanceVoting.sol\":7262:7278  committeeMembers */\n      dup1\n        /* \"contracts/AcceptanceVoting.sol\":7262:7285  committeeMembers.length */\n      dup1\n      sload\n      swap1\n      pop\n        /* \"contracts/AcceptanceVoting.sol\":7262:7289  committeeMembers.length > 0 */\n      gt\n        /* \"contracts/AcceptanceVoting.sol\":7254:7311  require(committeeMembers.length > 0, \"Commitee is empty\") */\n      tag_146\n      jumpi\n      mload(0x40)\n      0x08c379a000000000000000000000000000000000000000000000000000000000\n      dup2\n      mstore\n      0x04\n      add\n      dup1\n      dup1\n      0x20\n      add\n      dup3\n      dup2\n      sub\n      dup3\n      mstore\n      0x11\n      dup2\n      mstore\n      0x20\n      add\n      dup1\n      0x436f6d6d6974656520697320656d707479000000000000000000000000000000\n      dup2\n      mstore\n      pop\n      0x20\n      add\n      swap2\n      pop\n      pop\n      mload(0x40)\n      dup1\n      swap2\n      sub\n      swap1\n      revert\n    tag_146:\n        /* \"contracts/AcceptanceVoting.sol\":7344:7349  false */\n      0x00\n        /* \"contracts/AcceptanceVoting.sol\":7318:7335  isCommitteeMember */\n      0x01\n        /* \"contracts/AcceptanceVoting.sol\":7318:7341  isCommitteeMember[user] */\n      0x00\n        /* \"contracts/AcceptanceVoting.sol\":7336:7340  user */\n      dup4\n        /* \"contracts/AcceptanceVoting.sol\":7318:7341  isCommitteeMember[user] */\n      0xffffffffffffffffffffffffffffffffffffffff\n      and\n      0xffffffffffffffffffffffffffffffffffffffff\n      and\n      dup2\n      mstore\n      0x20\n      add\n      swap1\n      dup2\n      mstore\n      0x20\n      add\n      0x00\n      keccak256\n      0x00\n        /* \"contracts/AcceptanceVoting.sol\":7318:7349  isCommitteeMember[user] = false */\n      0x0100\n      exp\n      dup2\n      sload\n      dup2\n      0xff\n      mul\n      not\n      and\n      swap1\n      dup4\n      iszero\n      iszero\n      mul\n      or\n      swap1\n      sstore\n      pop\n        /* \"contracts/AcceptanceVoting.sol\":7439:7448  uint256 i */\n      0x00\n        /* \"contracts/AcceptanceVoting.sol\":7451:7452  0 */\n      dup1\n        /* \"contracts/AcceptanceVoting.sol\":7439:7452  uint256 i = 0 */\n      swap1\n      pop\n        /* \"contracts/AcceptanceVoting.sol\":7434:7739  for (uint256 i = 0; i < committeeMembers.length; i++) {\r... */\n    tag_147:\n        /* \"contracts/AcceptanceVoting.sol\":7458:7474  committeeMembers */\n      0x00\n        /* \"contracts/AcceptanceVoting.sol\":7458:7481  committeeMembers.length */\n      dup1\n      sload\n      swap1\n      pop\n        /* \"contracts/AcceptanceVoting.sol\":7454:7455  i */\n      dup2\n        /* \"contracts/AcceptanceVoting.sol\":7454:7481  i < committeeMembers.length */\n      lt\n        /* \"contracts/AcceptanceVoting.sol\":7434:7739  for (uint256 i = 0; i < committeeMembers.length; i++) {\r... */\n      iszero\n      tag_148\n      jumpi\n        /* \"contracts/AcceptanceVoting.sol\":7509:7525  committeeMembers */\n      0x00\n        /* \"contracts/AcceptanceVoting.sol\":7526:7527  i */\n      dup2\n        /* \"contracts/AcceptanceVoting.sol\":7509:7528  committeeMembers[i] */\n      dup2\n      sload\n      dup2\n      lt\n      tag_150\n      jumpi\n      invalid\n    tag_150:\n      swap1\n      0x00\n      mstore\n      keccak256(0x00, 0x20)\n      add\n      0x00\n      swap1\n      sload\n      swap1\n      0x0100\n      exp\n      swap1\n      div\n      0xffffffffffffffffffffffffffffffffffffffff\n      and\n        /* \"contracts/AcceptanceVoting.sol\":7501:7528  user == committeeMembers[i] */\n      0xffffffffffffffffffffffffffffffffffffffff\n      and\n        /* \"contracts/AcceptanceVoting.sol\":7501:7505  user */\n      dup3\n        /* \"contracts/AcceptanceVoting.sol\":7501:7528  user == committeeMembers[i] */\n      0xffffffffffffffffffffffffffffffffffffffff\n      and\n      eq\n        /* \"contracts/AcceptanceVoting.sol\":7497:7732  if (user == committeeMembers[i]) {\r... */\n      iszero\n      tag_152\n      jumpi\n        /* \"contracts/AcceptanceVoting.sol\":7615:7631  committeeMembers */\n      0x00\n        /* \"contracts/AcceptanceVoting.sol\":7658:7659  1 */\n      0x01\n        /* \"contracts/AcceptanceVoting.sol\":7632:7648  committeeMembers */\n      0x00\n        /* \"contracts/AcceptanceVoting.sol\":7632:7655  committeeMembers.length */\n      dup1\n      sload\n      swap1\n      pop\n        /* \"contracts/AcceptanceVoting.sol\":7632:7659  committeeMembers.length - 1 */\n      sub\n        /* \"contracts/AcceptanceVoting.sol\":7615:7660  committeeMembers[committeeMembers.length - 1] */\n      dup2\n      sload\n      dup2\n      lt\n      tag_153\n      jumpi\n      invalid\n    tag_153:\n      swap1\n      0x00\n      mstore\n      keccak256(0x00, 0x20)\n      add\n      0x00\n      swap1\n      sload\n      swap1\n      0x0100\n      exp\n      swap1\n      div\n      0xffffffffffffffffffffffffffffffffffffffff\n      and\n        /* \"contracts/AcceptanceVoting.sol\":7593:7609  committeeMembers */\n      0x00\n        /* \"contracts/AcceptanceVoting.sol\":7610:7611  i */\n      dup3\n        /* \"contracts/AcceptanceVoting.sol\":7593:7612  committeeMembers[i] */\n      dup2\n      sload\n      dup2\n      lt\n      tag_155\n      jumpi\n      invalid\n    tag_155:\n      swap1\n      0x00\n      mstore\n      keccak256(0x00, 0x20)\n      add\n      0x00\n        /* \"contracts/AcceptanceVoting.sol\":7593:7660  committeeMembers[i] = committeeMembers[committeeMembers.length - 1] */\n      0x0100\n      exp\n      dup2\n      sload\n      dup2\n      0xffffffffffffffffffffffffffffffffffffffff\n      mul\n      not\n      and\n      swap1\n      dup4\n      0xffffffffffffffffffffffffffffffffffffffff\n      and\n      mul\n      or\n      swap1\n      sstore\n      pop\n        /* \"contracts/AcceptanceVoting.sol\":7700:7716  committeeMembers */\n      0x00\n        /* \"contracts/AcceptanceVoting.sol\":7700:7722  committeeMembers.pop() */\n      dup1\n      sload\n      dup1\n      tag_157\n      jumpi\n      invalid\n    tag_157:\n      0x01\n      swap1\n      sub\n      dup2\n      dup2\n      swap1\n      0x00\n      mstore\n      keccak256(0x00, 0x20)\n      add\n      exp(0x0100, 0x00)\n      dup2\n      sload\n      swap1\n      0xffffffffffffffffffffffffffffffffffffffff\n      mul\n      not\n      and\n      swap1\n      sstore\n      swap1\n      sstore\n        /* \"contracts/AcceptanceVoting.sol\":7497:7732  if (user == committeeMembers[i]) {\r... */\n    tag_152:\n        /* \"contracts/AcceptanceVoting.sol\":7483:7486  i++ */\n      dup1\n      dup1\n      0x01\n      add\n      swap2\n      pop\n      pop\n        /* \"contracts/AcceptanceVoting.sol\":7434:7739  for (uint256 i = 0; i < committeeMembers.length; i++) {\r... */\n      jump(tag_147)\n    tag_148:\n      pop\n        /* \"contracts/AcceptanceVoting.sol\":7104:7744  function removeCommiteeMember(address user) public isChairman {\r... */\n      pop\n      jump\t// out\n        /* \"contracts/AcceptanceVoting.sol\":2914:3038  function checkApproved(uint256 applicantNumber) external view returns (bool) {\r... */\n    tag_66:\n        /* \"contracts/AcceptanceVoting.sol\":2985:2989  bool */\n      0x00\n        /* \"contracts/AcceptanceVoting.sol\":3005:3015  isApproved */\n      0x08\n        /* \"contracts/AcceptanceVoting.sol\":3005:3032  isApproved[applicantNumber] */\n      0x00\n        /* \"contracts/AcceptanceVoting.sol\":3016:3031  applicantNumber */\n      dup4\n        /* \"contracts/AcceptanceVoting.sol\":3005:3032  isApproved[applicantNumber] */\n      dup2\n      mstore\n      0x20\n      add\n      swap1\n      dup2\n      mstore\n      0x20\n      add\n      0x00\n      keccak256\n      0x00\n      swap1\n      sload\n      swap1\n      0x0100\n      exp\n      swap1\n      div\n      0xff\n      and\n        /* \"contracts/AcceptanceVoting.sol\":2998:3032  return isApproved[applicantNumber] */\n      swap1\n      pop\n        /* \"contracts/AcceptanceVoting.sol\":2914:3038  function checkApproved(uint256 applicantNumber) external view returns (bool) {\r... */\n      swap2\n      swap1\n      pop\n      jump\t// out\n        /* \"contracts/AcceptanceVoting.sol\":6641:6747  function getCommitteeMembers() public view returns (address[] memory) {\r... */\n    tag_69:\n        /* \"contracts/AcceptanceVoting.sol\":6693:6709  address[] memory */\n      0x60\n        /* \"contracts/AcceptanceVoting.sol\":6725:6741  committeeMembers */\n      0x00\n        /* \"contracts/AcceptanceVoting.sol\":6718:6741  return committeeMembers */\n      dup1\n      sload\n      dup1\n      0x20\n      mul\n      0x20\n      add\n      mload(0x40)\n      swap1\n      dup2\n      add\n      0x40\n      mstore\n      dup1\n      swap3\n      swap2\n      swap1\n      dup2\n      dup2\n      mstore\n      0x20\n      add\n      dup3\n      dup1\n      sload\n      dup1\n      iszero\n      tag_161\n      jumpi\n      0x20\n      mul\n      dup3\n      add\n      swap2\n      swap1\n      0x00\n      mstore\n      keccak256(0x00, 0x20)\n      swap1\n    tag_162:\n      dup2\n      0x00\n      swap1\n      sload\n      swap1\n      0x0100\n      exp\n      swap1\n      div\n      0xffffffffffffffffffffffffffffffffffffffff\n      and\n      0xffffffffffffffffffffffffffffffffffffffff\n      and\n      dup2\n      mstore\n      0x20\n      add\n      swap1\n      0x01\n      add\n      swap1\n      dup1\n      dup4\n      gt\n      tag_162\n      jumpi\n    tag_161:\n      pop\n      pop\n      pop\n      pop\n      pop\n      swap1\n      pop\n        /* \"contracts/AcceptanceVoting.sol\":6641:6747  function getCommitteeMembers() public view returns (address[] memory) {\r... */\n      swap1\n      jump\t// out\n        /* \"contracts/AcceptanceVoting.sol\":3044:3170  function checkConcluded(uint256 applicantNumber) external view returns (bool) {\r... */\n    tag_76:\n        /* \"contracts/AcceptanceVoting.sol\":3116:3120  bool */\n      0x00\n        /* \"contracts/AcceptanceVoting.sol\":3136:3147  isConcluded */\n      0x09\n        /* \"contracts/AcceptanceVoting.sol\":3136:3164  isConcluded[applicantNumber] */\n      0x00\n        /* \"contracts/AcceptanceVoting.sol\":3148:3163  applicantNumber */\n      dup4\n        /* \"contracts/AcceptanceVoting.sol\":3136:3164  isConcluded[applicantNumber] */\n      dup2\n      mstore\n      0x20\n      add\n      swap1\n      dup2\n      mstore\n      0x20\n      add\n      0x00\n      keccak256\n      0x00\n      swap1\n      sload\n      swap1\n      0x0100\n      exp\n      swap1\n      div\n      0xff\n      and\n        /* \"contracts/AcceptanceVoting.sol\":3129:3164  return isConcluded[applicantNumber] */\n      swap1\n      pop\n        /* \"contracts/AcceptanceVoting.sol\":3044:3170  function checkConcluded(uint256 applicantNumber) external view returns (bool) {\r... */\n      swap2\n      swap1\n      pop\n      jump\t// out\n        /* \"contracts/AcceptanceVoting.sol\":3176:4143  function vote(\r... */\n    tag_80:\n        /* \"contracts/AcceptanceVoting.sol\":3380:3397  isCommitteeMember */\n      0x01\n        /* \"contracts/AcceptanceVoting.sol\":3380:3409  isCommitteeMember[msg.sender] */\n      0x00\n        /* \"contracts/AcceptanceVoting.sol\":3398:3408  msg.sender */\n      caller\n        /* \"contracts/AcceptanceVoting.sol\":3380:3409  isCommitteeMember[msg.sender] */\n      0xffffffffffffffffffffffffffffffffffffffff\n      and\n      0xffffffffffffffffffffffffffffffffffffffff\n      and\n      dup2\n      mstore\n      0x20\n      add\n      swap1\n      dup2\n      mstore\n      0x20\n      add\n      0x00\n      keccak256\n      0x00\n      swap1\n      sload\n      swap1\n      0x0100\n      exp\n      swap1\n      div\n      0xff\n      and\n        /* \"contracts/AcceptanceVoting.sol\":3372:3444  require(isCommitteeMember[msg.sender], \"You are not a committee member\") */\n      tag_165\n      jumpi\n      mload(0x40)\n      0x08c379a000000000000000000000000000000000000000000000000000000000\n      dup2\n      mstore\n      0x04\n      add\n      dup1\n      dup1\n      0x20\n      add\n      dup3\n      dup2\n      sub\n      dup3\n      mstore\n      0x1e\n      dup2\n      mstore\n      0x20\n      add\n      dup1\n      0x596f7520617265206e6f74206120636f6d6d6974746565206d656d6265720000\n      dup2\n      mstore\n      pop\n      0x20\n      add\n      swap2\n      pop\n      pop\n      mload(0x40)\n      dup1\n      swap2\n      sub\n      swap1\n      revert\n    tag_165:\n        /* \"contracts/AcceptanceVoting.sol\":3508:3524  VotingState.OPEN */\n      0x00\n        /* \"contracts/AcceptanceVoting.sol\":3467:3524  applicantVotingState[applicantNumber] == VotingState.OPEN */\n      0x01\n      dup2\n      gt\n      iszero\n      tag_166\n      jumpi\n      invalid\n    tag_166:\n        /* \"contracts/AcceptanceVoting.sol\":3467:3487  applicantVotingState */\n      0x06\n        /* \"contracts/AcceptanceVoting.sol\":3467:3504  applicantVotingState[applicantNumber] */\n      0x00\n        /* \"contracts/AcceptanceVoting.sol\":3488:3503  applicantNumber */\n      dup9\n        /* \"contracts/AcceptanceVoting.sol\":3467:3504  applicantVotingState[applicantNumber] */\n      dup2\n      mstore\n      0x20\n      add\n      swap1\n      dup2\n      mstore\n      0x20\n      add\n      0x00\n      keccak256\n      0x00\n      swap1\n      sload\n      swap1\n      0x0100\n      exp\n      swap1\n      div\n      0xff\n      and\n        /* \"contracts/AcceptanceVoting.sol\":3467:3524  applicantVotingState[applicantNumber] == VotingState.OPEN */\n      0x01\n      dup2\n      gt\n      iszero\n      tag_167\n      jumpi\n      invalid\n    tag_167:\n      eq\n        /* \"contracts/AcceptanceVoting.sol\":3451:3571  require(\r... */\n      tag_168\n      jumpi\n      mload(0x40)\n      0x08c379a000000000000000000000000000000000000000000000000000000000\n      dup2\n      mstore\n      0x04\n      add\n      dup1\n      dup1\n      0x20\n      add\n      dup3\n      dup2\n      sub\n      dup3\n      mstore\n      0x1d\n      dup2\n      mstore\n      0x20\n      add\n      dup1\n      0x6170706c6963616e74206e6f74206f70656e20666f7220766f74696e67000000\n      dup2\n      mstore\n      pop\n      0x20\n      add\n      swap2\n      pop\n      pop\n      mload(0x40)\n      dup1\n      swap2\n      sub\n      swap1\n      revert\n    tag_168:\n        /* \"contracts/AcceptanceVoting.sol\":3618:3622  true */\n      0x01\n        /* \"contracts/AcceptanceVoting.sol\":3578:3586  hasVoted */\n      0x04\n        /* \"contracts/AcceptanceVoting.sol\":3578:3598  hasVoted[msg.sender] */\n      0x00\n        /* \"contracts/AcceptanceVoting.sol\":3587:3597  msg.sender */\n      caller\n        /* \"contracts/AcceptanceVoting.sol\":3578:3598  hasVoted[msg.sender] */\n      0xffffffffffffffffffffffffffffffffffffffff\n      and\n      0xffffffffffffffffffffffffffffffffffffffff\n      and\n      dup2\n      mstore\n      0x20\n      add\n      swap1\n      dup2\n      mstore\n      0x20\n      add\n      0x00\n      keccak256\n        /* \"contracts/AcceptanceVoting.sol\":3578:3615  hasVoted[msg.sender][applicantNumber] */\n      0x00\n        /* \"contracts/AcceptanceVoting.sol\":3599:3614  applicantNumber */\n      dup9\n        /* \"contracts/AcceptanceVoting.sol\":3578:3615  hasVoted[msg.sender][applicantNumber] */\n      dup2\n      mstore\n      0x20\n      add\n      swap1\n      dup2\n      mstore\n      0x20\n      add\n      0x00\n      keccak256\n      0x00\n        /* \"contracts/AcceptanceVoting.sol\":3578:3622  hasVoted[msg.sender][applicantNumber] = true */\n      0x0100\n      exp\n      dup2\n      sload\n      dup2\n      0xff\n      mul\n      not\n      and\n      swap1\n      dup4\n      iszero\n      iszero\n      mul\n      or\n      swap1\n      sstore\n      pop\n        /* \"contracts/AcceptanceVoting.sol\":3661:3679  uint256 vote_score */\n      0x00\n        /* \"contracts/AcceptanceVoting.sol\":3682:3683  0 */\n      dup1\n        /* \"contracts/AcceptanceVoting.sol\":3661:3683  uint256 vote_score = 0 */\n      swap1\n      pop\n        /* \"contracts/AcceptanceVoting.sol\":3694:3712  hasPhyiscalPremise */\n      dup6\n        /* \"contracts/AcceptanceVoting.sol\":3690:3743  if (hasPhyiscalPremise) {\r... */\n      iszero\n      tag_169\n      jumpi\n        /* \"contracts/AcceptanceVoting.sol\":3723:3735  vote_score++ */\n      dup1\n      dup1\n      0x01\n      add\n      swap2\n      pop\n      pop\n        /* \"contracts/AcceptanceVoting.sol\":3690:3743  if (hasPhyiscalPremise) {\r... */\n    tag_169:\n        /* \"contracts/AcceptanceVoting.sol\":3753:3767  hasWebPresence */\n      dup5\n        /* \"contracts/AcceptanceVoting.sol\":3749:3798  if (hasWebPresence) {\r... */\n      iszero\n      tag_170\n      jumpi\n        /* \"contracts/AcceptanceVoting.sol\":3778:3790  vote_score++ */\n      dup1\n      dup1\n      0x01\n      add\n      swap2\n      pop\n      pop\n        /* \"contracts/AcceptanceVoting.sol\":3749:3798  if (hasWebPresence) {\r... */\n    tag_170:\n        /* \"contracts/AcceptanceVoting.sol\":3808:3819  hasResearch */\n      dup4\n        /* \"contracts/AcceptanceVoting.sol\":3804:3850  if (hasResearch) {\r... */\n      iszero\n      tag_171\n      jumpi\n        /* \"contracts/AcceptanceVoting.sol\":3830:3842  vote_score++ */\n      dup1\n      dup1\n      0x01\n      add\n      swap2\n      pop\n      pop\n        /* \"contracts/AcceptanceVoting.sol\":3804:3850  if (hasResearch) {\r... */\n    tag_171:\n        /* \"contracts/AcceptanceVoting.sol\":3860:3869  hasAwards */\n      dup3\n        /* \"contracts/AcceptanceVoting.sol\":3856:3900  if (hasAwards) {\r... */\n      iszero\n      tag_172\n      jumpi\n        /* \"contracts/AcceptanceVoting.sol\":3880:3892  vote_score++ */\n      dup1\n      dup1\n      0x01\n      add\n      swap2\n      pop\n      pop\n        /* \"contracts/AcceptanceVoting.sol\":3856:3900  if (hasAwards) {\r... */\n    tag_172:\n        /* \"contracts/AcceptanceVoting.sol\":3910:3929  hasStudentMarketing */\n      dup2\n        /* \"contracts/AcceptanceVoting.sol\":3906:3960  if (hasStudentMarketing) {\r... */\n      iszero\n      tag_173\n      jumpi\n        /* \"contracts/AcceptanceVoting.sol\":3940:3952  vote_score++ */\n      dup1\n      dup1\n      0x01\n      add\n      swap2\n      pop\n      pop\n        /* \"contracts/AcceptanceVoting.sol\":3906:3960  if (hasStudentMarketing) {\r... */\n    tag_173:\n        /* \"contracts/AcceptanceVoting.sol\":4067:4077  vote_score */\n      dup1\n        /* \"contracts/AcceptanceVoting.sol\":4028:4046  applicantVoteScore */\n      0x05\n        /* \"contracts/AcceptanceVoting.sol\":4028:4063  applicantVoteScore[applicantNumber] */\n      0x00\n        /* \"contracts/AcceptanceVoting.sol\":4047:4062  applicantNumber */\n      dup10\n        /* \"contracts/AcceptanceVoting.sol\":4028:4063  applicantVoteScore[applicantNumber] */\n      dup2\n      mstore\n      0x20\n      add\n      swap1\n      dup2\n      mstore\n      0x20\n      add\n      0x00\n      keccak256\n      0x00\n        /* \"contracts/AcceptanceVoting.sol\":4028:4077  applicantVoteScore[applicantNumber] += vote_score */\n      dup3\n      dup3\n      sload\n      add\n      swap3\n      pop\n      pop\n      dup2\n      swap1\n      sstore\n      pop\n        /* \"contracts/AcceptanceVoting.sol\":4091:4137  voted(msg.sender, applicantNumber, vote_score) */\n      0xb091fe3ff5bcc354914ab49469d6febeeec7ad0134e4f94bb8c834da0c391c9f\n        /* \"contracts/AcceptanceVoting.sol\":4097:4107  msg.sender */\n      caller\n        /* \"contracts/AcceptanceVoting.sol\":4109:4124  applicantNumber */\n      dup9\n        /* \"contracts/AcceptanceVoting.sol\":4126:4136  vote_score */\n      dup4\n        /* \"contracts/AcceptanceVoting.sol\":4091:4137  voted(msg.sender, applicantNumber, vote_score) */\n      mload(0x40)\n      dup1\n      dup5\n      0xffffffffffffffffffffffffffffffffffffffff\n      and\n      0xffffffffffffffffffffffffffffffffffffffff\n      and\n      dup2\n      mstore\n      0x20\n      add\n      dup4\n      dup2\n      mstore\n      0x20\n      add\n      dup3\n      dup2\n      mstore\n      0x20\n      add\n      swap4\n      pop\n      pop\n      pop\n      pop\n      mload(0x40)\n      dup1\n      swap2\n      sub\n      swap1\n      log1\n        /* \"contracts/AcceptanceVoting.sol\":3176:4143  function vote(\r... */\n      pop\n      pop\n      pop\n      pop\n      pop\n      pop\n      pop\n      jump\t// out\n        /* \"contracts/AcceptanceVoting.sol\":6459:6541  function getFee() public view returns (uint256) {\r... */\n    tag_83:\n        /* \"contracts/AcceptanceVoting.sol\":6498:6505  uint256 */\n      0x00\n        /* \"contracts/AcceptanceVoting.sol\":6521:6535  applicationFee */\n      sload(0x0a)\n        /* \"contracts/AcceptanceVoting.sol\":6514:6535  return applicationFee */\n      swap1\n      pop\n        /* \"contracts/AcceptanceVoting.sol\":6459:6541  function getFee() public view returns (uint256) {\r... */\n      swap1\n      jump\t// out\n        /* \"contracts/AcceptanceVoting.sol\":7750:8039  function addCommitteeMember(address user) public isChairman {\r... */\n    tag_87:\n        /* \"contracts/AcceptanceVoting.sol\":2415:2432  committeeChairman */\n      0x0b\n      0x00\n      swap1\n      sload\n      swap1\n      0x0100\n      exp\n      swap1\n      div\n      0xffffffffffffffffffffffffffffffffffffffff\n      and\n        /* \"contracts/AcceptanceVoting.sol\":2401:2432  msg.sender == committeeChairman */\n      0xffffffffffffffffffffffffffffffffffffffff\n      and\n        /* \"contracts/AcceptanceVoting.sol\":2401:2411  msg.sender */\n      caller\n        /* \"contracts/AcceptanceVoting.sol\":2401:2432  msg.sender == committeeChairman */\n      0xffffffffffffffffffffffffffffffffffffffff\n      and\n      eq\n        /* \"contracts/AcceptanceVoting.sol\":2385:2486  require(\r... */\n      tag_176\n      jumpi\n      mload(0x40)\n      0x08c379a000000000000000000000000000000000000000000000000000000000\n      dup2\n      mstore\n      0x04\n      add\n      dup1\n      dup1\n      0x20\n      add\n      dup3\n      dup2\n      sub\n      dup3\n      mstore\n      0x24\n      dup2\n      mstore\n      0x20\n      add\n      dup1\n      data_02507de8ad3f7476ef261265200a4777cdfdc6ef75c5a0744a4916b83fe827f1\n      0x24\n      swap2\n      codecopy\n      0x40\n      add\n      swap2\n      pop\n      pop\n      mload(0x40)\n      dup1\n      swap2\n      sub\n      swap1\n      revert\n    tag_176:\n        /* \"contracts/AcceptanceVoting.sol\":7931:7947  committeeMembers */\n      0x00\n        /* \"contracts/AcceptanceVoting.sol\":7953:7957  user */\n      dup2\n        /* \"contracts/AcceptanceVoting.sol\":7931:7958  committeeMembers.push(user) */\n      swap1\n      dup1\n        /* \"--CODEGEN--\":39:40   */\n      0x01\n        /* \"--CODEGEN--\":33:36   */\n      dup2\n        /* \"--CODEGEN--\":27:37   */\n      sload\n        /* \"--CODEGEN--\":23:41   */\n      add\n        /* \"--CODEGEN--\":57:67   */\n      dup1\n        /* \"--CODEGEN--\":52:55   */\n      dup3\n        /* \"--CODEGEN--\":45:68   */\n      sstore\n        /* \"--CODEGEN--\":79:89   */\n      dup1\n        /* \"--CODEGEN--\":72:89   */\n      swap2\n      pop\n        /* \"--CODEGEN--\":0:93   */\n      pop\n        /* \"contracts/AcceptanceVoting.sol\":7931:7958  committeeMembers.push(user) */\n      swap1\n      0x01\n      dup3\n      sub\n      swap1\n      0x00\n      mstore\n      keccak256(0x00, 0x20)\n      add\n      0x00\n      swap1\n      swap2\n      swap3\n      swap1\n      swap2\n      swap1\n      swap2\n      0x0100\n      exp\n      dup2\n      sload\n      dup2\n      0xffffffffffffffffffffffffffffffffffffffff\n      mul\n      not\n      and\n      swap1\n      dup4\n      0xffffffffffffffffffffffffffffffffffffffff\n      and\n      mul\n      or\n      swap1\n      sstore\n      pop\n      pop\n        /* \"contracts/AcceptanceVoting.sol\":7991:7995  true */\n      0x01\n        /* \"contracts/AcceptanceVoting.sol\":7965:7982  isCommitteeMember */\n      dup1\n        /* \"contracts/AcceptanceVoting.sol\":7965:7988  isCommitteeMember[user] */\n      0x00\n        /* \"contracts/AcceptanceVoting.sol\":7983:7987  user */\n      dup4\n        /* \"contracts/AcceptanceVoting.sol\":7965:7988  isCommitteeMember[user] */\n      0xffffffffffffffffffffffffffffffffffffffff\n      and\n      0xffffffffffffffffffffffffffffffffffffffff\n      and\n      dup2\n      mstore\n      0x20\n      add\n      swap1\n      dup2\n      mstore\n      0x20\n      add\n      0x00\n      keccak256\n      0x00\n        /* \"contracts/AcceptanceVoting.sol\":7965:7995  isCommitteeMember[user] = true */\n      0x0100\n      exp\n      dup2\n      sload\n      dup2\n      0xff\n      mul\n      not\n      and\n      swap1\n      dup4\n      iszero\n      iszero\n      mul\n      or\n      swap1\n      sstore\n      pop\n        /* \"contracts/AcceptanceVoting.sol\":8007:8033  new_committee_member(user) */\n      0x3c447f519ac1c1b0a1b61461c65097312d6bceea813c279bce5fb53dd552a3d2\n        /* \"contracts/AcceptanceVoting.sol\":8028:8032  user */\n      dup2\n        /* \"contracts/AcceptanceVoting.sol\":8007:8033  new_committee_member(user) */\n      mload(0x40)\n      dup1\n      dup3\n      0xffffffffffffffffffffffffffffffffffffffff\n      and\n      0xffffffffffffffffffffffffffffffffffffffff\n      and\n      dup2\n      mstore\n      0x20\n      add\n      swap2\n      pop\n      pop\n      mload(0x40)\n      dup1\n      swap2\n      sub\n      swap1\n      log1\n        /* \"contracts/AcceptanceVoting.sol\":7750:8039  function addCommitteeMember(address user) public isChairman {\r... */\n      pop\n      jump\t// out\n        /* \"contracts/AcceptanceVoting.sol\":8045:8168  function changeChairman(address user) public isChairman {\r... */\n    tag_91:\n        /* \"contracts/AcceptanceVoting.sol\":2415:2432  committeeChairman */\n      0x0b\n      0x00\n      swap1\n      sload\n      swap1\n      0x0100\n      exp\n      swap1\n      div\n      0xffffffffffffffffffffffffffffffffffffffff\n      and\n        /* \"contracts/AcceptanceVoting.sol\":2401:2432  msg.sender == committeeChairman */\n      0xffffffffffffffffffffffffffffffffffffffff\n      and\n        /* \"contracts/AcceptanceVoting.sol\":2401:2411  msg.sender */\n      caller\n        /* \"contracts/AcceptanceVoting.sol\":2401:2432  msg.sender == committeeChairman */\n      0xffffffffffffffffffffffffffffffffffffffff\n      and\n      eq\n        /* \"contracts/AcceptanceVoting.sol\":2385:2486  require(\r... */\n      tag_180\n      jumpi\n      mload(0x40)\n      0x08c379a000000000000000000000000000000000000000000000000000000000\n      dup2\n      mstore\n      0x04\n      add\n      dup1\n      dup1\n      0x20\n      add\n      dup3\n      dup2\n      sub\n      dup3\n      mstore\n      0x24\n      dup2\n      mstore\n      0x20\n      add\n      dup1\n      data_02507de8ad3f7476ef261265200a4777cdfdc6ef75c5a0744a4916b83fe827f1\n      0x24\n      swap2\n      codecopy\n      0x40\n      add\n      swap2\n      pop\n      pop\n      mload(0x40)\n      dup1\n      swap2\n      sub\n      swap1\n      revert\n    tag_180:\n        /* \"contracts/AcceptanceVoting.sol\":8128:8132  user */\n      dup1\n        /* \"contracts/AcceptanceVoting.sol\":8108:8125  committeeChairman */\n      0x0b\n      0x00\n        /* \"contracts/AcceptanceVoting.sol\":8108:8132  committeeChairman = user */\n      0x0100\n      exp\n      dup2\n      sload\n      dup2\n      0xffffffffffffffffffffffffffffffffffffffff\n      mul\n      not\n      and\n      swap1\n      dup4\n      0xffffffffffffffffffffffffffffffffffffffff\n      and\n      mul\n      or\n      swap1\n      sstore\n      pop\n        /* \"contracts/AcceptanceVoting.sol\":8144:8162  new_chairman(user) */\n      0x46e0d3f41ef6efa4d8aab7b132788e8f728ce9c5faad65d33e387d8188bee615\n        /* \"contracts/AcceptanceVoting.sol\":8157:8161  user */\n      dup2\n        /* \"contracts/AcceptanceVoting.sol\":8144:8162  new_chairman(user) */\n      mload(0x40)\n      dup1\n      dup3\n      0xffffffffffffffffffffffffffffffffffffffff\n      and\n      0xffffffffffffffffffffffffffffffffffffffff\n      and\n      dup2\n      mstore\n      0x20\n      add\n      swap2\n      pop\n      pop\n      mload(0x40)\n      dup1\n      swap2\n      sub\n      swap1\n      log1\n        /* \"contracts/AcceptanceVoting.sol\":8045:8168  function changeChairman(address user) public isChairman {\r... */\n      pop\n      jump\t// out\n        /* \"contracts/AcceptanceVoting.sol\":2506:2763  function addApplicant (\r... */\n    tag_98:\n        /* \"contracts/AcceptanceVoting.sol\":2686:2704  institutionAddress */\n      dup3\n        /* \"contracts/AcceptanceVoting.sol\":2652:2668  applicantAddress */\n      0x02\n        /* \"contracts/AcceptanceVoting.sol\":2652:2683  applicantAddress[institutionID] */\n      0x00\n        /* \"contracts/AcceptanceVoting.sol\":2669:2682  institutionID */\n      dup7\n        /* \"contracts/AcceptanceVoting.sol\":2652:2683  applicantAddress[institutionID] */\n      dup2\n      mstore\n      0x20\n      add\n      swap1\n      dup2\n      mstore\n      0x20\n      add\n      0x00\n      keccak256\n      0x00\n        /* \"contracts/AcceptanceVoting.sol\":2652:2704  applicantAddress[institutionID] = institutionAddress */\n      0x0100\n      exp\n      dup2\n      sload\n      dup2\n      0xffffffffffffffffffffffffffffffffffffffff\n      mul\n      not\n      and\n      swap1\n      dup4\n      0xffffffffffffffffffffffffffffffffffffffff\n      and\n      mul\n      or\n      swap1\n      sstore\n      pop\n        /* \"contracts/AcceptanceVoting.sol\":2742:2757  institutionName */\n      dup2\n      dup2\n        /* \"contracts/AcceptanceVoting.sol\":2711:2724  applicantName */\n      0x03\n        /* \"contracts/AcceptanceVoting.sol\":2711:2739  applicantName[institutionID] */\n      0x00\n        /* \"contracts/AcceptanceVoting.sol\":2725:2738  institutionID */\n      dup8\n        /* \"contracts/AcceptanceVoting.sol\":2711:2739  applicantName[institutionID] */\n      dup2\n      mstore\n      0x20\n      add\n      swap1\n      dup2\n      mstore\n      0x20\n      add\n      0x00\n      keccak256\n        /* \"contracts/AcceptanceVoting.sol\":2711:2757  applicantName[institutionID] = institutionName */\n      swap2\n      swap1\n      tag_183\n      swap3\n      swap2\n      swap1\n      tag_184\n      jump\t// in\n    tag_183:\n      pop\n        /* \"contracts/AcceptanceVoting.sol\":2506:2763  function addApplicant (\r... */\n      pop\n      pop\n      pop\n      pop\n      jump\t// out\n        /* \"contracts/AcceptanceVoting.sol\":6319:6453  function getVotingState(uint256 applicantNumber) external view returns (VotingState) {\r... */\n    tag_102:\n        /* \"contracts/AcceptanceVoting.sol\":6391:6402  VotingState */\n      0x00\n        /* \"contracts/AcceptanceVoting.sol\":6418:6430  currentState */\n      0x0d\n        /* \"contracts/AcceptanceVoting.sol\":6418:6447  currentState[applicantNumber] */\n      0x00\n        /* \"contracts/AcceptanceVoting.sol\":6431:6446  applicantNumber */\n      dup4\n        /* \"contracts/AcceptanceVoting.sol\":6418:6447  currentState[applicantNumber] */\n      dup2\n      mstore\n      0x20\n      add\n      swap1\n      dup2\n      mstore\n      0x20\n      add\n      0x00\n      keccak256\n      0x00\n      swap1\n      sload\n      swap1\n      0x0100\n      exp\n      swap1\n      div\n      0xff\n      and\n        /* \"contracts/AcceptanceVoting.sol\":6411:6447  return currentState[applicantNumber] */\n      swap1\n      pop\n        /* \"contracts/AcceptanceVoting.sol\":6319:6453  function getVotingState(uint256 applicantNumber) external view returns (VotingState) {\r... */\n      swap2\n      swap1\n      pop\n      jump\t// out\n        /* \"contracts/AcceptanceVoting.sol\":27:8171  contract AcceptanceVoting {\r... */\n    tag_184:\n      dup3\n      dup1\n      sload\n      0x01\n      dup2\n      0x01\n      and\n      iszero\n      0x0100\n      mul\n      sub\n      and\n      0x02\n      swap1\n      div\n      swap1\n      0x00\n      mstore\n      keccak256(0x00, 0x20)\n      swap1\n      0x1f\n      add\n      0x20\n      swap1\n      div\n      dup2\n      add\n      swap3\n      dup3\n      0x1f\n      lt\n      tag_187\n      jumpi\n      dup1\n      calldataload\n      not(0xff)\n      and\n      dup4\n      dup1\n      add\n      or\n      dup6\n      sstore\n      jump(tag_186)\n    tag_187:\n      dup3\n      dup1\n      add\n      0x01\n      add\n      dup6\n      sstore\n      dup3\n      iszero\n      tag_186\n      jumpi\n      swap2\n      dup3\n      add\n    tag_188:\n      dup3\n      dup2\n      gt\n      iszero\n      tag_189\n      jumpi\n      dup3\n      calldataload\n      dup3\n      sstore\n      swap2\n      0x20\n      add\n      swap2\n      swap1\n      0x01\n      add\n      swap1\n      jump(tag_188)\n    tag_189:\n    tag_186:\n      pop\n      swap1\n      pop\n      tag_190\n      swap2\n      swap1\n      tag_191\n      jump\t// in\n    tag_190:\n      pop\n      swap1\n      jump\t// out\n    tag_191:\n      tag_192\n      swap2\n      swap1\n    tag_193:\n      dup1\n      dup3\n      gt\n      iszero\n      tag_194\n      jumpi\n      0x00\n      dup2\n      0x00\n      swap1\n      sstore\n      pop\n      0x01\n      add\n      jump(tag_193)\n    tag_194:\n      pop\n      swap1\n      jump\n    tag_192:\n      swap1\n      jump\t// out\n    stop\n    data_02507de8ad3f7476ef261265200a4777cdfdc6ef75c5a0744a4916b83fe827f1 4f6e6c792043686169726d616e2063616e2063616c6c20746869732066756e6374696f6e\n    data_8adedb4f5e6d38c24ca8bc6cf7b1cb31f6ecf2fa8267bdb019026dca0a10596f 6170706c6963616e7420616c726561647920756e646572676f696e6720766f74696e67\n    data_d45e9715ab11818d7dfdc848e175cd6304b4034551c5b285121887e0ffa3defa 55736572206973206e6f7420612063757272656e7420636f6d6d6974746565204d656d626572\n\n    auxdata: 0xa265627a7a72315820d4718602631ca426d86b55427222e02266e0b80cc9077c67e9ae1ef46cfe209064736f6c63430005110032\n}\n",
				"bytecode": {
					"linkReferences": {},
					"object": "608060405234801561001057600080fd5b50604051611c66380380611c668339818101604052604081101561003357600080fd5b81019080805190602001909291908051906020019092919050505033600b60006101000a81548173ffffffffffffffffffffffffffffffffffffffff021916908373ffffffffffffffffffffffffffffffffffffffff16021790555081600a8190555080600c819055505050611bb8806100ae6000396000f3fe6080604052600436106101145760003560e01c8063a03b2a15116100a0578063ced72f8711610064578063ced72f8714610554578063e7f1f9531461057f578063e8101869146105d0578063e8fe14e414610621578063f3caf03b146106d157610114565b8063a03b2a151461037a578063af3be4d8146103cb578063b2a275f91461041e578063b38188d41461048a578063be7f114c146104dd57610114565b80636a1db1bf116100e75780636a1db1bf146102475780636c814acb146102825780637aca97b5146102d95780638d00f82e1461031457806394e4689d1461034f57610114565b806326c4e60d1461011957806356b2edb6146101235780635e01a6ff146101685780635f8d96de1461021c575b600080fd5b61012161072e565b005b34801561012f57600080fd5b506101666004803603604081101561014657600080fd5b8101908080359060200190929190803590602001909291905050506107e9565b005b34801561017457600080fd5b506101a16004803603602081101561018b57600080fd5b8101908080359060200190929190505050610b74565b6040518080602001828103825283818151815260200191508051906020019080838360005b838110156101e15780820151818401526020810190506101c6565b50505050905090810190601f16801561020e5780820380516001836020036101000a031916815260200191505b509250505060405180910390f35b34801561022857600080fd5b50610231610c29565b6040518082815260200191505060405180910390f35b34801561025357600080fd5b506102806004803603602081101561026a57600080fd5b8101908080359060200190929190505050610c33565b005b34801561028e57600080fd5b50610297610ce3565b604051808273ffffffffffffffffffffffffffffffffffffffff1673ffffffffffffffffffffffffffffffffffffffff16815260200191505060405180910390f35b3480156102e557600080fd5b50610312600480360360208110156102fc57600080fd5b8101908080359060200190929190505050610d0d565b005b34801561032057600080fd5b5061034d6004803603602081101561033757600080fd5b8101908080359060200190929190505050610dbd565b005b34801561035b57600080fd5b50610364610f80565b6040518082815260200191505060405180910390f35b34801561038657600080fd5b506103c96004803603602081101561039d57600080fd5b81019080803573ffffffffffffffffffffffffffffffffffffffff169060200190929190505050610f8a565b005b3480156103d757600080fd5b50610404600480360360208110156103ee57600080fd5b8101908080359060200190929190505050611309565b604051808215151515815260200191505060405180910390f35b34801561042a57600080fd5b50610433611333565b6040518080602001828103825283818151815260200191508051906020019060200280838360005b8381101561047657808201518184015260208101905061045b565b505050509050019250505060405180910390f35b34801561049657600080fd5b506104c3600480360360208110156104ad57600080fd5b81019080803590602001909291905050506113c1565b604051808215151515815260200191505060405180910390f35b3480156104e957600080fd5b50610552600480360360c081101561050057600080fd5b81019080803590602001909291908035151590602001909291908035151590602001909291908035151590602001909291908035151590602001909291908035151590602001909291905050506113eb565b005b34801561056057600080fd5b506105696116ac565b6040518082815260200191505060405180910390f35b34801561058b57600080fd5b506105ce600480360360208110156105a257600080fd5b81019080803573ffffffffffffffffffffffffffffffffffffffff1690602001909291905050506116b6565b005b3480156105dc57600080fd5b5061061f600480360360208110156105f357600080fd5b81019080803573ffffffffffffffffffffffffffffffffffffffff16906020019092919050505061187f565b005b34801561062d57600080fd5b506106cf6004803603606081101561064457600080fd5b8101908080359060200190929190803573ffffffffffffffffffffffffffffffffffffffff1690602001909291908035906020019064010000000081111561068b57600080fd5b82018360208201111561069d57600080fd5b803590602001918460018302840111640100000000831117156106bf57600080fd5b90919293919293905050506119cc565b005b3480156106dd57600080fd5b5061070a600480360360208110156106f457600080fd5b8101908080359060200190929190505050611a47565b6040518082600181111561071a57fe5b60ff16815260200191505060405180910390f35b60008080549050600a548161073f57fe5b04905060008090505b6000805490508110156107e557600080828154811061076357fe5b9060005260206000200160009054906101000a900473ffffffffffffffffffffffffffffffffffffffff1690508073ffffffffffffffffffffffffffffffffffffffff166108fc849081150290604051600060405180830381858888f193505050501580156107d6573d6000803e3d6000fd5b50508080600101915050610748565b5050565b600b60009054906101000a900473ffffffffffffffffffffffffffffffffffffffff1673ffffffffffffffffffffffffffffffffffffffff163373ffffffffffffffffffffffffffffffffffffffff161461088f576040517f08c379a0000000000000000000000000000000000000000000000000000000008152600401808060200182810382526024815260200180611b176024913960400191505060405180910390fd5b6000600181111561089c57fe5b600d600084815260200190815260200160002060009054906101000a900460ff1660018111156108c857fe5b1461093b576040517f08c379a00000000000000000000000000000000000000000000000000000000081526004018080602001828103825260108152602001807f566f7465206973206e6f74206f70656e0000000000000000000000000000000081525060200191505060405180910390fd5b80600560008481526020019081526020016000205410610a555760016008600084815260200190815260200160002060006101000a81548160ff0219169083151502179055507f91eec35515ce2f09d0f16ebebead73ea64a7635644b4ea017f35590c38fb25f6826005600085815260200190815260200160002054836040518080602001858152602001848152602001838152602001828103825260088152602001807f416363657074656400000000000000000000000000000000000000000000000081525060200194505050505060405180910390a1610a506002600084815260200190815260200160002060009054906101000a900473ffffffffffffffffffffffffffffffffffffffff166116b6565b610b05565b8060056000848152602001908152602001600020541015610b04577f91eec35515ce2f09d0f16ebebead73ea64a7635644b4ea017f35590c38fb25f68260056000858152602001908152602001600020548360405180806020018581526020018481526020018381526020018281038252600c8152602001807f4e6f74206163636570746564000000000000000000000000000000000000000081525060200194505050505060405180910390a15b5b60016009600084815260200190815260200160002060006101000a81548160ff0219169083151502179055507f4fa16f02e5d98e5d0859e515cb1bc8e3d3f14743eb623e2f685362b7d3f70d0a8243604051808381526020018281526020019250505060405180910390a15050565b6060600360008381526020019081526020016000208054600181600116156101000203166002900480601f016020809104026020016040519081016040528092919081815260200182805460018160011615610100020316600290048015610c1d5780601f10610bf257610100808354040283529160200191610c1d565b820191906000526020600020905b815481529060010190602001808311610c0057829003601f168201915b50505050509050919050565b6000600c54905090565b600b60009054906101000a900473ffffffffffffffffffffffffffffffffffffffff1673ffffffffffffffffffffffffffffffffffffffff163373ffffffffffffffffffffffffffffffffffffffff1614610cd9576040517f08c379a0000000000000000000000000000000000000000000000000000000008152600401808060200182810382526024815260200180611b176024913960400191505060405180910390fd5b80600a8190555050565b6000600b60009054906101000a900473ffffffffffffffffffffffffffffffffffffffff16905090565b600b60009054906101000a900473ffffffffffffffffffffffffffffffffffffffff1673ffffffffffffffffffffffffffffffffffffffff163373ffffffffffffffffffffffffffffffffffffffff1614610db3576040517f08c379a0000000000000000000000000000000000000000000000000000000008152600401808060200182810382526024815260200180611b176024913960400191505060405180910390fd5b80600c8190555050565b600b60009054906101000a900473ffffffffffffffffffffffffffffffffffffffff1673ffffffffffffffffffffffffffffffffffffffff163373ffffffffffffffffffffffffffffffffffffffff1614610e63576040517f08c379a0000000000000000000000000000000000000000000000000000000008152600401808060200182810382526024815260200180611b176024913960400191505060405180910390fd5b600180811115610e6f57fe5b6006600083815260200190815260200160002060009054906101000a900460ff166001811115610e9b57fe5b14610ef1576040517f08c379a0000000000000000000000000000000000000000000000000000000008152600401808060200182810382526023815260200180611b3b6023913960400191505060405180910390fd5b60006006600083815260200190815260200160002060006101000a81548160ff02191690836001811115610f2157fe5b02179055504360076000838152602001908152602001600020819055507f32689d92c1683d1ff87da49b2db81410842eed93afcd24c7cee6dbef24ba4a158143604051808381526020018281526020019250505060405180910390a150565b6000600c54905090565b600b60009054906101000a900473ffffffffffffffffffffffffffffffffffffffff1673ffffffffffffffffffffffffffffffffffffffff163373ffffffffffffffffffffffffffffffffffffffff1614611030576040517f08c379a0000000000000000000000000000000000000000000000000000000008152600401808060200182810382526024815260200180611b176024913960400191505060405180910390fd5b600160008273ffffffffffffffffffffffffffffffffffffffff1673ffffffffffffffffffffffffffffffffffffffff16815260200190815260200160002060009054906101000a900460ff166110d2576040517f08c379a0000000000000000000000000000000000000000000000000000000008152600401808060200182810382526026815260200180611b5e6026913960400191505060405180910390fd5b600080805490501161114c576040517f08c379a00000000000000000000000000000000000000000000000000000000081526004018080602001828103825260118152602001807f436f6d6d6974656520697320656d70747900000000000000000000000000000081525060200191505060405180910390fd5b6000600160008373ffffffffffffffffffffffffffffffffffffffff1673ffffffffffffffffffffffffffffffffffffffff16815260200190815260200160002060006101000a81548160ff02191690831515021790555060008090505b60008054905081101561130557600081815481106111c457fe5b9060005260206000200160009054906101000a900473ffffffffffffffffffffffffffffffffffffffff1673ffffffffffffffffffffffffffffffffffffffff168273ffffffffffffffffffffffffffffffffffffffff1614156112f85760006001600080549050038154811061123757fe5b9060005260206000200160009054906101000a900473ffffffffffffffffffffffffffffffffffffffff166000828154811061126f57fe5b9060005260206000200160006101000a81548173ffffffffffffffffffffffffffffffffffffffff021916908373ffffffffffffffffffffffffffffffffffffffff16021790555060008054806112c257fe5b6001900381819060005260206000200160006101000a81549073ffffffffffffffffffffffffffffffffffffffff021916905590555b80806001019150506111aa565b5050565b60006008600083815260200190815260200160002060009054906101000a900460ff169050919050565b606060008054806020026020016040519081016040528092919081815260200182805480156113b757602002820191906000526020600020905b8160009054906101000a900473ffffffffffffffffffffffffffffffffffffffff1673ffffffffffffffffffffffffffffffffffffffff168152602001906001019080831161136d575b5050505050905090565b60006009600083815260200190815260200160002060009054906101000a900460ff169050919050565b600160003373ffffffffffffffffffffffffffffffffffffffff1673ffffffffffffffffffffffffffffffffffffffff16815260200190815260200160002060009054906101000a900460ff166114aa576040517f08c379a000000000000000000000000000000000000000000000000000000000815260040180806020018281038252601e8152602001807f596f7520617265206e6f74206120636f6d6d6974746565206d656d626572000081525060200191505060405180910390fd5b600060018111156114b757fe5b6006600088815260200190815260200160002060009054906101000a900460ff1660018111156114e357fe5b14611556576040517f08c379a000000000000000000000000000000000000000000000000000000000815260040180806020018281038252601d8152602001807f6170706c6963616e74206e6f74206f70656e20666f7220766f74696e6700000081525060200191505060405180910390fd5b6001600460003373ffffffffffffffffffffffffffffffffffffffff1673ffffffffffffffffffffffffffffffffffffffff168152602001908152602001600020600088815260200190815260200160002060006101000a81548160ff021916908315150217905550600080905085156115d35780806001019150505b84156115e25780806001019150505b83156115f15780806001019150505b82156116005780806001019150505b811561160f5780806001019150505b8060056000898152602001908152602001600020600082825401925050819055507fb091fe3ff5bcc354914ab49469d6febeeec7ad0134e4f94bb8c834da0c391c9f338883604051808473ffffffffffffffffffffffffffffffffffffffff1673ffffffffffffffffffffffffffffffffffffffff168152602001838152602001828152602001935050505060405180910390a150505050505050565b6000600a54905090565b600b60009054906101000a900473ffffffffffffffffffffffffffffffffffffffff1673ffffffffffffffffffffffffffffffffffffffff163373ffffffffffffffffffffffffffffffffffffffff161461175c576040517f08c379a0000000000000000000000000000000000000000000000000000000008152600401808060200182810382526024815260200180611b176024913960400191505060405180910390fd5b60008190806001815401808255809150509060018203906000526020600020016000909192909190916101000a81548173ffffffffffffffffffffffffffffffffffffffff021916908373ffffffffffffffffffffffffffffffffffffffff1602179055505060018060008373ffffffffffffffffffffffffffffffffffffffff1673ffffffffffffffffffffffffffffffffffffffff16815260200190815260200160002060006101000a81548160ff0219169083151502179055507f3c447f519ac1c1b0a1b61461c65097312d6bceea813c279bce5fb53dd552a3d281604051808273ffffffffffffffffffffffffffffffffffffffff1673ffffffffffffffffffffffffffffffffffffffff16815260200191505060405180910390a150565b600b60009054906101000a900473ffffffffffffffffffffffffffffffffffffffff1673ffffffffffffffffffffffffffffffffffffffff163373ffffffffffffffffffffffffffffffffffffffff1614611925576040517f08c379a0000000000000000000000000000000000000000000000000000000008152600401808060200182810382526024815260200180611b176024913960400191505060405180910390fd5b80600b60006101000a81548173ffffffffffffffffffffffffffffffffffffffff021916908373ffffffffffffffffffffffffffffffffffffffff1602179055507f46e0d3f41ef6efa4d8aab7b132788e8f728ce9c5faad65d33e387d8188bee61581604051808273ffffffffffffffffffffffffffffffffffffffff1673ffffffffffffffffffffffffffffffffffffffff16815260200191505060405180910390a150565b826002600086815260200190815260200160002060006101000a81548173ffffffffffffffffffffffffffffffffffffffff021916908373ffffffffffffffffffffffffffffffffffffffff1602179055508181600360008781526020019081526020016000209190611a40929190611a71565b5050505050565b6000600d600083815260200190815260200160002060009054906101000a900460ff169050919050565b828054600181600116156101000203166002900490600052602060002090601f016020900481019282601f10611ab257803560ff1916838001178555611ae0565b82800160010185558215611ae0579182015b82811115611adf578235825591602001919060010190611ac4565b5b509050611aed9190611af1565b5090565b611b1391905b80821115611b0f576000816000905550600101611af7565b5090565b9056fe4f6e6c792043686169726d616e2063616e2063616c6c20746869732066756e6374696f6e6170706c6963616e7420616c726561647920756e646572676f696e6720766f74696e6755736572206973206e6f7420612063757272656e7420636f6d6d6974746565204d656d626572a265627a7a72315820d4718602631ca426d86b55427222e02266e0b80cc9077c67e9ae1ef46cfe209064736f6c63430005110032",
					"opcodes": "PUSH1 0x80 PUSH1 0x40 MSTORE CALLVALUE DUP1 ISZERO PUSH2 0x10 JUMPI PUSH1 0x0 DUP1 REVERT JUMPDEST POP PUSH1 0x40 MLOAD PUSH2 0x1C66 CODESIZE SUB DUP1 PUSH2 0x1C66 DUP4 CODECOPY DUP2 DUP2 ADD PUSH1 0x40 MSTORE PUSH1 0x40 DUP2 LT ISZERO PUSH2 0x33 JUMPI PUSH1 0x0 DUP1 REVERT JUMPDEST DUP2 ADD SWAP1 DUP1 DUP1 MLOAD SWAP1 PUSH1 0x20 ADD SWAP1 SWAP3 SWAP2 SWAP1 DUP1 MLOAD SWAP1 PUSH1 0x20 ADD SWAP1 SWAP3 SWAP2 SWAP1 POP POP POP CALLER PUSH1 0xB PUSH1 0x0 PUSH2 0x100 EXP DUP2 SLOAD DUP2 PUSH20 0xFFFFFFFFFFFFFFFFFFFFFFFFFFFFFFFFFFFFFFFF MUL NOT AND SWAP1 DUP4 PUSH20 0xFFFFFFFFFFFFFFFFFFFFFFFFFFFFFFFFFFFFFFFF AND MUL OR SWAP1 SSTORE POP DUP2 PUSH1 0xA DUP2 SWAP1 SSTORE POP DUP1 PUSH1 0xC DUP2 SWAP1 SSTORE POP POP POP PUSH2 0x1BB8 DUP1 PUSH2 0xAE PUSH1 0x0 CODECOPY PUSH1 0x0 RETURN INVALID PUSH1 0x80 PUSH1 0x40 MSTORE PUSH1 0x4 CALLDATASIZE LT PUSH2 0x114 JUMPI PUSH1 0x0 CALLDATALOAD PUSH1 0xE0 SHR DUP1 PUSH4 0xA03B2A15 GT PUSH2 0xA0 JUMPI DUP1 PUSH4 0xCED72F87 GT PUSH2 0x64 JUMPI DUP1 PUSH4 0xCED72F87 EQ PUSH2 0x554 JUMPI DUP1 PUSH4 0xE7F1F953 EQ PUSH2 0x57F JUMPI DUP1 PUSH4 0xE8101869 EQ PUSH2 0x5D0 JUMPI DUP1 PUSH4 0xE8FE14E4 EQ PUSH2 0x621 JUMPI DUP1 PUSH4 0xF3CAF03B EQ PUSH2 0x6D1 JUMPI PUSH2 0x114 JUMP JUMPDEST DUP1 PUSH4 0xA03B2A15 EQ PUSH2 0x37A JUMPI DUP1 PUSH4 0xAF3BE4D8 EQ PUSH2 0x3CB JUMPI DUP1 PUSH4 0xB2A275F9 EQ PUSH2 0x41E JUMPI DUP1 PUSH4 0xB38188D4 EQ PUSH2 0x48A JUMPI DUP1 PUSH4 0xBE7F114C EQ PUSH2 0x4DD JUMPI PUSH2 0x114 JUMP JUMPDEST DUP1 PUSH4 0x6A1DB1BF GT PUSH2 0xE7 JUMPI DUP1 PUSH4 0x6A1DB1BF EQ PUSH2 0x247 JUMPI DUP1 PUSH4 0x6C814ACB EQ PUSH2 0x282 JUMPI DUP1 PUSH4 0x7ACA97B5 EQ PUSH2 0x2D9 JUMPI DUP1 PUSH4 0x8D00F82E EQ PUSH2 0x314 JUMPI DUP1 PUSH4 0x94E4689D EQ PUSH2 0x34F JUMPI PUSH2 0x114 JUMP JUMPDEST DUP1 PUSH4 0x26C4E60D EQ PUSH2 0x119 JUMPI DUP1 PUSH4 0x56B2EDB6 EQ PUSH2 0x123 JUMPI DUP1 PUSH4 0x5E01A6FF EQ PUSH2 0x168 JUMPI DUP1 PUSH4 0x5F8D96DE EQ PUSH2 0x21C JUMPI JUMPDEST PUSH1 0x0 DUP1 REVERT JUMPDEST PUSH2 0x121 PUSH2 0x72E JUMP JUMPDEST STOP JUMPDEST CALLVALUE DUP1 ISZERO PUSH2 0x12F JUMPI PUSH1 0x0 DUP1 REVERT JUMPDEST POP PUSH2 0x166 PUSH1 0x4 DUP1 CALLDATASIZE SUB PUSH1 0x40 DUP2 LT ISZERO PUSH2 0x146 JUMPI PUSH1 0x0 DUP1 REVERT JUMPDEST DUP2 ADD SWAP1 DUP1 DUP1 CALLDATALOAD SWAP1 PUSH1 0x20 ADD SWAP1 SWAP3 SWAP2 SWAP1 DUP1 CALLDATALOAD SWAP1 PUSH1 0x20 ADD SWAP1 SWAP3 SWAP2 SWAP1 POP POP POP PUSH2 0x7E9 JUMP JUMPDEST STOP JUMPDEST CALLVALUE DUP1 ISZERO PUSH2 0x174 JUMPI PUSH1 0x0 DUP1 REVERT JUMPDEST POP PUSH2 0x1A1 PUSH1 0x4 DUP1 CALLDATASIZE SUB PUSH1 0x20 DUP2 LT ISZERO PUSH2 0x18B JUMPI PUSH1 0x0 DUP1 REVERT JUMPDEST DUP2 ADD SWAP1 DUP1 DUP1 CALLDATALOAD SWAP1 PUSH1 0x20 ADD SWAP1 SWAP3 SWAP2 SWAP1 POP POP POP PUSH2 0xB74 JUMP JUMPDEST PUSH1 0x40 MLOAD DUP1 DUP1 PUSH1 0x20 ADD DUP3 DUP2 SUB DUP3 MSTORE DUP4 DUP2 DUP2 MLOAD DUP2 MSTORE PUSH1 0x20 ADD SWAP2 POP DUP1 MLOAD SWAP1 PUSH1 0x20 ADD SWAP1 DUP1 DUP4 DUP4 PUSH1 0x0 JUMPDEST DUP4 DUP2 LT ISZERO PUSH2 0x1E1 JUMPI DUP1 DUP3 ADD MLOAD DUP2 DUP5 ADD MSTORE PUSH1 0x20 DUP2 ADD SWAP1 POP PUSH2 0x1C6 JUMP JUMPDEST POP POP POP POP SWAP1 POP SWAP1 DUP2 ADD SWAP1 PUSH1 0x1F AND DUP1 ISZERO PUSH2 0x20E JUMPI DUP1 DUP3 SUB DUP1 MLOAD PUSH1 0x1 DUP4 PUSH1 0x20 SUB PUSH2 0x100 EXP SUB NOT AND DUP2 MSTORE PUSH1 0x20 ADD SWAP2 POP JUMPDEST POP SWAP3 POP POP POP PUSH1 0x40 MLOAD DUP1 SWAP2 SUB SWAP1 RETURN JUMPDEST CALLVALUE DUP1 ISZERO PUSH2 0x228 JUMPI PUSH1 0x0 DUP1 REVERT JUMPDEST POP PUSH2 0x231 PUSH2 0xC29 JUMP JUMPDEST PUSH1 0x40 MLOAD DUP1 DUP3 DUP2 MSTORE PUSH1 0x20 ADD SWAP2 POP POP PUSH1 0x40 MLOAD DUP1 SWAP2 SUB SWAP1 RETURN JUMPDEST CALLVALUE DUP1 ISZERO PUSH2 0x253 JUMPI PUSH1 0x0 DUP1 REVERT JUMPDEST POP PUSH2 0x280 PUSH1 0x4 DUP1 CALLDATASIZE SUB PUSH1 0x20 DUP2 LT ISZERO PUSH2 0x26A JUMPI PUSH1 0x0 DUP1 REVERT JUMPDEST DUP2 ADD SWAP1 DUP1 DUP1 CALLDATALOAD SWAP1 PUSH1 0x20 ADD SWAP1 SWAP3 SWAP2 SWAP1 POP POP POP PUSH2 0xC33 JUMP JUMPDEST STOP JUMPDEST CALLVALUE DUP1 ISZERO PUSH2 0x28E JUMPI PUSH1 0x0 DUP1 REVERT JUMPDEST POP PUSH2 0x297 PUSH2 0xCE3 JUMP JUMPDEST PUSH1 0x40 MLOAD DUP1 DUP3 PUSH20 0xFFFFFFFFFFFFFFFFFFFFFFFFFFFFFFFFFFFFFFFF AND PUSH20 0xFFFFFFFFFFFFFFFFFFFFFFFFFFFFFFFFFFFFFFFF AND DUP2 MSTORE PUSH1 0x20 ADD SWAP2 POP POP PUSH1 0x40 MLOAD DUP1 SWAP2 SUB SWAP1 RETURN JUMPDEST CALLVALUE DUP1 ISZERO PUSH2 0x2E5 JUMPI PUSH1 0x0 DUP1 REVERT JUMPDEST POP PUSH2 0x312 PUSH1 0x4 DUP1 CALLDATASIZE SUB PUSH1 0x20 DUP2 LT ISZERO PUSH2 0x2FC JUMPI PUSH1 0x0 DUP1 REVERT JUMPDEST DUP2 ADD SWAP1 DUP1 DUP1 CALLDATALOAD SWAP1 PUSH1 0x20 ADD SWAP1 SWAP3 SWAP2 SWAP1 POP POP POP PUSH2 0xD0D JUMP JUMPDEST STOP JUMPDEST CALLVALUE DUP1 ISZERO PUSH2 0x320 JUMPI PUSH1 0x0 DUP1 REVERT JUMPDEST POP PUSH2 0x34D PUSH1 0x4 DUP1 CALLDATASIZE SUB PUSH1 0x20 DUP2 LT ISZERO PUSH2 0x337 JUMPI PUSH1 0x0 DUP1 REVERT JUMPDEST DUP2 ADD SWAP1 DUP1 DUP1 CALLDATALOAD SWAP1 PUSH1 0x20 ADD SWAP1 SWAP3 SWAP2 SWAP1 POP POP POP PUSH2 0xDBD JUMP JUMPDEST STOP JUMPDEST CALLVALUE DUP1 ISZERO PUSH2 0x35B JUMPI PUSH1 0x0 DUP1 REVERT JUMPDEST POP PUSH2 0x364 PUSH2 0xF80 JUMP JUMPDEST PUSH1 0x40 MLOAD DUP1 DUP3 DUP2 MSTORE PUSH1 0x20 ADD SWAP2 POP POP PUSH1 0x40 MLOAD DUP1 SWAP2 SUB SWAP1 RETURN JUMPDEST CALLVALUE DUP1 ISZERO PUSH2 0x386 JUMPI PUSH1 0x0 DUP1 REVERT JUMPDEST POP PUSH2 0x3C9 PUSH1 0x4 DUP1 CALLDATASIZE SUB PUSH1 0x20 DUP2 LT ISZERO PUSH2 0x39D JUMPI PUSH1 0x0 DUP1 REVERT JUMPDEST DUP2 ADD SWAP1 DUP1 DUP1 CALLDATALOAD PUSH20 0xFFFFFFFFFFFFFFFFFFFFFFFFFFFFFFFFFFFFFFFF AND SWAP1 PUSH1 0x20 ADD SWAP1 SWAP3 SWAP2 SWAP1 POP POP POP PUSH2 0xF8A JUMP JUMPDEST STOP JUMPDEST CALLVALUE DUP1 ISZERO PUSH2 0x3D7 JUMPI PUSH1 0x0 DUP1 REVERT JUMPDEST POP PUSH2 0x404 PUSH1 0x4 DUP1 CALLDATASIZE SUB PUSH1 0x20 DUP2 LT ISZERO PUSH2 0x3EE JUMPI PUSH1 0x0 DUP1 REVERT JUMPDEST DUP2 ADD SWAP1 DUP1 DUP1 CALLDATALOAD SWAP1 PUSH1 0x20 ADD SWAP1 SWAP3 SWAP2 SWAP1 POP POP POP PUSH2 0x1309 JUMP JUMPDEST PUSH1 0x40 MLOAD DUP1 DUP3 ISZERO ISZERO ISZERO ISZERO DUP2 MSTORE PUSH1 0x20 ADD SWAP2 POP POP PUSH1 0x40 MLOAD DUP1 SWAP2 SUB SWAP1 RETURN JUMPDEST CALLVALUE DUP1 ISZERO PUSH2 0x42A JUMPI PUSH1 0x0 DUP1 REVERT JUMPDEST POP PUSH2 0x433 PUSH2 0x1333 JUMP JUMPDEST PUSH1 0x40 MLOAD DUP1 DUP1 PUSH1 0x20 ADD DUP3 DUP2 SUB DUP3 MSTORE DUP4 DUP2 DUP2 MLOAD DUP2 MSTORE PUSH1 0x20 ADD SWAP2 POP DUP1 MLOAD SWAP1 PUSH1 0x20 ADD SWAP1 PUSH1 0x20 MUL DUP1 DUP4 DUP4 PUSH1 0x0 JUMPDEST DUP4 DUP2 LT ISZERO PUSH2 0x476 JUMPI DUP1 DUP3 ADD MLOAD DUP2 DUP5 ADD MSTORE PUSH1 0x20 DUP2 ADD SWAP1 POP PUSH2 0x45B JUMP JUMPDEST POP POP POP POP SWAP1 POP ADD SWAP3 POP POP POP PUSH1 0x40 MLOAD DUP1 SWAP2 SUB SWAP1 RETURN JUMPDEST CALLVALUE DUP1 ISZERO PUSH2 0x496 JUMPI PUSH1 0x0 DUP1 REVERT JUMPDEST POP PUSH2 0x4C3 PUSH1 0x4 DUP1 CALLDATASIZE SUB PUSH1 0x20 DUP2 LT ISZERO PUSH2 0x4AD JUMPI PUSH1 0x0 DUP1 REVERT JUMPDEST DUP2 ADD SWAP1 DUP1 DUP1 CALLDATALOAD SWAP1 PUSH1 0x20 ADD SWAP1 SWAP3 SWAP2 SWAP1 POP POP POP PUSH2 0x13C1 JUMP JUMPDEST PUSH1 0x40 MLOAD DUP1 DUP3 ISZERO ISZERO ISZERO ISZERO DUP2 MSTORE PUSH1 0x20 ADD SWAP2 POP POP PUSH1 0x40 MLOAD DUP1 SWAP2 SUB SWAP1 RETURN JUMPDEST CALLVALUE DUP1 ISZERO PUSH2 0x4E9 JUMPI PUSH1 0x0 DUP1 REVERT JUMPDEST POP PUSH2 0x552 PUSH1 0x4 DUP1 CALLDATASIZE SUB PUSH1 0xC0 DUP2 LT ISZERO PUSH2 0x500 JUMPI PUSH1 0x0 DUP1 REVERT JUMPDEST DUP2 ADD SWAP1 DUP1 DUP1 CALLDATALOAD SWAP1 PUSH1 0x20 ADD SWAP1 SWAP3 SWAP2 SWAP1 DUP1 CALLDATALOAD ISZERO ISZERO SWAP1 PUSH1 0x20 ADD SWAP1 SWAP3 SWAP2 SWAP1 DUP1 CALLDATALOAD ISZERO ISZERO SWAP1 PUSH1 0x20 ADD SWAP1 SWAP3 SWAP2 SWAP1 DUP1 CALLDATALOAD ISZERO ISZERO SWAP1 PUSH1 0x20 ADD SWAP1 SWAP3 SWAP2 SWAP1 DUP1 CALLDATALOAD ISZERO ISZERO SWAP1 PUSH1 0x20 ADD SWAP1 SWAP3 SWAP2 SWAP1 DUP1 CALLDATALOAD ISZERO ISZERO SWAP1 PUSH1 0x20 ADD SWAP1 SWAP3 SWAP2 SWAP1 POP POP POP PUSH2 0x13EB JUMP JUMPDEST STOP JUMPDEST CALLVALUE DUP1 ISZERO PUSH2 0x560 JUMPI PUSH1 0x0 DUP1 REVERT JUMPDEST POP PUSH2 0x569 PUSH2 0x16AC JUMP JUMPDEST PUSH1 0x40 MLOAD DUP1 DUP3 DUP2 MSTORE PUSH1 0x20 ADD SWAP2 POP POP PUSH1 0x40 MLOAD DUP1 SWAP2 SUB SWAP1 RETURN JUMPDEST CALLVALUE DUP1 ISZERO PUSH2 0x58B JUMPI PUSH1 0x0 DUP1 REVERT JUMPDEST POP PUSH2 0x5CE PUSH1 0x4 DUP1 CALLDATASIZE SUB PUSH1 0x20 DUP2 LT ISZERO PUSH2 0x5A2 JUMPI PUSH1 0x0 DUP1 REVERT JUMPDEST DUP2 ADD SWAP1 DUP1 DUP1 CALLDATALOAD PUSH20 0xFFFFFFFFFFFFFFFFFFFFFFFFFFFFFFFFFFFFFFFF AND SWAP1 PUSH1 0x20 ADD SWAP1 SWAP3 SWAP2 SWAP1 POP POP POP PUSH2 0x16B6 JUMP JUMPDEST STOP JUMPDEST CALLVALUE DUP1 ISZERO PUSH2 0x5DC JUMPI PUSH1 0x0 DUP1 REVERT JUMPDEST POP PUSH2 0x61F PUSH1 0x4 DUP1 CALLDATASIZE SUB PUSH1 0x20 DUP2 LT ISZERO PUSH2 0x5F3 JUMPI PUSH1 0x0 DUP1 REVERT JUMPDEST DUP2 ADD SWAP1 DUP1 DUP1 CALLDATALOAD PUSH20 0xFFFFFFFFFFFFFFFFFFFFFFFFFFFFFFFFFFFFFFFF AND SWAP1 PUSH1 0x20 ADD SWAP1 SWAP3 SWAP2 SWAP1 POP POP POP PUSH2 0x187F JUMP JUMPDEST STOP JUMPDEST CALLVALUE DUP1 ISZERO PUSH2 0x62D JUMPI PUSH1 0x0 DUP1 REVERT JUMPDEST POP PUSH2 0x6CF PUSH1 0x4 DUP1 CALLDATASIZE SUB PUSH1 0x60 DUP2 LT ISZERO PUSH2 0x644 JUMPI PUSH1 0x0 DUP1 REVERT JUMPDEST DUP2 ADD SWAP1 DUP1 DUP1 CALLDATALOAD SWAP1 PUSH1 0x20 ADD SWAP1 SWAP3 SWAP2 SWAP1 DUP1 CALLDATALOAD PUSH20 0xFFFFFFFFFFFFFFFFFFFFFFFFFFFFFFFFFFFFFFFF AND SWAP1 PUSH1 0x20 ADD SWAP1 SWAP3 SWAP2 SWAP1 DUP1 CALLDATALOAD SWAP1 PUSH1 0x20 ADD SWAP1 PUSH5 0x100000000 DUP2 GT ISZERO PUSH2 0x68B JUMPI PUSH1 0x0 DUP1 REVERT JUMPDEST DUP3 ADD DUP4 PUSH1 0x20 DUP3 ADD GT ISZERO PUSH2 0x69D JUMPI PUSH1 0x0 DUP1 REVERT JUMPDEST DUP1 CALLDATALOAD SWAP1 PUSH1 0x20 ADD SWAP2 DUP5 PUSH1 0x1 DUP4 MUL DUP5 ADD GT PUSH5 0x100000000 DUP4 GT OR ISZERO PUSH2 0x6BF JUMPI PUSH1 0x0 DUP1 REVERT JUMPDEST SWAP1 SWAP2 SWAP3 SWAP4 SWAP2 SWAP3 SWAP4 SWAP1 POP POP POP PUSH2 0x19CC JUMP JUMPDEST STOP JUMPDEST CALLVALUE DUP1 ISZERO PUSH2 0x6DD JUMPI PUSH1 0x0 DUP1 REVERT JUMPDEST POP PUSH2 0x70A PUSH1 0x4 DUP1 CALLDATASIZE SUB PUSH1 0x20 DUP2 LT ISZERO PUSH2 0x6F4 JUMPI PUSH1 0x0 DUP1 REVERT JUMPDEST DUP2 ADD SWAP1 DUP1 DUP1 CALLDATALOAD SWAP1 PUSH1 0x20 ADD SWAP1 SWAP3 SWAP2 SWAP1 POP POP POP PUSH2 0x1A47 JUMP JUMPDEST PUSH1 0x40 MLOAD DUP1 DUP3 PUSH1 0x1 DUP2 GT ISZERO PUSH2 0x71A JUMPI INVALID JUMPDEST PUSH1 0xFF AND DUP2 MSTORE PUSH1 0x20 ADD SWAP2 POP POP PUSH1 0x40 MLOAD DUP1 SWAP2 SUB SWAP1 RETURN JUMPDEST PUSH1 0x0 DUP1 DUP1 SLOAD SWAP1 POP PUSH1 0xA SLOAD DUP2 PUSH2 0x73F JUMPI INVALID JUMPDEST DIV SWAP1 POP PUSH1 0x0 DUP1 SWAP1 POP JUMPDEST PUSH1 0x0 DUP1 SLOAD SWAP1 POP DUP2 LT ISZERO PUSH2 0x7E5 JUMPI PUSH1 0x0 DUP1 DUP3 DUP2 SLOAD DUP2 LT PUSH2 0x763 JUMPI INVALID JUMPDEST SWAP1 PUSH1 0x0 MSTORE PUSH1 0x20 PUSH1 0x0 KECCAK256 ADD PUSH1 0x0 SWAP1 SLOAD SWAP1 PUSH2 0x100 EXP SWAP1 DIV PUSH20 0xFFFFFFFFFFFFFFFFFFFFFFFFFFFFFFFFFFFFFFFF AND SWAP1 POP DUP1 PUSH20 0xFFFFFFFFFFFFFFFFFFFFFFFFFFFFFFFFFFFFFFFF AND PUSH2 0x8FC DUP5 SWAP1 DUP2 ISZERO MUL SWAP1 PUSH1 0x40 MLOAD PUSH1 0x0 PUSH1 0x40 MLOAD DUP1 DUP4 SUB DUP2 DUP6 DUP9 DUP9 CALL SWAP4 POP POP POP POP ISZERO DUP1 ISZERO PUSH2 0x7D6 JUMPI RETURNDATASIZE PUSH1 0x0 DUP1 RETURNDATACOPY RETURNDATASIZE PUSH1 0x0 REVERT JUMPDEST POP POP DUP1 DUP1 PUSH1 0x1 ADD SWAP2 POP POP PUSH2 0x748 JUMP JUMPDEST POP POP JUMP JUMPDEST PUSH1 0xB PUSH1 0x0 SWAP1 SLOAD SWAP1 PUSH2 0x100 EXP SWAP1 DIV PUSH20 0xFFFFFFFFFFFFFFFFFFFFFFFFFFFFFFFFFFFFFFFF AND PUSH20 0xFFFFFFFFFFFFFFFFFFFFFFFFFFFFFFFFFFFFFFFF AND CALLER PUSH20 0xFFFFFFFFFFFFFFFFFFFFFFFFFFFFFFFFFFFFFFFF AND EQ PUSH2 0x88F JUMPI PUSH1 0x40 MLOAD PUSH32 0x8C379A000000000000000000000000000000000000000000000000000000000 DUP2 MSTORE PUSH1 0x4 ADD DUP1 DUP1 PUSH1 0x20 ADD DUP3 DUP2 SUB DUP3 MSTORE PUSH1 0x24 DUP2 MSTORE PUSH1 0x20 ADD DUP1 PUSH2 0x1B17 PUSH1 0x24 SWAP2 CODECOPY PUSH1 0x40 ADD SWAP2 POP POP PUSH1 0x40 MLOAD DUP1 SWAP2 SUB SWAP1 REVERT JUMPDEST PUSH1 0x0 PUSH1 0x1 DUP2 GT ISZERO PUSH2 0x89C JUMPI INVALID JUMPDEST PUSH1 0xD PUSH1 0x0 DUP5 DUP2 MSTORE PUSH1 0x20 ADD SWAP1 DUP2 MSTORE PUSH1 0x20 ADD PUSH1 0x0 KECCAK256 PUSH1 0x0 SWAP1 SLOAD SWAP1 PUSH2 0x100 EXP SWAP1 DIV PUSH1 0xFF AND PUSH1 0x1 DUP2 GT ISZERO PUSH2 0x8C8 JUMPI INVALID JUMPDEST EQ PUSH2 0x93B JUMPI PUSH1 0x40 MLOAD PUSH32 0x8C379A000000000000000000000000000000000000000000000000000000000 DUP2 MSTORE PUSH1 0x4 ADD DUP1 DUP1 PUSH1 0x20 ADD DUP3 DUP2 SUB DUP3 MSTORE PUSH1 0x10 DUP2 MSTORE PUSH1 0x20 ADD DUP1 PUSH32 0x566F7465206973206E6F74206F70656E00000000000000000000000000000000 DUP2 MSTORE POP PUSH1 0x20 ADD SWAP2 POP POP PUSH1 0x40 MLOAD DUP1 SWAP2 SUB SWAP1 REVERT JUMPDEST DUP1 PUSH1 0x5 PUSH1 0x0 DUP5 DUP2 MSTORE PUSH1 0x20 ADD SWAP1 DUP2 MSTORE PUSH1 0x20 ADD PUSH1 0x0 KECCAK256 SLOAD LT PUSH2 0xA55 JUMPI PUSH1 0x1 PUSH1 0x8 PUSH1 0x0 DUP5 DUP2 MSTORE PUSH1 0x20 ADD SWAP1 DUP2 MSTORE PUSH1 0x20 ADD PUSH1 0x0 KECCAK256 PUSH1 0x0 PUSH2 0x100 EXP DUP2 SLOAD DUP2 PUSH1 0xFF MUL NOT AND SWAP1 DUP4 ISZERO ISZERO MUL OR SWAP1 SSTORE POP PUSH32 0x91EEC35515CE2F09D0F16EBEBEAD73EA64A7635644B4EA017F35590C38FB25F6 DUP3 PUSH1 0x5 PUSH1 0x0 DUP6 DUP2 MSTORE PUSH1 0x20 ADD SWAP1 DUP2 MSTORE PUSH1 0x20 ADD PUSH1 0x0 KECCAK256 SLOAD DUP4 PUSH1 0x40 MLOAD DUP1 DUP1 PUSH1 0x20 ADD DUP6 DUP2 MSTORE PUSH1 0x20 ADD DUP5 DUP2 MSTORE PUSH1 0x20 ADD DUP4 DUP2 MSTORE PUSH1 0x20 ADD DUP3 DUP2 SUB DUP3 MSTORE PUSH1 0x8 DUP2 MSTORE PUSH1 0x20 ADD DUP1 PUSH32 0x4163636570746564000000000000000000000000000000000000000000000000 DUP2 MSTORE POP PUSH1 0x20 ADD SWAP5 POP POP POP POP POP PUSH1 0x40 MLOAD DUP1 SWAP2 SUB SWAP1 LOG1 PUSH2 0xA50 PUSH1 0x2 PUSH1 0x0 DUP5 DUP2 MSTORE PUSH1 0x20 ADD SWAP1 DUP2 MSTORE PUSH1 0x20 ADD PUSH1 0x0 KECCAK256 PUSH1 0x0 SWAP1 SLOAD SWAP1 PUSH2 0x100 EXP SWAP1 DIV PUSH20 0xFFFFFFFFFFFFFFFFFFFFFFFFFFFFFFFFFFFFFFFF AND PUSH2 0x16B6 JUMP JUMPDEST PUSH2 0xB05 JUMP JUMPDEST DUP1 PUSH1 0x5 PUSH1 0x0 DUP5 DUP2 MSTORE PUSH1 0x20 ADD SWAP1 DUP2 MSTORE PUSH1 0x20 ADD PUSH1 0x0 KECCAK256 SLOAD LT ISZERO PUSH2 0xB04 JUMPI PUSH32 0x91EEC35515CE2F09D0F16EBEBEAD73EA64A7635644B4EA017F35590C38FB25F6 DUP3 PUSH1 0x5 PUSH1 0x0 DUP6 DUP2 MSTORE PUSH1 0x20 ADD SWAP1 DUP2 MSTORE PUSH1 0x20 ADD PUSH1 0x0 KECCAK256 SLOAD DUP4 PUSH1 0x40 MLOAD DUP1 DUP1 PUSH1 0x20 ADD DUP6 DUP2 MSTORE PUSH1 0x20 ADD DUP5 DUP2 MSTORE PUSH1 0x20 ADD DUP4 DUP2 MSTORE PUSH1 0x20 ADD DUP3 DUP2 SUB DUP3 MSTORE PUSH1 0xC DUP2 MSTORE PUSH1 0x20 ADD DUP1 PUSH32 0x4E6F742061636365707465640000000000000000000000000000000000000000 DUP2 MSTORE POP PUSH1 0x20 ADD SWAP5 POP POP POP POP POP PUSH1 0x40 MLOAD DUP1 SWAP2 SUB SWAP1 LOG1 JUMPDEST JUMPDEST PUSH1 0x1 PUSH1 0x9 PUSH1 0x0 DUP5 DUP2 MSTORE PUSH1 0x20 ADD SWAP1 DUP2 MSTORE PUSH1 0x20 ADD PUSH1 0x0 KECCAK256 PUSH1 0x0 PUSH2 0x100 EXP DUP2 SLOAD DUP2 PUSH1 0xFF MUL NOT AND SWAP1 DUP4 ISZERO ISZERO MUL OR SWAP1 SSTORE POP PUSH32 0x4FA16F02E5D98E5D0859E515CB1BC8E3D3F14743EB623E2F685362B7D3F70D0A DUP3 NUMBER PUSH1 0x40 MLOAD DUP1 DUP4 DUP2 MSTORE PUSH1 0x20 ADD DUP3 DUP2 MSTORE PUSH1 0x20 ADD SWAP3 POP POP POP PUSH1 0x40 MLOAD DUP1 SWAP2 SUB SWAP1 LOG1 POP POP JUMP JUMPDEST PUSH1 0x60 PUSH1 0x3 PUSH1 0x0 DUP4 DUP2 MSTORE PUSH1 0x20 ADD SWAP1 DUP2 MSTORE PUSH1 0x20 ADD PUSH1 0x0 KECCAK256 DUP1 SLOAD PUSH1 0x1 DUP2 PUSH1 0x1 AND ISZERO PUSH2 0x100 MUL SUB AND PUSH1 0x2 SWAP1 DIV DUP1 PUSH1 0x1F ADD PUSH1 0x20 DUP1 SWAP2 DIV MUL PUSH1 0x20 ADD PUSH1 0x40 MLOAD SWAP1 DUP2 ADD PUSH1 0x40 MSTORE DUP1 SWAP3 SWAP2 SWAP1 DUP2 DUP2 MSTORE PUSH1 0x20 ADD DUP3 DUP1 SLOAD PUSH1 0x1 DUP2 PUSH1 0x1 AND ISZERO PUSH2 0x100 MUL SUB AND PUSH1 0x2 SWAP1 DIV DUP1 ISZERO PUSH2 0xC1D JUMPI DUP1 PUSH1 0x1F LT PUSH2 0xBF2 JUMPI PUSH2 0x100 DUP1 DUP4 SLOAD DIV MUL DUP4 MSTORE SWAP2 PUSH1 0x20 ADD SWAP2 PUSH2 0xC1D JUMP JUMPDEST DUP3 ADD SWAP2 SWAP1 PUSH1 0x0 MSTORE PUSH1 0x20 PUSH1 0x0 KECCAK256 SWAP1 JUMPDEST DUP2 SLOAD DUP2 MSTORE SWAP1 PUSH1 0x1 ADD SWAP1 PUSH1 0x20 ADD DUP1 DUP4 GT PUSH2 0xC00 JUMPI DUP3 SWAP1 SUB PUSH1 0x1F AND DUP3 ADD SWAP2 JUMPDEST POP POP POP POP POP SWAP1 POP SWAP2 SWAP1 POP JUMP JUMPDEST PUSH1 0x0 PUSH1 0xC SLOAD SWAP1 POP SWAP1 JUMP JUMPDEST PUSH1 0xB PUSH1 0x0 SWAP1 SLOAD SWAP1 PUSH2 0x100 EXP SWAP1 DIV PUSH20 0xFFFFFFFFFFFFFFFFFFFFFFFFFFFFFFFFFFFFFFFF AND PUSH20 0xFFFFFFFFFFFFFFFFFFFFFFFFFFFFFFFFFFFFFFFF AND CALLER PUSH20 0xFFFFFFFFFFFFFFFFFFFFFFFFFFFFFFFFFFFFFFFF AND EQ PUSH2 0xCD9 JUMPI PUSH1 0x40 MLOAD PUSH32 0x8C379A000000000000000000000000000000000000000000000000000000000 DUP2 MSTORE PUSH1 0x4 ADD DUP1 DUP1 PUSH1 0x20 ADD DUP3 DUP2 SUB DUP3 MSTORE PUSH1 0x24 DUP2 MSTORE PUSH1 0x20 ADD DUP1 PUSH2 0x1B17 PUSH1 0x24 SWAP2 CODECOPY PUSH1 0x40 ADD SWAP2 POP POP PUSH1 0x40 MLOAD DUP1 SWAP2 SUB SWAP1 REVERT JUMPDEST DUP1 PUSH1 0xA DUP2 SWAP1 SSTORE POP POP JUMP JUMPDEST PUSH1 0x0 PUSH1 0xB PUSH1 0x0 SWAP1 SLOAD SWAP1 PUSH2 0x100 EXP SWAP1 DIV PUSH20 0xFFFFFFFFFFFFFFFFFFFFFFFFFFFFFFFFFFFFFFFF AND SWAP1 POP SWAP1 JUMP JUMPDEST PUSH1 0xB PUSH1 0x0 SWAP1 SLOAD SWAP1 PUSH2 0x100 EXP SWAP1 DIV PUSH20 0xFFFFFFFFFFFFFFFFFFFFFFFFFFFFFFFFFFFFFFFF AND PUSH20 0xFFFFFFFFFFFFFFFFFFFFFFFFFFFFFFFFFFFFFFFF AND CALLER PUSH20 0xFFFFFFFFFFFFFFFFFFFFFFFFFFFFFFFFFFFFFFFF AND EQ PUSH2 0xDB3 JUMPI PUSH1 0x40 MLOAD PUSH32 0x8C379A000000000000000000000000000000000000000000000000000000000 DUP2 MSTORE PUSH1 0x4 ADD DUP1 DUP1 PUSH1 0x20 ADD DUP3 DUP2 SUB DUP3 MSTORE PUSH1 0x24 DUP2 MSTORE PUSH1 0x20 ADD DUP1 PUSH2 0x1B17 PUSH1 0x24 SWAP2 CODECOPY PUSH1 0x40 ADD SWAP2 POP POP PUSH1 0x40 MLOAD DUP1 SWAP2 SUB SWAP1 REVERT JUMPDEST DUP1 PUSH1 0xC DUP2 SWAP1 SSTORE POP POP JUMP JUMPDEST PUSH1 0xB PUSH1 0x0 SWAP1 SLOAD SWAP1 PUSH2 0x100 EXP SWAP1 DIV PUSH20 0xFFFFFFFFFFFFFFFFFFFFFFFFFFFFFFFFFFFFFFFF AND PUSH20 0xFFFFFFFFFFFFFFFFFFFFFFFFFFFFFFFFFFFFFFFF AND CALLER PUSH20 0xFFFFFFFFFFFFFFFFFFFFFFFFFFFFFFFFFFFFFFFF AND EQ PUSH2 0xE63 JUMPI PUSH1 0x40 MLOAD PUSH32 0x8C379A000000000000000000000000000000000000000000000000000000000 DUP2 MSTORE PUSH1 0x4 ADD DUP1 DUP1 PUSH1 0x20 ADD DUP3 DUP2 SUB DUP3 MSTORE PUSH1 0x24 DUP2 MSTORE PUSH1 0x20 ADD DUP1 PUSH2 0x1B17 PUSH1 0x24 SWAP2 CODECOPY PUSH1 0x40 ADD SWAP2 POP POP PUSH1 0x40 MLOAD DUP1 SWAP2 SUB SWAP1 REVERT JUMPDEST PUSH1 0x1 DUP1 DUP2 GT ISZERO PUSH2 0xE6F JUMPI INVALID JUMPDEST PUSH1 0x6 PUSH1 0x0 DUP4 DUP2 MSTORE PUSH1 0x20 ADD SWAP1 DUP2 MSTORE PUSH1 0x20 ADD PUSH1 0x0 KECCAK256 PUSH1 0x0 SWAP1 SLOAD SWAP1 PUSH2 0x100 EXP SWAP1 DIV PUSH1 0xFF AND PUSH1 0x1 DUP2 GT ISZERO PUSH2 0xE9B JUMPI INVALID JUMPDEST EQ PUSH2 0xEF1 JUMPI PUSH1 0x40 MLOAD PUSH32 0x8C379A000000000000000000000000000000000000000000000000000000000 DUP2 MSTORE PUSH1 0x4 ADD DUP1 DUP1 PUSH1 0x20 ADD DUP3 DUP2 SUB DUP3 MSTORE PUSH1 0x23 DUP2 MSTORE PUSH1 0x20 ADD DUP1 PUSH2 0x1B3B PUSH1 0x23 SWAP2 CODECOPY PUSH1 0x40 ADD SWAP2 POP POP PUSH1 0x40 MLOAD DUP1 SWAP2 SUB SWAP1 REVERT JUMPDEST PUSH1 0x0 PUSH1 0x6 PUSH1 0x0 DUP4 DUP2 MSTORE PUSH1 0x20 ADD SWAP1 DUP2 MSTORE PUSH1 0x20 ADD PUSH1 0x0 KECCAK256 PUSH1 0x0 PUSH2 0x100 EXP DUP2 SLOAD DUP2 PUSH1 0xFF MUL NOT AND SWAP1 DUP4 PUSH1 0x1 DUP2 GT ISZERO PUSH2 0xF21 JUMPI INVALID JUMPDEST MUL OR SWAP1 SSTORE POP NUMBER PUSH1 0x7 PUSH1 0x0 DUP4 DUP2 MSTORE PUSH1 0x20 ADD SWAP1 DUP2 MSTORE PUSH1 0x20 ADD PUSH1 0x0 KECCAK256 DUP2 SWAP1 SSTORE POP PUSH32 0x32689D92C1683D1FF87DA49B2DB81410842EED93AFCD24C7CEE6DBEF24BA4A15 DUP2 NUMBER PUSH1 0x40 MLOAD DUP1 DUP4 DUP2 MSTORE PUSH1 0x20 ADD DUP3 DUP2 MSTORE PUSH1 0x20 ADD SWAP3 POP POP POP PUSH1 0x40 MLOAD DUP1 SWAP2 SUB SWAP1 LOG1 POP JUMP JUMPDEST PUSH1 0x0 PUSH1 0xC SLOAD SWAP1 POP SWAP1 JUMP JUMPDEST PUSH1 0xB PUSH1 0x0 SWAP1 SLOAD SWAP1 PUSH2 0x100 EXP SWAP1 DIV PUSH20 0xFFFFFFFFFFFFFFFFFFFFFFFFFFFFFFFFFFFFFFFF AND PUSH20 0xFFFFFFFFFFFFFFFFFFFFFFFFFFFFFFFFFFFFFFFF AND CALLER PUSH20 0xFFFFFFFFFFFFFFFFFFFFFFFFFFFFFFFFFFFFFFFF AND EQ PUSH2 0x1030 JUMPI PUSH1 0x40 MLOAD PUSH32 0x8C379A000000000000000000000000000000000000000000000000000000000 DUP2 MSTORE PUSH1 0x4 ADD DUP1 DUP1 PUSH1 0x20 ADD DUP3 DUP2 SUB DUP3 MSTORE PUSH1 0x24 DUP2 MSTORE PUSH1 0x20 ADD DUP1 PUSH2 0x1B17 PUSH1 0x24 SWAP2 CODECOPY PUSH1 0x40 ADD SWAP2 POP POP PUSH1 0x40 MLOAD DUP1 SWAP2 SUB SWAP1 REVERT JUMPDEST PUSH1 0x1 PUSH1 0x0 DUP3 PUSH20 0xFFFFFFFFFFFFFFFFFFFFFFFFFFFFFFFFFFFFFFFF AND PUSH20 0xFFFFFFFFFFFFFFFFFFFFFFFFFFFFFFFFFFFFFFFF AND DUP2 MSTORE PUSH1 0x20 ADD SWAP1 DUP2 MSTORE PUSH1 0x20 ADD PUSH1 0x0 KECCAK256 PUSH1 0x0 SWAP1 SLOAD SWAP1 PUSH2 0x100 EXP SWAP1 DIV PUSH1 0xFF AND PUSH2 0x10D2 JUMPI PUSH1 0x40 MLOAD PUSH32 0x8C379A000000000000000000000000000000000000000000000000000000000 DUP2 MSTORE PUSH1 0x4 ADD DUP1 DUP1 PUSH1 0x20 ADD DUP3 DUP2 SUB DUP3 MSTORE PUSH1 0x26 DUP2 MSTORE PUSH1 0x20 ADD DUP1 PUSH2 0x1B5E PUSH1 0x26 SWAP2 CODECOPY PUSH1 0x40 ADD SWAP2 POP POP PUSH1 0x40 MLOAD DUP1 SWAP2 SUB SWAP1 REVERT JUMPDEST PUSH1 0x0 DUP1 DUP1 SLOAD SWAP1 POP GT PUSH2 0x114C JUMPI PUSH1 0x40 MLOAD PUSH32 0x8C379A000000000000000000000000000000000000000000000000000000000 DUP2 MSTORE PUSH1 0x4 ADD DUP1 DUP1 PUSH1 0x20 ADD DUP3 DUP2 SUB DUP3 MSTORE PUSH1 0x11 DUP2 MSTORE PUSH1 0x20 ADD DUP1 PUSH32 0x436F6D6D6974656520697320656D707479000000000000000000000000000000 DUP2 MSTORE POP PUSH1 0x20 ADD SWAP2 POP POP PUSH1 0x40 MLOAD DUP1 SWAP2 SUB SWAP1 REVERT JUMPDEST PUSH1 0x0 PUSH1 0x1 PUSH1 0x0 DUP4 PUSH20 0xFFFFFFFFFFFFFFFFFFFFFFFFFFFFFFFFFFFFFFFF AND PUSH20 0xFFFFFFFFFFFFFFFFFFFFFFFFFFFFFFFFFFFFFFFF AND DUP2 MSTORE PUSH1 0x20 ADD SWAP1 DUP2 MSTORE PUSH1 0x20 ADD PUSH1 0x0 KECCAK256 PUSH1 0x0 PUSH2 0x100 EXP DUP2 SLOAD DUP2 PUSH1 0xFF MUL NOT AND SWAP1 DUP4 ISZERO ISZERO MUL OR SWAP1 SSTORE POP PUSH1 0x0 DUP1 SWAP1 POP JUMPDEST PUSH1 0x0 DUP1 SLOAD SWAP1 POP DUP2 LT ISZERO PUSH2 0x1305 JUMPI PUSH1 0x0 DUP2 DUP2 SLOAD DUP2 LT PUSH2 0x11C4 JUMPI INVALID JUMPDEST SWAP1 PUSH1 0x0 MSTORE PUSH1 0x20 PUSH1 0x0 KECCAK256 ADD PUSH1 0x0 SWAP1 SLOAD SWAP1 PUSH2 0x100 EXP SWAP1 DIV PUSH20 0xFFFFFFFFFFFFFFFFFFFFFFFFFFFFFFFFFFFFFFFF AND PUSH20 0xFFFFFFFFFFFFFFFFFFFFFFFFFFFFFFFFFFFFFFFF AND DUP3 PUSH20 0xFFFFFFFFFFFFFFFFFFFFFFFFFFFFFFFFFFFFFFFF AND EQ ISZERO PUSH2 0x12F8 JUMPI PUSH1 0x0 PUSH1 0x1 PUSH1 0x0 DUP1 SLOAD SWAP1 POP SUB DUP2 SLOAD DUP2 LT PUSH2 0x1237 JUMPI INVALID JUMPDEST SWAP1 PUSH1 0x0 MSTORE PUSH1 0x20 PUSH1 0x0 KECCAK256 ADD PUSH1 0x0 SWAP1 SLOAD SWAP1 PUSH2 0x100 EXP SWAP1 DIV PUSH20 0xFFFFFFFFFFFFFFFFFFFFFFFFFFFFFFFFFFFFFFFF AND PUSH1 0x0 DUP3 DUP2 SLOAD DUP2 LT PUSH2 0x126F JUMPI INVALID JUMPDEST SWAP1 PUSH1 0x0 MSTORE PUSH1 0x20 PUSH1 0x0 KECCAK256 ADD PUSH1 0x0 PUSH2 0x100 EXP DUP2 SLOAD DUP2 PUSH20 0xFFFFFFFFFFFFFFFFFFFFFFFFFFFFFFFFFFFFFFFF MUL NOT AND SWAP1 DUP4 PUSH20 0xFFFFFFFFFFFFFFFFFFFFFFFFFFFFFFFFFFFFFFFF AND MUL OR SWAP1 SSTORE POP PUSH1 0x0 DUP1 SLOAD DUP1 PUSH2 0x12C2 JUMPI INVALID JUMPDEST PUSH1 0x1 SWAP1 SUB DUP2 DUP2 SWAP1 PUSH1 0x0 MSTORE PUSH1 0x20 PUSH1 0x0 KECCAK256 ADD PUSH1 0x0 PUSH2 0x100 EXP DUP2 SLOAD SWAP1 PUSH20 0xFFFFFFFFFFFFFFFFFFFFFFFFFFFFFFFFFFFFFFFF MUL NOT AND SWAP1 SSTORE SWAP1 SSTORE JUMPDEST DUP1 DUP1 PUSH1 0x1 ADD SWAP2 POP POP PUSH2 0x11AA JUMP JUMPDEST POP POP JUMP JUMPDEST PUSH1 0x0 PUSH1 0x8 PUSH1 0x0 DUP4 DUP2 MSTORE PUSH1 0x20 ADD SWAP1 DUP2 MSTORE PUSH1 0x20 ADD PUSH1 0x0 KECCAK256 PUSH1 0x0 SWAP1 SLOAD SWAP1 PUSH2 0x100 EXP SWAP1 DIV PUSH1 0xFF AND SWAP1 POP SWAP2 SWAP1 POP JUMP JUMPDEST PUSH1 0x60 PUSH1 0x0 DUP1 SLOAD DUP1 PUSH1 0x20 MUL PUSH1 0x20 ADD PUSH1 0x40 MLOAD SWAP1 DUP2 ADD PUSH1 0x40 MSTORE DUP1 SWAP3 SWAP2 SWAP1 DUP2 DUP2 MSTORE PUSH1 0x20 ADD DUP3 DUP1 SLOAD DUP1 ISZERO PUSH2 0x13B7 JUMPI PUSH1 0x20 MUL DUP3 ADD SWAP2 SWAP1 PUSH1 0x0 MSTORE PUSH1 0x20 PUSH1 0x0 KECCAK256 SWAP1 JUMPDEST DUP2 PUSH1 0x0 SWAP1 SLOAD SWAP1 PUSH2 0x100 EXP SWAP1 DIV PUSH20 0xFFFFFFFFFFFFFFFFFFFFFFFFFFFFFFFFFFFFFFFF AND PUSH20 0xFFFFFFFFFFFFFFFFFFFFFFFFFFFFFFFFFFFFFFFF AND DUP2 MSTORE PUSH1 0x20 ADD SWAP1 PUSH1 0x1 ADD SWAP1 DUP1 DUP4 GT PUSH2 0x136D JUMPI JUMPDEST POP POP POP POP POP SWAP1 POP SWAP1 JUMP JUMPDEST PUSH1 0x0 PUSH1 0x9 PUSH1 0x0 DUP4 DUP2 MSTORE PUSH1 0x20 ADD SWAP1 DUP2 MSTORE PUSH1 0x20 ADD PUSH1 0x0 KECCAK256 PUSH1 0x0 SWAP1 SLOAD SWAP1 PUSH2 0x100 EXP SWAP1 DIV PUSH1 0xFF AND SWAP1 POP SWAP2 SWAP1 POP JUMP JUMPDEST PUSH1 0x1 PUSH1 0x0 CALLER PUSH20 0xFFFFFFFFFFFFFFFFFFFFFFFFFFFFFFFFFFFFFFFF AND PUSH20 0xFFFFFFFFFFFFFFFFFFFFFFFFFFFFFFFFFFFFFFFF AND DUP2 MSTORE PUSH1 0x20 ADD SWAP1 DUP2 MSTORE PUSH1 0x20 ADD PUSH1 0x0 KECCAK256 PUSH1 0x0 SWAP1 SLOAD SWAP1 PUSH2 0x100 EXP SWAP1 DIV PUSH1 0xFF AND PUSH2 0x14AA JUMPI PUSH1 0x40 MLOAD PUSH32 0x8C379A000000000000000000000000000000000000000000000000000000000 DUP2 MSTORE PUSH1 0x4 ADD DUP1 DUP1 PUSH1 0x20 ADD DUP3 DUP2 SUB DUP3 MSTORE PUSH1 0x1E DUP2 MSTORE PUSH1 0x20 ADD DUP1 PUSH32 0x596F7520617265206E6F74206120636F6D6D6974746565206D656D6265720000 DUP2 MSTORE POP PUSH1 0x20 ADD SWAP2 POP POP PUSH1 0x40 MLOAD DUP1 SWAP2 SUB SWAP1 REVERT JUMPDEST PUSH1 0x0 PUSH1 0x1 DUP2 GT ISZERO PUSH2 0x14B7 JUMPI INVALID JUMPDEST PUSH1 0x6 PUSH1 0x0 DUP9 DUP2 MSTORE PUSH1 0x20 ADD SWAP1 DUP2 MSTORE PUSH1 0x20 ADD PUSH1 0x0 KECCAK256 PUSH1 0x0 SWAP1 SLOAD SWAP1 PUSH2 0x100 EXP SWAP1 DIV PUSH1 0xFF AND PUSH1 0x1 DUP2 GT ISZERO PUSH2 0x14E3 JUMPI INVALID JUMPDEST EQ PUSH2 0x1556 JUMPI PUSH1 0x40 MLOAD PUSH32 0x8C379A000000000000000000000000000000000000000000000000000000000 DUP2 MSTORE PUSH1 0x4 ADD DUP1 DUP1 PUSH1 0x20 ADD DUP3 DUP2 SUB DUP3 MSTORE PUSH1 0x1D DUP2 MSTORE PUSH1 0x20 ADD DUP1 PUSH32 0x6170706C6963616E74206E6F74206F70656E20666F7220766F74696E67000000 DUP2 MSTORE POP PUSH1 0x20 ADD SWAP2 POP POP PUSH1 0x40 MLOAD DUP1 SWAP2 SUB SWAP1 REVERT JUMPDEST PUSH1 0x1 PUSH1 0x4 PUSH1 0x0 CALLER PUSH20 0xFFFFFFFFFFFFFFFFFFFFFFFFFFFFFFFFFFFFFFFF AND PUSH20 0xFFFFFFFFFFFFFFFFFFFFFFFFFFFFFFFFFFFFFFFF AND DUP2 MSTORE PUSH1 0x20 ADD SWAP1 DUP2 MSTORE PUSH1 0x20 ADD PUSH1 0x0 KECCAK256 PUSH1 0x0 DUP9 DUP2 MSTORE PUSH1 0x20 ADD SWAP1 DUP2 MSTORE PUSH1 0x20 ADD PUSH1 0x0 KECCAK256 PUSH1 0x0 PUSH2 0x100 EXP DUP2 SLOAD DUP2 PUSH1 0xFF MUL NOT AND SWAP1 DUP4 ISZERO ISZERO MUL OR SWAP1 SSTORE POP PUSH1 0x0 DUP1 SWAP1 POP DUP6 ISZERO PUSH2 0x15D3 JUMPI DUP1 DUP1 PUSH1 0x1 ADD SWAP2 POP POP JUMPDEST DUP5 ISZERO PUSH2 0x15E2 JUMPI DUP1 DUP1 PUSH1 0x1 ADD SWAP2 POP POP JUMPDEST DUP4 ISZERO PUSH2 0x15F1 JUMPI DUP1 DUP1 PUSH1 0x1 ADD SWAP2 POP POP JUMPDEST DUP3 ISZERO PUSH2 0x1600 JUMPI DUP1 DUP1 PUSH1 0x1 ADD SWAP2 POP POP JUMPDEST DUP2 ISZERO PUSH2 0x160F JUMPI DUP1 DUP1 PUSH1 0x1 ADD SWAP2 POP POP JUMPDEST DUP1 PUSH1 0x5 PUSH1 0x0 DUP10 DUP2 MSTORE PUSH1 0x20 ADD SWAP1 DUP2 MSTORE PUSH1 0x20 ADD PUSH1 0x0 KECCAK256 PUSH1 0x0 DUP3 DUP3 SLOAD ADD SWAP3 POP POP DUP2 SWAP1 SSTORE POP PUSH32 0xB091FE3FF5BCC354914AB49469D6FEBEEEC7AD0134E4F94BB8C834DA0C391C9F CALLER DUP9 DUP4 PUSH1 0x40 MLOAD DUP1 DUP5 PUSH20 0xFFFFFFFFFFFFFFFFFFFFFFFFFFFFFFFFFFFFFFFF AND PUSH20 0xFFFFFFFFFFFFFFFFFFFFFFFFFFFFFFFFFFFFFFFF AND DUP2 MSTORE PUSH1 0x20 ADD DUP4 DUP2 MSTORE PUSH1 0x20 ADD DUP3 DUP2 MSTORE PUSH1 0x20 ADD SWAP4 POP POP POP POP PUSH1 0x40 MLOAD DUP1 SWAP2 SUB SWAP1 LOG1 POP POP POP POP POP POP POP JUMP JUMPDEST PUSH1 0x0 PUSH1 0xA SLOAD SWAP1 POP SWAP1 JUMP JUMPDEST PUSH1 0xB PUSH1 0x0 SWAP1 SLOAD SWAP1 PUSH2 0x100 EXP SWAP1 DIV PUSH20 0xFFFFFFFFFFFFFFFFFFFFFFFFFFFFFFFFFFFFFFFF AND PUSH20 0xFFFFFFFFFFFFFFFFFFFFFFFFFFFFFFFFFFFFFFFF AND CALLER PUSH20 0xFFFFFFFFFFFFFFFFFFFFFFFFFFFFFFFFFFFFFFFF AND EQ PUSH2 0x175C JUMPI PUSH1 0x40 MLOAD PUSH32 0x8C379A000000000000000000000000000000000000000000000000000000000 DUP2 MSTORE PUSH1 0x4 ADD DUP1 DUP1 PUSH1 0x20 ADD DUP3 DUP2 SUB DUP3 MSTORE PUSH1 0x24 DUP2 MSTORE PUSH1 0x20 ADD DUP1 PUSH2 0x1B17 PUSH1 0x24 SWAP2 CODECOPY PUSH1 0x40 ADD SWAP2 POP POP PUSH1 0x40 MLOAD DUP1 SWAP2 SUB SWAP1 REVERT JUMPDEST PUSH1 0x0 DUP2 SWAP1 DUP1 PUSH1 0x1 DUP2 SLOAD ADD DUP1 DUP3 SSTORE DUP1 SWAP2 POP POP SWAP1 PUSH1 0x1 DUP3 SUB SWAP1 PUSH1 0x0 MSTORE PUSH1 0x20 PUSH1 0x0 KECCAK256 ADD PUSH1 0x0 SWAP1 SWAP2 SWAP3 SWAP1 SWAP2 SWAP1 SWAP2 PUSH2 0x100 EXP DUP2 SLOAD DUP2 PUSH20 0xFFFFFFFFFFFFFFFFFFFFFFFFFFFFFFFFFFFFFFFF MUL NOT AND SWAP1 DUP4 PUSH20 0xFFFFFFFFFFFFFFFFFFFFFFFFFFFFFFFFFFFFFFFF AND MUL OR SWAP1 SSTORE POP POP PUSH1 0x1 DUP1 PUSH1 0x0 DUP4 PUSH20 0xFFFFFFFFFFFFFFFFFFFFFFFFFFFFFFFFFFFFFFFF AND PUSH20 0xFFFFFFFFFFFFFFFFFFFFFFFFFFFFFFFFFFFFFFFF AND DUP2 MSTORE PUSH1 0x20 ADD SWAP1 DUP2 MSTORE PUSH1 0x20 ADD PUSH1 0x0 KECCAK256 PUSH1 0x0 PUSH2 0x100 EXP DUP2 SLOAD DUP2 PUSH1 0xFF MUL NOT AND SWAP1 DUP4 ISZERO ISZERO MUL OR SWAP1 SSTORE POP PUSH32 0x3C447F519AC1C1B0A1B61461C65097312D6BCEEA813C279BCE5FB53DD552A3D2 DUP2 PUSH1 0x40 MLOAD DUP1 DUP3 PUSH20 0xFFFFFFFFFFFFFFFFFFFFFFFFFFFFFFFFFFFFFFFF AND PUSH20 0xFFFFFFFFFFFFFFFFFFFFFFFFFFFFFFFFFFFFFFFF AND DUP2 MSTORE PUSH1 0x20 ADD SWAP2 POP POP PUSH1 0x40 MLOAD DUP1 SWAP2 SUB SWAP1 LOG1 POP JUMP JUMPDEST PUSH1 0xB PUSH1 0x0 SWAP1 SLOAD SWAP1 PUSH2 0x100 EXP SWAP1 DIV PUSH20 0xFFFFFFFFFFFFFFFFFFFFFFFFFFFFFFFFFFFFFFFF AND PUSH20 0xFFFFFFFFFFFFFFFFFFFFFFFFFFFFFFFFFFFFFFFF AND CALLER PUSH20 0xFFFFFFFFFFFFFFFFFFFFFFFFFFFFFFFFFFFFFFFF AND EQ PUSH2 0x1925 JUMPI PUSH1 0x40 MLOAD PUSH32 0x8C379A000000000000000000000000000000000000000000000000000000000 DUP2 MSTORE PUSH1 0x4 ADD DUP1 DUP1 PUSH1 0x20 ADD DUP3 DUP2 SUB DUP3 MSTORE PUSH1 0x24 DUP2 MSTORE PUSH1 0x20 ADD DUP1 PUSH2 0x1B17 PUSH1 0x24 SWAP2 CODECOPY PUSH1 0x40 ADD SWAP2 POP POP PUSH1 0x40 MLOAD DUP1 SWAP2 SUB SWAP1 REVERT JUMPDEST DUP1 PUSH1 0xB PUSH1 0x0 PUSH2 0x100 EXP DUP2 SLOAD DUP2 PUSH20 0xFFFFFFFFFFFFFFFFFFFFFFFFFFFFFFFFFFFFFFFF MUL NOT AND SWAP1 DUP4 PUSH20 0xFFFFFFFFFFFFFFFFFFFFFFFFFFFFFFFFFFFFFFFF AND MUL OR SWAP1 SSTORE POP PUSH32 0x46E0D3F41EF6EFA4D8AAB7B132788E8F728CE9C5FAAD65D33E387D8188BEE615 DUP2 PUSH1 0x40 MLOAD DUP1 DUP3 PUSH20 0xFFFFFFFFFFFFFFFFFFFFFFFFFFFFFFFFFFFFFFFF AND PUSH20 0xFFFFFFFFFFFFFFFFFFFFFFFFFFFFFFFFFFFFFFFF AND DUP2 MSTORE PUSH1 0x20 ADD SWAP2 POP POP PUSH1 0x40 MLOAD DUP1 SWAP2 SUB SWAP1 LOG1 POP JUMP JUMPDEST DUP3 PUSH1 0x2 PUSH1 0x0 DUP7 DUP2 MSTORE PUSH1 0x20 ADD SWAP1 DUP2 MSTORE PUSH1 0x20 ADD PUSH1 0x0 KECCAK256 PUSH1 0x0 PUSH2 0x100 EXP DUP2 SLOAD DUP2 PUSH20 0xFFFFFFFFFFFFFFFFFFFFFFFFFFFFFFFFFFFFFFFF MUL NOT AND SWAP1 DUP4 PUSH20 0xFFFFFFFFFFFFFFFFFFFFFFFFFFFFFFFFFFFFFFFF AND MUL OR SWAP1 SSTORE POP DUP2 DUP2 PUSH1 0x3 PUSH1 0x0 DUP8 DUP2 MSTORE PUSH1 0x20 ADD SWAP1 DUP2 MSTORE PUSH1 0x20 ADD PUSH1 0x0 KECCAK256 SWAP2 SWAP1 PUSH2 0x1A40 SWAP3 SWAP2 SWAP1 PUSH2 0x1A71 JUMP JUMPDEST POP POP POP POP POP JUMP JUMPDEST PUSH1 0x0 PUSH1 0xD PUSH1 0x0 DUP4 DUP2 MSTORE PUSH1 0x20 ADD SWAP1 DUP2 MSTORE PUSH1 0x20 ADD PUSH1 0x0 KECCAK256 PUSH1 0x0 SWAP1 SLOAD SWAP1 PUSH2 0x100 EXP SWAP1 DIV PUSH1 0xFF AND SWAP1 POP SWAP2 SWAP1 POP JUMP JUMPDEST DUP3 DUP1 SLOAD PUSH1 0x1 DUP2 PUSH1 0x1 AND ISZERO PUSH2 0x100 MUL SUB AND PUSH1 0x2 SWAP1 DIV SWAP1 PUSH1 0x0 MSTORE PUSH1 0x20 PUSH1 0x0 KECCAK256 SWAP1 PUSH1 0x1F ADD PUSH1 0x20 SWAP1 DIV DUP2 ADD SWAP3 DUP3 PUSH1 0x1F LT PUSH2 0x1AB2 JUMPI DUP1 CALLDATALOAD PUSH1 0xFF NOT AND DUP4 DUP1 ADD OR DUP6 SSTORE PUSH2 0x1AE0 JUMP JUMPDEST DUP3 DUP1 ADD PUSH1 0x1 ADD DUP6 SSTORE DUP3 ISZERO PUSH2 0x1AE0 JUMPI SWAP2 DUP3 ADD JUMPDEST DUP3 DUP2 GT ISZERO PUSH2 0x1ADF JUMPI DUP3 CALLDATALOAD DUP3 SSTORE SWAP2 PUSH1 0x20 ADD SWAP2 SWAP1 PUSH1 0x1 ADD SWAP1 PUSH2 0x1AC4 JUMP JUMPDEST JUMPDEST POP SWAP1 POP PUSH2 0x1AED SWAP2 SWAP1 PUSH2 0x1AF1 JUMP JUMPDEST POP SWAP1 JUMP JUMPDEST PUSH2 0x1B13 SWAP2 SWAP1 JUMPDEST DUP1 DUP3 GT ISZERO PUSH2 0x1B0F JUMPI PUSH1 0x0 DUP2 PUSH1 0x0 SWAP1 SSTORE POP PUSH1 0x1 ADD PUSH2 0x1AF7 JUMP JUMPDEST POP SWAP1 JUMP JUMPDEST SWAP1 JUMP INVALID 0x4F PUSH15 0x6C792043686169726D616E2063616E KECCAK256 PUSH4 0x616C6C20 PUSH21 0x6869732066756E6374696F6E6170706C6963616E74 KECCAK256 PUSH2 0x6C72 PUSH6 0x61647920756E PUSH5 0x6572676F69 PUSH15 0x6720766F74696E6755736572206973 KECCAK256 PUSH15 0x6F7420612063757272656E7420636F PUSH14 0x6D6974746565204D656D626572A2 PUSH6 0x627A7A723158 KECCAK256 0xD4 PUSH18 0x8602631CA426D86B55427222E02266E0B80C 0xC9 SMOD PUSH29 0x67E9AE1EF46CFE209064736F6C63430005110032000000000000000000 "
				},
				"gasEstimates": {
					"creation": {
						"codeDepositCost": "1419200",
						"executionCost": "infinite",
						"totalCost": "infinite"
					},
					"external": {
						"addApplicant(uint256,address,string)": "infinite",
						"addCommitteeMember(address)": "infinite",
						"changeChairman(address)": "infinite",
						"changeDeadline(uint256)": "infinite",
						"changeFee(uint256)": "infinite",
						"checkApproved(uint256)": "1271",
						"checkConcluded(uint256)": "1315",
						"closeVote(uint256,uint256)": "infinite",
						"distributeFee()": "infinite",
						"getApplicantName(uint256)": "infinite",
						"getCommitteeChairman()": "1106",
						"getCommitteeMembers()": "infinite",
						"getDeadline()": "1103",
						"getFee()": "1035",
						"getVotingState(uint256)": "1356",
						"getvotingTimeframe()": "1124",
						"openVote(uint256)": "infinite",
						"removeCommiteeMember(address)": "infinite",
						"vote(uint256,bool,bool,bool,bool,bool)": "46234"
					}
				},
				"methodIdentifiers": {
					"addApplicant(uint256,address,string)": "e8fe14e4",
					"addCommitteeMember(address)": "e7f1f953",
					"changeChairman(address)": "e8101869",
					"changeDeadline(uint256)": "7aca97b5",
					"changeFee(uint256)": "6a1db1bf",
					"checkApproved(uint256)": "af3be4d8",
					"checkConcluded(uint256)": "b38188d4",
					"closeVote(uint256,uint256)": "56b2edb6",
					"distributeFee()": "26c4e60d",
					"getApplicantName(uint256)": "5e01a6ff",
					"getCommitteeChairman()": "6c814acb",
					"getCommitteeMembers()": "b2a275f9",
					"getDeadline()": "5f8d96de",
					"getFee()": "ced72f87",
					"getVotingState(uint256)": "f3caf03b",
					"getvotingTimeframe()": "94e4689d",
					"openVote(uint256)": "8d00f82e",
					"removeCommiteeMember(address)": "a03b2a15",
					"vote(uint256,bool,bool,bool,bool,bool)": "be7f114c"
				}
			},
			"storageLayout": {
				"storage": [
					{
						"astId": 7,
						"contract": "contracts/AcceptanceVoting.sol:AcceptanceVoting",
						"label": "committeeMembers",
						"offset": 0,
						"slot": "0",
						"type": "t_array(t_address)dyn_storage"
					},
					{
						"astId": 11,
						"contract": "contracts/AcceptanceVoting.sol:AcceptanceVoting",
						"label": "isCommitteeMember",
						"offset": 0,
						"slot": "1",
						"type": "t_mapping(t_address,t_bool)"
					},
					{
						"astId": 15,
						"contract": "contracts/AcceptanceVoting.sol:AcceptanceVoting",
						"label": "applicantAddress",
						"offset": 0,
						"slot": "2",
						"type": "t_mapping(t_uint256,t_address)"
					},
					{
						"astId": 19,
						"contract": "contracts/AcceptanceVoting.sol:AcceptanceVoting",
						"label": "applicantName",
						"offset": 0,
						"slot": "3",
						"type": "t_mapping(t_uint256,t_string_storage)"
					},
					{
						"astId": 25,
						"contract": "contracts/AcceptanceVoting.sol:AcceptanceVoting",
						"label": "hasVoted",
						"offset": 0,
						"slot": "4",
						"type": "t_mapping(t_address,t_mapping(t_uint256,t_bool))"
					},
					{
						"astId": 29,
						"contract": "contracts/AcceptanceVoting.sol:AcceptanceVoting",
						"label": "applicantVoteScore",
						"offset": 0,
						"slot": "5",
						"type": "t_mapping(t_uint256,t_uint256)"
					},
					{
						"astId": 33,
						"contract": "contracts/AcceptanceVoting.sol:AcceptanceVoting",
						"label": "applicantVotingState",
						"offset": 0,
						"slot": "6",
						"type": "t_mapping(t_uint256,t_enum(VotingState)4)"
					},
					{
						"astId": 37,
						"contract": "contracts/AcceptanceVoting.sol:AcceptanceVoting",
						"label": "applicantVoteOpenBlock",
						"offset": 0,
						"slot": "7",
						"type": "t_mapping(t_uint256,t_uint256)"
					},
					{
						"astId": 41,
						"contract": "contracts/AcceptanceVoting.sol:AcceptanceVoting",
						"label": "isApproved",
						"offset": 0,
						"slot": "8",
						"type": "t_mapping(t_uint256,t_bool)"
					},
					{
						"astId": 45,
						"contract": "contracts/AcceptanceVoting.sol:AcceptanceVoting",
						"label": "isConcluded",
						"offset": 0,
						"slot": "9",
						"type": "t_mapping(t_uint256,t_bool)"
					},
					{
						"astId": 47,
						"contract": "contracts/AcceptanceVoting.sol:AcceptanceVoting",
						"label": "applicationFee",
						"offset": 0,
						"slot": "10",
						"type": "t_uint256"
					},
					{
						"astId": 49,
						"contract": "contracts/AcceptanceVoting.sol:AcceptanceVoting",
						"label": "committeeChairman",
						"offset": 0,
						"slot": "11",
						"type": "t_address"
					},
					{
						"astId": 51,
						"contract": "contracts/AcceptanceVoting.sol:AcceptanceVoting",
						"label": "votingTimeframe",
						"offset": 0,
						"slot": "12",
						"type": "t_uint256"
					},
					{
						"astId": 55,
						"contract": "contracts/AcceptanceVoting.sol:AcceptanceVoting",
						"label": "currentState",
						"offset": 0,
						"slot": "13",
						"type": "t_mapping(t_uint256,t_enum(VotingState)4)"
					}
				],
				"types": {
					"t_address": {
						"encoding": "inplace",
						"label": "address",
						"numberOfBytes": "20"
					},
					"t_array(t_address)dyn_storage": {
						"base": "t_address",
						"encoding": "dynamic_array",
						"label": "address[]",
						"numberOfBytes": "32"
					},
					"t_bool": {
						"encoding": "inplace",
						"label": "bool",
						"numberOfBytes": "1"
					},
					"t_enum(VotingState)4": {
						"encoding": "inplace",
						"label": "enum AcceptanceVoting.VotingState",
						"numberOfBytes": "1"
					},
					"t_mapping(t_address,t_bool)": {
						"encoding": "mapping",
						"key": "t_address",
						"label": "mapping(address => bool)",
						"numberOfBytes": "32",
						"value": "t_bool"
					},
					"t_mapping(t_address,t_mapping(t_uint256,t_bool))": {
						"encoding": "mapping",
						"key": "t_address",
						"label": "mapping(address => mapping(uint256 => bool))",
						"numberOfBytes": "32",
						"value": "t_mapping(t_uint256,t_bool)"
					},
					"t_mapping(t_uint256,t_address)": {
						"encoding": "mapping",
						"key": "t_uint256",
						"label": "mapping(uint256 => address)",
						"numberOfBytes": "32",
						"value": "t_address"
					},
					"t_mapping(t_uint256,t_bool)": {
						"encoding": "mapping",
						"key": "t_uint256",
						"label": "mapping(uint256 => bool)",
						"numberOfBytes": "32",
						"value": "t_bool"
					},
					"t_mapping(t_uint256,t_enum(VotingState)4)": {
						"encoding": "mapping",
						"key": "t_uint256",
						"label": "mapping(uint256 => enum AcceptanceVoting.VotingState)",
						"numberOfBytes": "32",
						"value": "t_enum(VotingState)4"
					},
					"t_mapping(t_uint256,t_string_storage)": {
						"encoding": "mapping",
						"key": "t_uint256",
						"label": "mapping(uint256 => string)",
						"numberOfBytes": "32",
						"value": "t_string_storage"
					},
					"t_mapping(t_uint256,t_uint256)": {
						"encoding": "mapping",
						"key": "t_uint256",
						"label": "mapping(uint256 => uint256)",
						"numberOfBytes": "32",
						"value": "t_uint256"
					},
					"t_string_storage": {
						"encoding": "bytes",
						"label": "string",
						"numberOfBytes": "32"
					},
					"t_uint256": {
						"encoding": "inplace",
						"label": "uint256",
						"numberOfBytes": "32"
					}
				}
			},
			"userdoc": {
				"methods": {}
			}
		}
	}
}